{
  "_format": "hh-sol-artifact-1",
  "contractName": "Twitt3r",
  "sourceName": "contracts/Twitt3r.sol",
  "abi": [
    {
      "inputs": [],
      "stateMutability": "payable",
      "type": "constructor"
    },
    {
      "anonymous": false,
      "inputs": [
        {
          "indexed": false,
          "internalType": "uint256",
          "name": "id",
          "type": "uint256"
        }
      ],
      "name": "ClearTweets",
      "type": "event"
    },
    {
      "anonymous": false,
      "inputs": [
        {
          "indexed": true,
          "internalType": "uint256",
          "name": "id",
          "type": "uint256"
        },
        {
          "indexed": true,
          "internalType": "address",
          "name": "from",
          "type": "address"
        },
        {
          "indexed": false,
          "internalType": "uint256",
          "name": "timestamp",
          "type": "uint256"
        },
        {
          "indexed": false,
          "internalType": "string",
          "name": "message",
          "type": "string"
        }
      ],
      "name": "DeleteTweet",
      "type": "event"
    },
    {
      "anonymous": false,
      "inputs": [
        {
          "indexed": true,
          "internalType": "uint256",
          "name": "id",
          "type": "uint256"
        },
        {
          "indexed": true,
          "internalType": "address",
          "name": "from",
          "type": "address"
        },
        {
          "indexed": false,
          "internalType": "uint256",
          "name": "timestamp",
          "type": "uint256"
        },
        {
          "indexed": false,
          "internalType": "string",
          "name": "message",
          "type": "string"
        }
      ],
      "name": "EditTweet",
      "type": "event"
    },
    {
      "anonymous": false,
      "inputs": [
        {
          "indexed": true,
          "internalType": "uint256",
          "name": "id",
          "type": "uint256"
        },
        {
          "indexed": true,
          "internalType": "address",
          "name": "from",
          "type": "address"
        },
        {
          "indexed": false,
          "internalType": "uint256",
          "name": "timestamp",
          "type": "uint256"
        },
        {
          "indexed": false,
          "internalType": "string",
          "name": "message",
          "type": "string"
        }
      ],
      "name": "NewTweet",
      "type": "event"
    },
    {
      "anonymous": false,
      "inputs": [
        {
          "indexed": true,
          "internalType": "address",
          "name": "previousOwner",
          "type": "address"
        },
        {
          "indexed": true,
          "internalType": "address",
          "name": "newOwner",
          "type": "address"
        }
      ],
      "name": "OwnershipTransferred",
      "type": "event"
    },
    {
      "anonymous": false,
      "inputs": [
        {
          "indexed": false,
          "internalType": "address",
          "name": "account",
          "type": "address"
        }
      ],
      "name": "Paused",
      "type": "event"
    },
    {
      "anonymous": false,
      "inputs": [
        {
          "indexed": false,
          "internalType": "address",
          "name": "account",
          "type": "address"
        }
      ],
      "name": "Unpaused",
      "type": "event"
    },
    {
      "anonymous": false,
      "inputs": [
        {
          "indexed": false,
          "internalType": "address",
          "name": "winner",
          "type": "address"
        },
        {
          "indexed": false,
          "internalType": "uint256",
          "name": "jackpot",
          "type": "uint256"
        }
      ],
      "name": "WonLottery",
      "type": "event"
    },
    {
      "inputs": [],
      "name": "clear",
      "outputs": [],
      "stateMutability": "nonpayable",
      "type": "function"
    },
    {
      "inputs": [
        {
          "internalType": "uint256",
          "name": "_id",
          "type": "uint256"
        }
      ],
      "name": "deleteTweet",
      "outputs": [],
      "stateMutability": "nonpayable",
      "type": "function"
    },
    {
      "inputs": [],
      "name": "deposit",
      "outputs": [],
      "stateMutability": "payable",
      "type": "function"
    },
    {
      "inputs": [
        {
          "internalType": "uint256",
          "name": "_id",
          "type": "uint256"
        },
        {
          "internalType": "string",
          "name": "_message",
          "type": "string"
        }
      ],
      "name": "editTweet",
      "outputs": [],
      "stateMutability": "nonpayable",
      "type": "function"
    },
    {
      "inputs": [],
      "name": "getBalance",
      "outputs": [
        {
          "internalType": "uint256",
          "name": "",
          "type": "uint256"
        }
      ],
      "stateMutability": "view",
      "type": "function"
    },
    {
      "inputs": [],
      "name": "getJackpot",
      "outputs": [
        {
          "internalType": "uint256",
          "name": "",
          "type": "uint256"
        }
      ],
      "stateMutability": "view",
      "type": "function"
    },
    {
      "inputs": [],
      "name": "getLastWinner",
      "outputs": [
        {
          "internalType": "address",
          "name": "",
          "type": "address"
        }
      ],
      "stateMutability": "view",
      "type": "function"
    },
    {
      "inputs": [],
      "name": "getOdds",
      "outputs": [
        {
          "internalType": "uint256",
          "name": "",
          "type": "uint256"
        }
      ],
      "stateMutability": "view",
      "type": "function"
    },
    {
      "inputs": [],
      "name": "getOwner",
      "outputs": [
        {
          "internalType": "address",
          "name": "",
          "type": "address"
        }
      ],
      "stateMutability": "view",
      "type": "function"
    },
    {
      "inputs": [],
      "name": "getPrice",
      "outputs": [
        {
          "internalType": "uint256",
          "name": "",
          "type": "uint256"
        }
      ],
      "stateMutability": "view",
      "type": "function"
    },
    {
      "inputs": [],
      "name": "getTotalTweets",
      "outputs": [
        {
          "internalType": "uint256",
          "name": "",
          "type": "uint256"
        }
      ],
      "stateMutability": "view",
      "type": "function"
    },
    {
      "inputs": [],
      "name": "getTweets",
      "outputs": [
        {
          "components": [
            {
              "internalType": "address",
              "name": "from",
              "type": "address"
            },
            {
              "internalType": "uint256",
              "name": "timestamp",
              "type": "uint256"
            },
            {
              "internalType": "string",
              "name": "message",
              "type": "string"
            },
            {
              "internalType": "bool",
              "name": "deleted",
              "type": "bool"
            }
          ],
          "internalType": "struct Twitt3r.Tweet[]",
          "name": "",
          "type": "tuple[]"
        }
      ],
      "stateMutability": "view",
      "type": "function"
    },
    {
      "inputs": [],
      "name": "id",
      "outputs": [
        {
          "internalType": "uint256",
          "name": "",
          "type": "uint256"
        }
      ],
      "stateMutability": "view",
      "type": "function"
    },
    {
      "inputs": [],
      "name": "isPaused",
      "outputs": [
        {
          "internalType": "bool",
          "name": "",
          "type": "bool"
        }
      ],
      "stateMutability": "view",
      "type": "function"
    },
    {
      "inputs": [],
      "name": "jackpot",
      "outputs": [
        {
          "internalType": "uint256",
          "name": "",
          "type": "uint256"
        }
      ],
      "stateMutability": "view",
      "type": "function"
    },
    {
      "inputs": [
        {
          "internalType": "address",
          "name": "",
          "type": "address"
        }
      ],
      "name": "lastTweetedAt",
      "outputs": [
        {
          "internalType": "uint256",
          "name": "",
          "type": "uint256"
        }
      ],
      "stateMutability": "view",
      "type": "function"
    },
    {
      "inputs": [],
      "name": "lastWinner",
      "outputs": [
        {
          "internalType": "address",
          "name": "",
          "type": "address"
        }
      ],
      "stateMutability": "view",
      "type": "function"
    },
    {
      "inputs": [
        {
          "internalType": "string",
          "name": "_message",
          "type": "string"
        }
      ],
      "name": "newTweet",
      "outputs": [],
      "stateMutability": "payable",
      "type": "function"
    },
    {
      "inputs": [],
      "name": "odds",
      "outputs": [
        {
          "internalType": "uint256",
          "name": "",
          "type": "uint256"
        }
      ],
      "stateMutability": "view",
      "type": "function"
    },
    {
      "inputs": [],
      "name": "owner",
      "outputs": [
        {
          "internalType": "address",
          "name": "",
          "type": "address"
        }
      ],
      "stateMutability": "view",
      "type": "function"
    },
    {
      "inputs": [],
      "name": "pause",
      "outputs": [],
      "stateMutability": "nonpayable",
      "type": "function"
    },
    {
      "inputs": [],
      "name": "paused",
      "outputs": [
        {
          "internalType": "bool",
          "name": "",
          "type": "bool"
        }
      ],
      "stateMutability": "view",
      "type": "function"
    },
    {
      "inputs": [],
      "name": "price",
      "outputs": [
        {
          "internalType": "uint256",
          "name": "",
          "type": "uint256"
        }
      ],
      "stateMutability": "view",
      "type": "function"
    },
    {
      "inputs": [],
      "name": "renounceOwnership",
      "outputs": [],
      "stateMutability": "nonpayable",
      "type": "function"
    },
    {
      "inputs": [
        {
          "internalType": "address",
          "name": "newOwner",
          "type": "address"
        }
      ],
      "name": "transferOwnership",
      "outputs": [],
      "stateMutability": "nonpayable",
      "type": "function"
    },
    {
      "inputs": [
        {
          "internalType": "uint256",
          "name": "",
          "type": "uint256"
        }
      ],
      "name": "tweetIDs",
      "outputs": [
        {
          "internalType": "uint256",
          "name": "",
          "type": "uint256"
        }
      ],
      "stateMutability": "view",
      "type": "function"
    },
    {
      "inputs": [
        {
          "internalType": "uint256",
          "name": "",
          "type": "uint256"
        }
      ],
      "name": "tweets",
      "outputs": [
        {
          "internalType": "address",
          "name": "from",
          "type": "address"
        },
        {
          "internalType": "uint256",
          "name": "timestamp",
          "type": "uint256"
        },
        {
          "internalType": "string",
          "name": "message",
          "type": "string"
        },
        {
          "internalType": "bool",
          "name": "deleted",
          "type": "bool"
        }
      ],
      "stateMutability": "view",
      "type": "function"
    },
    {
      "inputs": [],
      "name": "unpause",
      "outputs": [],
      "stateMutability": "nonpayable",
      "type": "function"
    },
    {
      "inputs": [
        {
          "internalType": "uint256",
          "name": "_newPrice",
          "type": "uint256"
        },
        {
          "internalType": "uint256",
          "name": "_newOdds",
          "type": "uint256"
        },
        {
          "internalType": "uint256",
          "name": "_newJackpot",
          "type": "uint256"
        }
      ],
      "name": "updateSettings",
      "outputs": [],
      "stateMutability": "nonpayable",
      "type": "function"
    },
    {
      "inputs": [],
      "name": "withdraw",
      "outputs": [],
      "stateMutability": "nonpayable",
      "type": "function"
    }
  ],
  "bytecode": "0x6080604052655af3107a400060015566038d7ea4c68000600255600a600355600060065562000043620000376200006360201b60201c565b6200006b60201b60201c565b60008060146101000a81548160ff0219169083151502179055506200012f565b600033905090565b60008060009054906101000a900473ffffffffffffffffffffffffffffffffffffffff169050816000806101000a81548173ffffffffffffffffffffffffffffffffffffffff021916908373ffffffffffffffffffffffffffffffffffffffff1602179055508173ffffffffffffffffffffffffffffffffffffffff168173ffffffffffffffffffffffffffffffffffffffff167f8be0079c531659141344cd1fd0a4f28419497f9722a3daafe3b4186f6b6457e060405160405180910390a35050565b612fa8806200013f6000396000f3fe6080604052600436106101cd5760003560e01c80639329066c116100f7578063b281395b11610095578063f2fde38b11610064578063f2fde38b146105cf578063f88649a1146105f8578063fc86741f14610623578063fe1881841461064e576101cd565b8063b281395b1461051f578063d0e30db01461055c578063e8d857b014610566578063eae9e135146105a6576101cd565b8063a035b1fe116100d1578063a035b1fe14610461578063ac61d8d71461048c578063af640d0f146104c9578063b187bd26146104f4576101cd565b80639329066c146103e057806393f11c271461040b57806398d5fdca14610436576101cd565b806352efea6e1161016f578063715018a61161013e578063715018a61461035c5780638456cb5914610373578063893d20e81461038a5780638da5cb5b146103b5576101cd565b806352efea6e146102c65780635775912a146102dd5780635c975abb146103065780636b31ee0114610331576101cd565b806334dee1fa116101ab57806334dee1fa146102515780633ccfd60b1461026d5780633f4ba83a146102845780634c5be5741461029b576101cd565b80630465c563146101d257806312065fe0146101fb578063233de12614610226575b600080fd5b3480156101de57600080fd5b506101f960048036038101906101f4919061211b565b610679565b005b34801561020757600080fd5b50610210610715565b60405161021d919061287d565b60405180910390f35b34801561023257600080fd5b5061023b61071d565b604051610248919061287d565b60405180910390f35b61026b6004803603810190610266919061205d565b610723565b005b34801561027957600080fd5b50610282610a88565b005b34801561029057600080fd5b50610299610bc0565b005b3480156102a757600080fd5b506102b0610c46565b6040516102bd919061287d565b60405180910390f35b3480156102d257600080fd5b506102db610c50565b005b3480156102e957600080fd5b5061030460048036038101906102ff919061209e565b610db0565b005b34801561031257600080fd5b5061031b610ff2565b6040516103289190612662565b60405180910390f35b34801561033d57600080fd5b50610346611008565b604051610353919061287d565b60405180910390f35b34801561036857600080fd5b5061037161100e565b005b34801561037f57600080fd5b50610388611096565b005b34801561039657600080fd5b5061039f61111c565b6040516103ac91906125b0565b60405180910390f35b3480156103c157600080fd5b506103ca61112b565b6040516103d791906125b0565b60405180910390f35b3480156103ec57600080fd5b506103f5611154565b604051610402919061287d565b60405180910390f35b34801561041757600080fd5b5061042061115e565b60405161042d919061287d565b60405180910390f35b34801561044257600080fd5b5061044b61116b565b604051610458919061287d565b60405180910390f35b34801561046d57600080fd5b50610476611175565b604051610483919061287d565b60405180910390f35b34801561049857600080fd5b506104b360048036038101906104ae919061209e565b61117b565b6040516104c0919061287d565b60405180910390f35b3480156104d557600080fd5b506104de61119f565b6040516104eb919061287d565b60405180910390f35b34801561050057600080fd5b506105096111a5565b6040516105169190612662565b60405180910390f35b34801561052b57600080fd5b5061054660048036038101906105419190612034565b6111b4565b604051610553919061287d565b60405180910390f35b6105646111cc565b005b34801561057257600080fd5b5061058d6004803603810190610588919061209e565b6111ce565b60405161059d94939291906125f4565b60405180910390f35b3480156105b257600080fd5b506105cd60048036038101906105c891906120c7565b6112b3565b005b3480156105db57600080fd5b506105f660048036038101906105f19190612034565b611538565b005b34801561060457600080fd5b5061060d611630565b60405161061a91906125b0565b60405180910390f35b34801561062f57600080fd5b5061063861165a565b6040516106459190612640565b60405180910390f35b34801561065a57600080fd5b506106636118bd565b60405161067091906125b0565b60405180910390f35b6106816118e3565b73ffffffffffffffffffffffffffffffffffffffff1661069f61112b565b73ffffffffffffffffffffffffffffffffffffffff16146106f5576040517f08c379a00000000000000000000000000000000000000000000000000000000081526004016106ec906127dd565b60405180910390fd5b6106fe836118eb565b610707826118f5565b610710816118ff565b505050565b600047905090565b60035481565b61072b610ff2565b1561076b576040517f08c379a0000000000000000000000000000000000000000000000000000000008152600401610762906127bd565b60405180910390fd5b6001543410156107b0576040517f08c379a00000000000000000000000000000000000000000000000000000000081526004016107a79061281d565b60405180910390fd5b610118815111156107f6576040517f08c379a00000000000000000000000000000000000000000000000000000000081526004016107ed9061283d565b60405180910390fd5b42603c600960003373ffffffffffffffffffffffffffffffffffffffff1673ffffffffffffffffffffffffffffffffffffffff1681526020019081526020016000205461084391906129d4565b10610883576040517f08c379a000000000000000000000000000000000000000000000000000000000815260040161087a9061273d565b60405180910390fd5b42600960003373ffffffffffffffffffffffffffffffffffffffff1673ffffffffffffffffffffffffffffffffffffffff168152602001908152602001600020819055506109066040518060400160405280600f81526020017f257320686173207477656574656421000000000000000000000000000000000081525033611909565b60405180608001604052803373ffffffffffffffffffffffffffffffffffffffff1681526020014281526020018281526020016000151581525060086000600654815260200190815260200160002060008201518160000160006101000a81548173ffffffffffffffffffffffffffffffffffffffff021916908373ffffffffffffffffffffffffffffffffffffffff1602179055506020820151816001015560408201518160020190805190602001906109c2929190611e5e565b5060608201518160030160006101000a81548160ff02191690831515021790555090505060076006549080600181540180825580915050600190039060005260206000200160009091909190915055610a1a336119a5565b3373ffffffffffffffffffffffffffffffffffffffff166006547f7ac7383ab9cd990660baf242ccf198e3681c75e3e539fa1bcef7d0ad5a91caf24284604051610a65929190612898565b60405180910390a360066000815480929190610a8090612b4d565b919050555050565b610a906118e3565b73ffffffffffffffffffffffffffffffffffffffff16610aae61112b565b73ffffffffffffffffffffffffffffffffffffffff1614610b04576040517f08c379a0000000000000000000000000000000000000000000000000000000008152600401610afb906127dd565b60405180910390fd5b60004790506000610b1361112b565b73ffffffffffffffffffffffffffffffffffffffff1682604051610b369061259b565b60006040518083038185875af1925050503d8060008114610b73576040519150601f19603f3d011682016040523d82523d6000602084013e610b78565b606091505b5050905080610bbc576040517f08c379a0000000000000000000000000000000000000000000000000000000008152600401610bb39061285d565b60405180910390fd5b5050565b610bc86118e3565b73ffffffffffffffffffffffffffffffffffffffff16610be661112b565b73ffffffffffffffffffffffffffffffffffffffff1614610c3c576040517f08c379a0000000000000000000000000000000000000000000000000000000008152600401610c33906127dd565b60405180910390fd5b610c44611b91565b565b6000600354905090565b610c586118e3565b73ffffffffffffffffffffffffffffffffffffffff16610c7661112b565b73ffffffffffffffffffffffffffffffffffffffff1614610ccc576040517f08c379a0000000000000000000000000000000000000000000000000000000008152600401610cc3906127dd565b60405180910390fd5b6000600654905060005b600780549050811015610d5f5760086000828152602001908152602001600020600080820160006101000a81549073ffffffffffffffffffffffffffffffffffffffff02191690556001820160009055600282016000610d369190611ee4565b6003820160006101000a81549060ff021916905550508080610d5790612b4d565b915050610cd6565b5060076000610d6e9190611f24565b60006006819055507fae292c2f970a00a1ee119ec6476c14d3a9cc6a21522fd6816ea794aa7b2a8d3181604051610da5919061287d565b60405180910390a150565b610db8610ff2565b15610df8576040517f08c379a0000000000000000000000000000000000000000000000000000000008152600401610def906127bd565b60405180910390fd5b600060086000838152602001908152602001600020600101541415610e52576040517f08c379a0000000000000000000000000000000000000000000000000000000008152600401610e49906126fd565b60405180910390fd5b6008600082815260200190815260200160002060030160009054906101000a900460ff1615610eb6576040517f08c379a0000000000000000000000000000000000000000000000000000000008152600401610ead906127fd565b60405180910390fd5b3373ffffffffffffffffffffffffffffffffffffffff166008600083815260200190815260200160002060000160009054906101000a900473ffffffffffffffffffffffffffffffffffffffff1673ffffffffffffffffffffffffffffffffffffffff1614610f5a576040517f08c379a0000000000000000000000000000000000000000000000000000000008152600401610f519061277d565b60405180910390fd5b60016008600083815260200190815260200160002060030160006101000a81548160ff0219169083151502179055503373ffffffffffffffffffffffffffffffffffffffff16817fd3441b50401ee096e2e2f868486b0a776aa4533b16e1ce814985336a72664f954260086000868152602001908152602001600020600201604051610fe79291906128c8565b60405180910390a350565b60008060149054906101000a900460ff16905090565b60025481565b6110166118e3565b73ffffffffffffffffffffffffffffffffffffffff1661103461112b565b73ffffffffffffffffffffffffffffffffffffffff161461108a576040517f08c379a0000000000000000000000000000000000000000000000000000000008152600401611081906127dd565b60405180910390fd5b6110946000611c32565b565b61109e6118e3565b73ffffffffffffffffffffffffffffffffffffffff166110bc61112b565b73ffffffffffffffffffffffffffffffffffffffff1614611112576040517f08c379a0000000000000000000000000000000000000000000000000000000008152600401611109906127dd565b60405180910390fd5b61111a611cf6565b565b600061112661112b565b905090565b60008060009054906101000a900473ffffffffffffffffffffffffffffffffffffffff16905090565b6000600254905090565b6000600780549050905090565b6000600154905090565b60015481565b6007818154811061118b57600080fd5b906000526020600020016000915090505481565b60065481565b60006111af610ff2565b905090565b60096020528060005260406000206000915090505481565b565b60086020528060005260406000206000915090508060000160009054906101000a900473ffffffffffffffffffffffffffffffffffffffff169080600101549080600201805461121d90612aea565b80601f016020809104026020016040519081016040528092919081815260200182805461124990612aea565b80156112965780601f1061126b57610100808354040283529160200191611296565b820191906000526020600020905b81548152906001019060200180831161127957829003601f168201915b5050505050908060030160009054906101000a900460ff16905084565b6112bb610ff2565b156112fb576040517f08c379a00000000000000000000000000000000000000000000000000000000081526004016112f2906127bd565b60405180910390fd5b600060086000848152602001908152602001600020600101541415611355576040517f08c379a000000000000000000000000000000000000000000000000000000000815260040161134c906126fd565b60405180910390fd5b6008600083815260200190815260200160002060030160009054906101000a900460ff16156113b9576040517f08c379a00000000000000000000000000000000000000000000000000000000081526004016113b09061275d565b60405180910390fd5b3373ffffffffffffffffffffffffffffffffffffffff166008600084815260200190815260200160002060000160009054906101000a900473ffffffffffffffffffffffffffffffffffffffff1673ffffffffffffffffffffffffffffffffffffffff161461145d576040517f08c379a00000000000000000000000000000000000000000000000000000000081526004016114549061277d565b60405180910390fd5b610118815111156114a3576040517f08c379a000000000000000000000000000000000000000000000000000000000815260040161149a9061283d565b60405180910390fd5b806008600084815260200190815260200160002060020190805190602001906114cd929190611e5e565b503373ffffffffffffffffffffffffffffffffffffffff16827f62ac69c0bbb613d5a37d17eb75aeb147ebad012d1046ed8f91ad9e1df533cd86426008600087815260200190815260200160002060020160405161152c9291906128c8565b60405180910390a35050565b6115406118e3565b73ffffffffffffffffffffffffffffffffffffffff1661155e61112b565b73ffffffffffffffffffffffffffffffffffffffff16146115b4576040517f08c379a00000000000000000000000000000000000000000000000000000000081526004016115ab906127dd565b60405180910390fd5b600073ffffffffffffffffffffffffffffffffffffffff168173ffffffffffffffffffffffffffffffffffffffff161415611624576040517f08c379a000000000000000000000000000000000000000000000000000000000815260040161161b9061271d565b60405180910390fd5b61162d81611c32565b50565b6000600460009054906101000a900473ffffffffffffffffffffffffffffffffffffffff16905090565b6060600060078054905067ffffffffffffffff8111156116a3577f4e487b7100000000000000000000000000000000000000000000000000000000600052604160045260246000fd5b6040519080825280602002602001820160405280156116dc57816020015b6116c9611f45565b8152602001906001900390816116c15790505b50905060005b6007805490508110156118b557600860006007838154811061172d577f4e487b7100000000000000000000000000000000000000000000000000000000600052603260045260246000fd5b906000526020600020015481526020019081526020016000206040518060800160405290816000820160009054906101000a900473ffffffffffffffffffffffffffffffffffffffff1673ffffffffffffffffffffffffffffffffffffffff1673ffffffffffffffffffffffffffffffffffffffff168152602001600182015481526020016002820180546117c190612aea565b80601f01602080910402602001604051908101604052809291908181526020018280546117ed90612aea565b801561183a5780601f1061180f5761010080835404028352916020019161183a565b820191906000526020600020905b81548152906001019060200180831161181d57829003601f168201915b505050505081526020016003820160009054906101000a900460ff161515151581525050828281518110611897577f4e487b7100000000000000000000000000000000000000000000000000000000600052603260045260246000fd5b602002602001018190525080806118ad90612b4d565b9150506116e2565b508091505090565b600460009054906101000a900473ffffffffffffffffffffffffffffffffffffffff1681565b600033905090565b8060018190555050565b8060038190555050565b8060028190555050565b6119a1828260405160240161191f92919061267d565b6040516020818303038152906040527f319af333000000000000000000000000000000000000000000000000000000007bffffffffffffffffffffffffffffffffffffffffffffffffffffffff19166020820180517bffffffffffffffffffffffffffffffffffffffffffffffffffffffff8381831617835250505050611d99565b5050565b6002544710156119ea576040517f08c379a00000000000000000000000000000000000000000000000000000000081526004016119e19061279d565b60405180910390fd5b6000606460055442446119fd91906129d4565b611a0791906129d4565b611a119190612b96565b9050611a526040518060400160405280601681526020017f52616e646f6d20232067656e6572617465643a2025730000000000000000000081525082611dc2565b80600581905550600354811015611b8d57611aa26040518060400160405280600b81526020017f25732068617320776f6e2100000000000000000000000000000000000000000081525033611909565b60008273ffffffffffffffffffffffffffffffffffffffff16600254604051611aca9061259b565b60006040518083038185875af1925050503d8060008114611b07576040519150601f19603f3d011682016040523d82523d6000602084013e611b0c565b606091505b5050905080611b50576040517f08c379a0000000000000000000000000000000000000000000000000000000008152600401611b479061285d565b60405180910390fd5b7fda1fcd992ca31eb97f098763ee5be1bfc2d2f6fd214d42642d99ddccb8ec64c683600254604051611b839291906125cb565b60405180910390a1505b5050565b611b99610ff2565b611bd8576040517f08c379a0000000000000000000000000000000000000000000000000000000008152600401611bcf906126dd565b60405180910390fd5b60008060146101000a81548160ff0219169083151502179055507f5db9ee0a495bf2e6ff9c91a7834c1ba4fdd244a5e8aa4e537bd38aeae4b073aa611c1b6118e3565b604051611c2891906125b0565b60405180910390a1565b60008060009054906101000a900473ffffffffffffffffffffffffffffffffffffffff169050816000806101000a81548173ffffffffffffffffffffffffffffffffffffffff021916908373ffffffffffffffffffffffffffffffffffffffff1602179055508173ffffffffffffffffffffffffffffffffffffffff168173ffffffffffffffffffffffffffffffffffffffff167f8be0079c531659141344cd1fd0a4f28419497f9722a3daafe3b4186f6b6457e060405160405180910390a35050565b611cfe610ff2565b15611d3e576040517f08c379a0000000000000000000000000000000000000000000000000000000008152600401611d35906127bd565b60405180910390fd5b6001600060146101000a81548160ff0219169083151502179055507f62e78cea01bee320cd4e420270b5ea74000d11b0c9f74754ebdbfc544b05a258611d826118e3565b604051611d8f91906125b0565b60405180910390a1565b60008151905060006a636f6e736f6c652e6c6f679050602083016000808483855afa5050505050565b611e5a8282604051602401611dd89291906126ad565b6040516020818303038152906040527f9710a9d0000000000000000000000000000000000000000000000000000000007bffffffffffffffffffffffffffffffffffffffffffffffffffffffff19166020820180517bffffffffffffffffffffffffffffffffffffffffffffffffffffffff8381831617835250505050611d99565b5050565b828054611e6a90612aea565b90600052602060002090601f016020900481019282611e8c5760008555611ed3565b82601f10611ea557805160ff1916838001178555611ed3565b82800160010185558215611ed3579182015b82811115611ed2578251825591602001919060010190611eb7565b5b509050611ee09190611f85565b5090565b508054611ef090612aea565b6000825580601f10611f025750611f21565b601f016020900490600052602060002090810190611f209190611f85565b5b50565b5080546000825590600052602060002090810190611f429190611f85565b50565b6040518060800160405280600073ffffffffffffffffffffffffffffffffffffffff16815260200160008152602001606081526020016000151581525090565b5b80821115611f9e576000816000905550600101611f86565b5090565b6000611fb5611fb08461291d565b6128f8565b905082815260208101848484011115611fcd57600080fd5b611fd8848285612aa8565b509392505050565b600081359050611fef81612f44565b92915050565b600082601f83011261200657600080fd5b8135612016848260208601611fa2565b91505092915050565b60008135905061202e81612f5b565b92915050565b60006020828403121561204657600080fd5b600061205484828501611fe0565b91505092915050565b60006020828403121561206f57600080fd5b600082013567ffffffffffffffff81111561208957600080fd5b61209584828501611ff5565b91505092915050565b6000602082840312156120b057600080fd5b60006120be8482850161201f565b91505092915050565b600080604083850312156120da57600080fd5b60006120e88582860161201f565b925050602083013567ffffffffffffffff81111561210557600080fd5b61211185828601611ff5565b9150509250929050565b60008060006060848603121561213057600080fd5b600061213e8682870161201f565b935050602061214f8682870161201f565b92505060406121608682870161201f565b9150509250925092565b6000612176838361251a565b905092915050565b61218781612a72565b82525050565b61219681612a2a565b82525050565b6121a581612a2a565b82525050565b60006121b682612973565b6121c08185612996565b9350836020820285016121d28561294e565b8060005b8581101561220e57848403895281516121ef858261216a565b94506121fa83612989565b925060208a019950506001810190506121d6565b50829750879550505050505092915050565b61222981612a3c565b82525050565b61223881612a3c565b82525050565b60006122498261297e565b61225381856129b2565b9350612263818560208601612ab7565b61226c81612c83565b840191505092915050565b60006122828261297e565b61228c81856129c3565b935061229c818560208601612ab7565b6122a581612c83565b840191505092915050565b600081546122bd81612aea565b6122c781866129c3565b945060018216600081146122e257600181146122f457612327565b60ff1983168652602086019350612327565b6122fd8561295e565b60005b8381101561231f57815481890152600182019150602081019050612300565b808801955050505b50505092915050565b600061233d6014836129c3565b915061234882612c94565b602082019050919050565b60006123606013836129c3565b915061236b82612cbd565b602082019050919050565b60006123836026836129c3565b915061238e82612ce6565b604082019050919050565b60006123a6602b836129c3565b91506123b182612d35565b604082019050919050565b60006123c96017836129c3565b91506123d482612d84565b602082019050919050565b60006123ec6025836129c3565b91506123f782612dad565b604082019050919050565b600061240f6021836129c3565b915061241a82612dfc565b604082019050919050565b60006124326010836129c3565b915061243d82612e4b565b602082019050919050565b60006124556020836129c3565b915061246082612e74565b602082019050919050565b6000612478601f836129c3565b915061248382612e9d565b602082019050919050565b600061249b6018836129c3565b91506124a682612ec6565b602082019050919050565b60006124be6000836129a7565b91506124c982612eef565b600082019050919050565b60006124e16018836129c3565b91506124ec82612ef2565b602082019050919050565b60006125046020836129c3565b915061250f82612f1b565b602082019050919050565b6000608083016000830151612532600086018261218d565b506020830151612545602086018261257d565b506040830151848203604086015261255d828261223e565b91505060608301516125726060860182612220565b508091505092915050565b61258681612a68565b82525050565b61259581612a68565b82525050565b60006125a6826124b1565b9150819050919050565b60006020820190506125c5600083018461219c565b92915050565b60006040820190506125e0600083018561217e565b6125ed602083018461258c565b9392505050565b6000608082019050612609600083018761219c565b612616602083018661258c565b81810360408301526126288185612277565b9050612637606083018461222f565b95945050505050565b6000602082019050818103600083015261265a81846121ab565b905092915050565b6000602082019050612677600083018461222f565b92915050565b600060408201905081810360008301526126978185612277565b90506126a6602083018461219c565b9392505050565b600060408201905081810360008301526126c78185612277565b90506126d6602083018461258c565b9392505050565b600060208201905081810360008301526126f681612330565b9050919050565b6000602082019050818103600083015261271681612353565b9050919050565b6000602082019050818103600083015261273681612376565b9050919050565b6000602082019050818103600083015261275681612399565b9050919050565b60006020820190508181036000830152612776816123bc565b9050919050565b60006020820190508181036000830152612796816123df565b9050919050565b600060208201905081810360008301526127b681612402565b9050919050565b600060208201905081810360008301526127d681612425565b9050919050565b600060208201905081810360008301526127f681612448565b9050919050565b600060208201905081810360008301526128168161246b565b9050919050565b600060208201905081810360008301526128368161248e565b9050919050565b60006020820190508181036000830152612856816124d4565b9050919050565b60006020820190508181036000830152612876816124f7565b9050919050565b6000602082019050612892600083018461258c565b92915050565b60006040820190506128ad600083018561258c565b81810360208301526128bf8184612277565b90509392505050565b60006040820190506128dd600083018561258c565b81810360208301526128ef81846122b0565b90509392505050565b6000612902612913565b905061290e8282612b1c565b919050565b6000604051905090565b600067ffffffffffffffff82111561293857612937612c54565b5b61294182612c83565b9050602081019050919050565b6000819050602082019050919050565b60008190508160005260206000209050919050565b600081519050919050565b600081519050919050565b6000602082019050919050565b600082825260208201905092915050565b600081905092915050565b600082825260208201905092915050565b600082825260208201905092915050565b60006129df82612a68565b91506129ea83612a68565b9250827fffffffffffffffffffffffffffffffffffffffffffffffffffffffffffffffff03821115612a1f57612a1e612bc7565b5b828201905092915050565b6000612a3582612a48565b9050919050565b60008115159050919050565b600073ffffffffffffffffffffffffffffffffffffffff82169050919050565b6000819050919050565b6000612a7d82612a84565b9050919050565b6000612a8f82612a96565b9050919050565b6000612aa182612a48565b9050919050565b82818337600083830152505050565b60005b83811015612ad5578082015181840152602081019050612aba565b83811115612ae4576000848401525b50505050565b60006002820490506001821680612b0257607f821691505b60208210811415612b1657612b15612c25565b5b50919050565b612b2582612c83565b810181811067ffffffffffffffff82111715612b4457612b43612c54565b5b80604052505050565b6000612b5882612a68565b91507fffffffffffffffffffffffffffffffffffffffffffffffffffffffffffffffff821415612b8b57612b8a612bc7565b5b600182019050919050565b6000612ba182612a68565b9150612bac83612a68565b925082612bbc57612bbb612bf6565b5b828206905092915050565b7f4e487b7100000000000000000000000000000000000000000000000000000000600052601160045260246000fd5b7f4e487b7100000000000000000000000000000000000000000000000000000000600052601260045260246000fd5b7f4e487b7100000000000000000000000000000000000000000000000000000000600052602260045260246000fd5b7f4e487b7100000000000000000000000000000000000000000000000000000000600052604160045260246000fd5b6000601f19601f8301169050919050565b7f5061757361626c653a206e6f7420706175736564000000000000000000000000600082015250565b7f476976656e20494420697320696e76616c696400000000000000000000000000600082015250565b7f4f776e61626c653a206e6577206f776e657220697320746865207a65726f206160008201527f6464726573730000000000000000000000000000000000000000000000000000602082015250565b7f506c6561736520776169742061206d696e757465206265666f7265207477656560008201527f74696e6720616761696e21000000000000000000000000000000000000000000602082015250565b7f476976656e2074776565742069732064656c6574656421000000000000000000600082015250565b7f53656e64657220646f6573206e6f74206d617463682074686520676976656e2060008201527f7477656574000000000000000000000000000000000000000000000000000000602082015250565b7f436f6e74726163742062616c616e636520697320696e73756666696369656e7460008201527f2100000000000000000000000000000000000000000000000000000000000000602082015250565b7f5061757361626c653a2070617573656400000000000000000000000000000000600082015250565b7f4f776e61626c653a2063616c6c6572206973206e6f7420746865206f776e6572600082015250565b7f476976656e20747765657420697320616c72656164792064656c657465642100600082015250565b7f416d6f756e742073656e7420697320696e636f72726563740000000000000000600082015250565b50565b7f4c696d6974206973203238302063686172616374657273210000000000000000600082015250565b7f4661696c656420746f2077697468647261772066726f6d20636f6e7472616374600082015250565b612f4d81612a2a565b8114612f5857600080fd5b50565b612f6481612a68565b8114612f6f57600080fd5b5056fea2646970667358221220ab7f7d093148926e220ace4bc86b9280f8a1c3774d9deb29478cd954e2a7609264736f6c63430008040033",
  "linkReferences": {},
  "deployedLinkReferences": {}
}