{
  "_format": "hh-sol-artifact-1",
  "contractName": "Twitt3r",
  "sourceName": "contracts/Twitt3r.sol",
  "abi": [
    {
      "inputs": [],
      "stateMutability": "payable",
      "type": "constructor"
    },
    {
      "anonymous": false,
      "inputs": [
        {
          "indexed": false,
          "internalType": "uint256",
          "name": "id",
          "type": "uint256"
        }
      ],
      "name": "ClearTweets",
      "type": "event"
    },
    {
      "anonymous": false,
      "inputs": [
        {
          "indexed": true,
          "internalType": "uint256",
          "name": "id",
          "type": "uint256"
        },
        {
          "indexed": true,
          "internalType": "address",
          "name": "from",
          "type": "address"
        },
        {
          "indexed": false,
          "internalType": "uint256",
          "name": "timestamp",
          "type": "uint256"
        },
        {
          "indexed": false,
          "internalType": "string",
          "name": "message",
          "type": "string"
        },
        {
          "indexed": false,
          "internalType": "uint256",
          "name": "replyID",
          "type": "uint256"
        },
        {
          "indexed": false,
          "internalType": "uint256",
          "name": "retweetID",
          "type": "uint256"
        }
      ],
      "name": "DeleteTweet",
      "type": "event"
    },
    {
      "anonymous": false,
      "inputs": [
        {
          "indexed": true,
          "internalType": "uint256",
          "name": "id",
          "type": "uint256"
        },
        {
          "indexed": true,
          "internalType": "address",
          "name": "from",
          "type": "address"
        },
        {
          "indexed": false,
          "internalType": "uint256",
          "name": "timestamp",
          "type": "uint256"
        },
        {
          "indexed": false,
          "internalType": "string",
          "name": "message",
          "type": "string"
        },
        {
          "indexed": false,
          "internalType": "uint256",
          "name": "replyID",
          "type": "uint256"
        },
        {
          "indexed": false,
          "internalType": "uint256",
          "name": "retweetID",
          "type": "uint256"
        }
      ],
      "name": "EditTweet",
      "type": "event"
    },
    {
      "anonymous": false,
      "inputs": [
        {
          "indexed": true,
          "internalType": "uint256",
          "name": "id",
          "type": "uint256"
        },
        {
          "indexed": true,
          "internalType": "address",
          "name": "from",
          "type": "address"
        },
        {
          "indexed": false,
          "internalType": "uint256",
          "name": "timestamp",
          "type": "uint256"
        },
        {
          "indexed": false,
          "internalType": "string",
          "name": "message",
          "type": "string"
        },
        {
          "indexed": false,
          "internalType": "uint256",
          "name": "replyID",
          "type": "uint256"
        },
        {
          "indexed": false,
          "internalType": "uint256",
          "name": "retweetID",
          "type": "uint256"
        }
      ],
      "name": "NewTweet",
      "type": "event"
    },
    {
      "anonymous": false,
      "inputs": [
        {
          "indexed": true,
          "internalType": "address",
          "name": "previousOwner",
          "type": "address"
        },
        {
          "indexed": true,
          "internalType": "address",
          "name": "newOwner",
          "type": "address"
        }
      ],
      "name": "OwnershipTransferred",
      "type": "event"
    },
    {
      "anonymous": false,
      "inputs": [
        {
          "indexed": false,
          "internalType": "address",
          "name": "account",
          "type": "address"
        }
      ],
      "name": "Paused",
      "type": "event"
    },
    {
      "anonymous": false,
      "inputs": [
        {
          "indexed": false,
          "internalType": "address",
          "name": "account",
          "type": "address"
        }
      ],
      "name": "Unpaused",
      "type": "event"
    },
    {
      "anonymous": false,
      "inputs": [
        {
          "indexed": false,
          "internalType": "address",
          "name": "winner",
          "type": "address"
        },
        {
          "indexed": false,
          "internalType": "uint256",
          "name": "jackpot",
          "type": "uint256"
        }
      ],
      "name": "WonLottery",
      "type": "event"
    },
    {
      "inputs": [],
      "name": "clear",
      "outputs": [],
      "stateMutability": "nonpayable",
      "type": "function"
    },
    {
      "inputs": [
        {
          "internalType": "uint256",
          "name": "_id",
          "type": "uint256"
        }
      ],
      "name": "deleteTweet",
      "outputs": [],
      "stateMutability": "nonpayable",
      "type": "function"
    },
    {
      "inputs": [],
      "name": "deposit",
      "outputs": [],
      "stateMutability": "payable",
      "type": "function"
    },
    {
      "inputs": [
        {
          "internalType": "uint256",
          "name": "_id",
          "type": "uint256"
        },
        {
          "internalType": "string",
          "name": "_message",
          "type": "string"
        }
      ],
      "name": "editTweet",
      "outputs": [],
      "stateMutability": "nonpayable",
      "type": "function"
    },
    {
      "inputs": [],
      "name": "getBalance",
      "outputs": [
        {
          "internalType": "uint256",
          "name": "",
          "type": "uint256"
        }
      ],
      "stateMutability": "view",
      "type": "function"
    },
    {
      "inputs": [],
      "name": "getJackpot",
      "outputs": [
        {
          "internalType": "uint256",
          "name": "",
          "type": "uint256"
        }
      ],
      "stateMutability": "view",
      "type": "function"
    },
    {
      "inputs": [],
      "name": "getLastWinner",
      "outputs": [
        {
          "internalType": "address",
          "name": "",
          "type": "address"
        }
      ],
      "stateMutability": "view",
      "type": "function"
    },
    {
      "inputs": [],
      "name": "getOdds",
      "outputs": [
        {
          "internalType": "uint256",
          "name": "",
          "type": "uint256"
        }
      ],
      "stateMutability": "view",
      "type": "function"
    },
    {
      "inputs": [],
      "name": "getOwner",
      "outputs": [
        {
          "internalType": "address",
          "name": "",
          "type": "address"
        }
      ],
      "stateMutability": "view",
      "type": "function"
    },
    {
      "inputs": [],
      "name": "getPrice",
      "outputs": [
        {
          "internalType": "uint256",
          "name": "",
          "type": "uint256"
        }
      ],
      "stateMutability": "view",
      "type": "function"
    },
    {
      "inputs": [],
      "name": "getTotalTweets",
      "outputs": [
        {
          "internalType": "uint256",
          "name": "",
          "type": "uint256"
        }
      ],
      "stateMutability": "view",
      "type": "function"
    },
    {
      "inputs": [],
      "name": "getTweets",
      "outputs": [
        {
          "components": [
            {
              "internalType": "address",
              "name": "from",
              "type": "address"
            },
            {
              "internalType": "uint256",
              "name": "timestamp",
              "type": "uint256"
            },
            {
              "internalType": "string",
              "name": "message",
              "type": "string"
            },
            {
              "internalType": "bool",
              "name": "deleted",
              "type": "bool"
            },
            {
              "internalType": "uint256",
              "name": "replyID",
              "type": "uint256"
            },
            {
              "internalType": "uint256",
              "name": "retweetID",
              "type": "uint256"
            }
          ],
          "internalType": "struct Twitt3r.Tweet[]",
          "name": "",
          "type": "tuple[]"
        }
      ],
      "stateMutability": "view",
      "type": "function"
    },
    {
      "inputs": [],
      "name": "id",
      "outputs": [
        {
          "internalType": "uint256",
          "name": "",
          "type": "uint256"
        }
      ],
      "stateMutability": "view",
      "type": "function"
    },
    {
      "inputs": [],
      "name": "isPaused",
      "outputs": [
        {
          "internalType": "bool",
          "name": "",
          "type": "bool"
        }
      ],
      "stateMutability": "view",
      "type": "function"
    },
    {
      "inputs": [],
      "name": "jackpot",
      "outputs": [
        {
          "internalType": "uint256",
          "name": "",
          "type": "uint256"
        }
      ],
      "stateMutability": "view",
      "type": "function"
    },
    {
      "inputs": [
        {
          "internalType": "address",
          "name": "",
          "type": "address"
        }
      ],
      "name": "lastTweetedAt",
      "outputs": [
        {
          "internalType": "uint256",
          "name": "",
          "type": "uint256"
        }
      ],
      "stateMutability": "view",
      "type": "function"
    },
    {
      "inputs": [],
      "name": "lastWinner",
      "outputs": [
        {
          "internalType": "address",
          "name": "",
          "type": "address"
        }
      ],
      "stateMutability": "view",
      "type": "function"
    },
    {
      "inputs": [
        {
          "internalType": "string",
          "name": "_message",
          "type": "string"
        },
        {
          "internalType": "uint256",
          "name": "_replyID",
          "type": "uint256"
        },
        {
          "internalType": "uint256",
          "name": "_retweetID",
          "type": "uint256"
        }
      ],
      "name": "newTweet",
      "outputs": [],
      "stateMutability": "payable",
      "type": "function"
    },
    {
      "inputs": [],
      "name": "odds",
      "outputs": [
        {
          "internalType": "uint256",
          "name": "",
          "type": "uint256"
        }
      ],
      "stateMutability": "view",
      "type": "function"
    },
    {
      "inputs": [],
      "name": "owner",
      "outputs": [
        {
          "internalType": "address",
          "name": "",
          "type": "address"
        }
      ],
      "stateMutability": "view",
      "type": "function"
    },
    {
      "inputs": [],
      "name": "pause",
      "outputs": [],
      "stateMutability": "nonpayable",
      "type": "function"
    },
    {
      "inputs": [],
      "name": "paused",
      "outputs": [
        {
          "internalType": "bool",
          "name": "",
          "type": "bool"
        }
      ],
      "stateMutability": "view",
      "type": "function"
    },
    {
      "inputs": [],
      "name": "price",
      "outputs": [
        {
          "internalType": "uint256",
          "name": "",
          "type": "uint256"
        }
      ],
      "stateMutability": "view",
      "type": "function"
    },
    {
      "inputs": [],
      "name": "renounceOwnership",
      "outputs": [],
      "stateMutability": "nonpayable",
      "type": "function"
    },
    {
      "inputs": [
        {
          "internalType": "address",
          "name": "newOwner",
          "type": "address"
        }
      ],
      "name": "transferOwnership",
      "outputs": [],
      "stateMutability": "nonpayable",
      "type": "function"
    },
    {
      "inputs": [
        {
          "internalType": "uint256",
          "name": "",
          "type": "uint256"
        }
      ],
      "name": "tweetIDs",
      "outputs": [
        {
          "internalType": "uint256",
          "name": "",
          "type": "uint256"
        }
      ],
      "stateMutability": "view",
      "type": "function"
    },
    {
      "inputs": [
        {
          "internalType": "uint256",
          "name": "",
          "type": "uint256"
        }
      ],
      "name": "tweets",
      "outputs": [
        {
          "internalType": "address",
          "name": "from",
          "type": "address"
        },
        {
          "internalType": "uint256",
          "name": "timestamp",
          "type": "uint256"
        },
        {
          "internalType": "string",
          "name": "message",
          "type": "string"
        },
        {
          "internalType": "bool",
          "name": "deleted",
          "type": "bool"
        },
        {
          "internalType": "uint256",
          "name": "replyID",
          "type": "uint256"
        },
        {
          "internalType": "uint256",
          "name": "retweetID",
          "type": "uint256"
        }
      ],
      "stateMutability": "view",
      "type": "function"
    },
    {
      "inputs": [],
      "name": "unpause",
      "outputs": [],
      "stateMutability": "nonpayable",
      "type": "function"
    },
    {
      "inputs": [
        {
          "internalType": "uint256",
          "name": "_newPrice",
          "type": "uint256"
        },
        {
          "internalType": "uint256",
          "name": "_newOdds",
          "type": "uint256"
        },
        {
          "internalType": "uint256",
          "name": "_newJackpot",
          "type": "uint256"
        }
      ],
      "name": "updateSettings",
      "outputs": [],
      "stateMutability": "nonpayable",
      "type": "function"
    },
    {
      "inputs": [],
      "name": "withdraw",
      "outputs": [],
      "stateMutability": "nonpayable",
      "type": "function"
    }
  ],
  "bytecode": "0x6080604052655af3107a400060015566038d7ea4c68000600255600a600355600160065562000043620000376200006360201b60201c565b6200006b60201b60201c565b60008060146101000a81548160ff0219169083151502179055506200012f565b600033905090565b60008060009054906101000a900473ffffffffffffffffffffffffffffffffffffffff169050816000806101000a81548173ffffffffffffffffffffffffffffffffffffffff021916908373ffffffffffffffffffffffffffffffffffffffff1602179055508173ffffffffffffffffffffffffffffffffffffffff168173ffffffffffffffffffffffffffffffffffffffff167f8be0079c531659141344cd1fd0a4f28419497f9722a3daafe3b4186f6b6457e060405160405180910390a35050565b61310e806200013f6000396000f3fe6080604052600436106101cd5760003560e01c806393f11c27116100f7578063d0e30db011610095578063f2fde38b11610064578063f2fde38b146105d1578063f88649a1146105fa578063fc86741f14610625578063fe18818414610650576101cd565b8063d0e30db014610540578063d490db271461054a578063e8d857b014610566578063eae9e135146105a8576101cd565b8063ac61d8d7116100d1578063ac61d8d714610470578063af640d0f146104ad578063b187bd26146104d8578063b281395b14610503576101cd565b806393f11c27146103ef57806398d5fdca1461041a578063a035b1fe14610445576101cd565b80635775912a1161016f5780638456cb591161013e5780638456cb5914610357578063893d20e81461036e5780638da5cb5b146103995780639329066c146103c4576101cd565b80635775912a146102c15780635c975abb146102ea5780636b31ee0114610315578063715018a614610340576101cd565b80633ccfd60b116101ab5780633ccfd60b146102515780633f4ba83a146102685780634c5be5741461027f57806352efea6e146102aa576101cd565b80630465c563146101d257806312065fe0146101fb578063233de12614610226575b600080fd5b3480156101de57600080fd5b506101f960048036038101906101f49190612207565b61067b565b005b34801561020757600080fd5b50610210610717565b60405161021d91906129ab565b60405180910390f35b34801561023257600080fd5b5061023b61071f565b60405161024891906129ab565b60405180910390f35b34801561025d57600080fd5b50610266610725565b005b34801561027457600080fd5b5061027d61085d565b005b34801561028b57600080fd5b506102946108e3565b6040516102a191906129ab565b60405180910390f35b3480156102b657600080fd5b506102bf6108ed565b005b3480156102cd57600080fd5b506102e860048036038101906102e3919061218a565b610a5d565b005b3480156102f657600080fd5b506102ff610ccf565b60405161030c9190612790565b60405180910390f35b34801561032157600080fd5b5061032a610ce5565b60405161033791906129ab565b60405180910390f35b34801561034c57600080fd5b50610355610ceb565b005b34801561036357600080fd5b5061036c610d73565b005b34801561037a57600080fd5b50610383610df9565b60405161039091906126c2565b60405180910390f35b3480156103a557600080fd5b506103ae610e08565b6040516103bb91906126c2565b60405180910390f35b3480156103d057600080fd5b506103d9610e31565b6040516103e691906129ab565b60405180910390f35b3480156103fb57600080fd5b50610404610e3b565b60405161041191906129ab565b60405180910390f35b34801561042657600080fd5b5061042f610e48565b60405161043c91906129ab565b60405180910390f35b34801561045157600080fd5b5061045a610e52565b60405161046791906129ab565b60405180910390f35b34801561047c57600080fd5b506104976004803603810190610492919061218a565b610e58565b6040516104a491906129ab565b60405180910390f35b3480156104b957600080fd5b506104c2610e7c565b6040516104cf91906129ab565b60405180910390f35b3480156104e457600080fd5b506104ed610e82565b6040516104fa9190612790565b60405180910390f35b34801561050f57600080fd5b5061052a600480360381019061052591906120fa565b610e91565b60405161053791906129ab565b60405180910390f35b610548610ea9565b005b610564600480360381019061055f9190612123565b610eab565b005b34801561057257600080fd5b5061058d6004803603810190610588919061218a565b611236565b60405161059f96959493929190612706565b60405180910390f35b3480156105b457600080fd5b506105cf60048036038101906105ca91906121b3565b611327565b005b3480156105dd57600080fd5b506105f860048036038101906105f391906120fa565b6115dc565b005b34801561060657600080fd5b5061060f6116d4565b60405161061c91906126c2565b60405180910390f35b34801561063157600080fd5b5061063a6116fe565b604051610647919061276e565b60405180910390f35b34801561065c57600080fd5b50610665611975565b60405161067291906126c2565b60405180910390f35b61068361199b565b73ffffffffffffffffffffffffffffffffffffffff166106a1610e08565b73ffffffffffffffffffffffffffffffffffffffff16146106f7576040517f08c379a00000000000000000000000000000000000000000000000000000000081526004016106ee9061290b565b60405180910390fd5b610700836119a3565b610709826119ad565b610712816119b7565b505050565b600047905090565b60035481565b61072d61199b565b73ffffffffffffffffffffffffffffffffffffffff1661074b610e08565b73ffffffffffffffffffffffffffffffffffffffff16146107a1576040517f08c379a00000000000000000000000000000000000000000000000000000000081526004016107989061290b565b60405180910390fd5b600047905060006107b0610e08565b73ffffffffffffffffffffffffffffffffffffffff16826040516107d3906126ad565b60006040518083038185875af1925050503d8060008114610810576040519150601f19603f3d011682016040523d82523d6000602084013e610815565b606091505b5050905080610859576040517f08c379a00000000000000000000000000000000000000000000000000000000081526004016108509061298b565b60405180910390fd5b5050565b61086561199b565b73ffffffffffffffffffffffffffffffffffffffff16610883610e08565b73ffffffffffffffffffffffffffffffffffffffff16146108d9576040517f08c379a00000000000000000000000000000000000000000000000000000000081526004016108d09061290b565b60405180910390fd5b6108e16119c1565b565b6000600354905090565b6108f561199b565b73ffffffffffffffffffffffffffffffffffffffff16610913610e08565b73ffffffffffffffffffffffffffffffffffffffff1614610969576040517f08c379a00000000000000000000000000000000000000000000000000000000081526004016109609061290b565b60405180910390fd5b6000600654905060005b600780549050811015610a0c5760086000828152602001908152602001600020600080820160006101000a81549073ffffffffffffffffffffffffffffffffffffffff021916905560018201600090556002820160006109d39190611f16565b6003820160006101000a81549060ff02191690556004820160009055600582016000905550508080610a0490612cb3565b915050610973565b5060076000610a1b9190611f56565b60016006819055507fae292c2f970a00a1ee119ec6476c14d3a9cc6a21522fd6816ea794aa7b2a8d3181604051610a5291906129ab565b60405180910390a150565b610a65610ccf565b15610aa5576040517f08c379a0000000000000000000000000000000000000000000000000000000008152600401610a9c906128eb565b60405180910390fd5b600060086000838152602001908152602001600020600101541415610aff576040517f08c379a0000000000000000000000000000000000000000000000000000000008152600401610af69061282b565b60405180910390fd5b6008600082815260200190815260200160002060030160009054906101000a900460ff1615610b63576040517f08c379a0000000000000000000000000000000000000000000000000000000008152600401610b5a9061292b565b60405180910390fd5b3373ffffffffffffffffffffffffffffffffffffffff166008600083815260200190815260200160002060000160009054906101000a900473ffffffffffffffffffffffffffffffffffffffff1673ffffffffffffffffffffffffffffffffffffffff1614610c07576040517f08c379a0000000000000000000000000000000000000000000000000000000008152600401610bfe906128ab565b60405180910390fd5b60016008600083815260200190815260200160002060030160006101000a81548160ff0219169083151502179055503373ffffffffffffffffffffffffffffffffffffffff16817fc7c2a7b48e60815397c9e7a268880adaf6f320e8853dbfa60714407b8651d124426008600086815260200190815260200160002060020160086000878152602001908152602001600020600401546008600088815260200190815260200160002060050154604051610cc49493929190612a12565b60405180910390a350565b60008060149054906101000a900460ff16905090565b60025481565b610cf361199b565b73ffffffffffffffffffffffffffffffffffffffff16610d11610e08565b73ffffffffffffffffffffffffffffffffffffffff1614610d67576040517f08c379a0000000000000000000000000000000000000000000000000000000008152600401610d5e9061290b565b60405180910390fd5b610d716000611a62565b565b610d7b61199b565b73ffffffffffffffffffffffffffffffffffffffff16610d99610e08565b73ffffffffffffffffffffffffffffffffffffffff1614610def576040517f08c379a0000000000000000000000000000000000000000000000000000000008152600401610de69061290b565b60405180910390fd5b610df7611b26565b565b6000610e03610e08565b905090565b60008060009054906101000a900473ffffffffffffffffffffffffffffffffffffffff16905090565b6000600254905090565b6000600780549050905090565b6000600154905090565b60015481565b60078181548110610e6857600080fd5b906000526020600020016000915090505481565b60065481565b6000610e8c610ccf565b905090565b60096020528060005260406000206000915090505481565b565b610eb3610ccf565b15610ef3576040517f08c379a0000000000000000000000000000000000000000000000000000000008152600401610eea906128eb565b60405180910390fd5b600154341015610f38576040517f08c379a0000000000000000000000000000000000000000000000000000000008152600401610f2f9061294b565b60405180910390fd5b61011883511115610f7e576040517f08c379a0000000000000000000000000000000000000000000000000000000008152600401610f759061296b565b60405180910390fd5b42603c600960003373ffffffffffffffffffffffffffffffffffffffff1673ffffffffffffffffffffffffffffffffffffffff16815260200190815260200160002054610fcb9190612b3a565b1061100b576040517f08c379a00000000000000000000000000000000000000000000000000000000081526004016110029061286b565b60405180910390fd5b42600960003373ffffffffffffffffffffffffffffffffffffffff1673ffffffffffffffffffffffffffffffffffffffff1681526020019081526020016000208190555061108e6040518060400160405280600f81526020017f257320686173207477656574656421000000000000000000000000000000000081525033611bc9565b6040518060c001604052803373ffffffffffffffffffffffffffffffffffffffff1681526020014281526020018481526020016000151581526020018381526020018281525060086000600654815260200190815260200160002060008201518160000160006101000a81548173ffffffffffffffffffffffffffffffffffffffff021916908373ffffffffffffffffffffffffffffffffffffffff160217905550602082015181600101556040820151816002019080519060200190611156929190611f77565b5060608201518160030160006101000a81548160ff0219169083151502179055506080820151816004015560a08201518160050155905050600760065490806001815401808255809150506001900390600052602060002001600090919091909150556111c233611c65565b3373ffffffffffffffffffffffffffffffffffffffff166006547fbf90fba29b03646b1d6d22495fad4ab3f7cb41868a793c751f58b5d88a4223af4286868660405161121194939291906129c6565b60405180910390a36006600081548092919061122c90612cb3565b9190505550505050565b60086020528060005260406000206000915090508060000160009054906101000a900473ffffffffffffffffffffffffffffffffffffffff169080600101549080600201805461128590612c50565b80601f01602080910402602001604051908101604052809291908181526020018280546112b190612c50565b80156112fe5780601f106112d3576101008083540402835291602001916112fe565b820191906000526020600020905b8154815290600101906020018083116112e157829003601f168201915b5050505050908060030160009054906101000a900460ff16908060040154908060050154905086565b61132f610ccf565b1561136f576040517f08c379a0000000000000000000000000000000000000000000000000000000008152600401611366906128eb565b60405180910390fd5b6000600860008481526020019081526020016000206001015414156113c9576040517f08c379a00000000000000000000000000000000000000000000000000000000081526004016113c09061282b565b60405180910390fd5b6008600083815260200190815260200160002060030160009054906101000a900460ff161561142d576040517f08c379a00000000000000000000000000000000000000000000000000000000081526004016114249061288b565b60405180910390fd5b3373ffffffffffffffffffffffffffffffffffffffff166008600084815260200190815260200160002060000160009054906101000a900473ffffffffffffffffffffffffffffffffffffffff1673ffffffffffffffffffffffffffffffffffffffff16146114d1576040517f08c379a00000000000000000000000000000000000000000000000000000000081526004016114c8906128ab565b60405180910390fd5b61011881511115611517576040517f08c379a000000000000000000000000000000000000000000000000000000000815260040161150e9061296b565b60405180910390fd5b80600860008481526020019081526020016000206002019080519060200190611541929190611f77565b503373ffffffffffffffffffffffffffffffffffffffff16827f0a9d43b72d53a3ec73eca548eafeaad6b659bf83518caaa33c2f549cca7d75e34260086000878152602001908152602001600020600201600860008881526020019081526020016000206004015460086000898152602001908152602001600020600501546040516115d09493929190612a12565b60405180910390a35050565b6115e461199b565b73ffffffffffffffffffffffffffffffffffffffff16611602610e08565b73ffffffffffffffffffffffffffffffffffffffff1614611658576040517f08c379a000000000000000000000000000000000000000000000000000000000815260040161164f9061290b565b60405180910390fd5b600073ffffffffffffffffffffffffffffffffffffffff168173ffffffffffffffffffffffffffffffffffffffff1614156116c8576040517f08c379a00000000000000000000000000000000000000000000000000000000081526004016116bf9061284b565b60405180910390fd5b6116d181611a62565b50565b6000600460009054906101000a900473ffffffffffffffffffffffffffffffffffffffff16905090565b6060600060078054905067ffffffffffffffff811115611747577f4e487b7100000000000000000000000000000000000000000000000000000000600052604160045260246000fd5b60405190808252806020026020018201604052801561178057816020015b61176d611ffd565b8152602001906001900390816117655790505b50905060005b60078054905081101561196d5760086000600783815481106117d1577f4e487b7100000000000000000000000000000000000000000000000000000000600052603260045260246000fd5b906000526020600020015481526020019081526020016000206040518060c00160405290816000820160009054906101000a900473ffffffffffffffffffffffffffffffffffffffff1673ffffffffffffffffffffffffffffffffffffffff1673ffffffffffffffffffffffffffffffffffffffff1681526020016001820154815260200160028201805461186590612c50565b80601f016020809104026020016040519081016040528092919081815260200182805461189190612c50565b80156118de5780601f106118b3576101008083540402835291602001916118de565b820191906000526020600020905b8154815290600101906020018083116118c157829003601f168201915b505050505081526020016003820160009054906101000a900460ff161515151581526020016004820154815260200160058201548152505082828151811061194f577f4e487b7100000000000000000000000000000000000000000000000000000000600052603260045260246000fd5b6020026020010181905250808061196590612cb3565b915050611786565b508091505090565b600460009054906101000a900473ffffffffffffffffffffffffffffffffffffffff1681565b600033905090565b8060018190555050565b8060038190555050565b8060028190555050565b6119c9610ccf565b611a08576040517f08c379a00000000000000000000000000000000000000000000000000000000081526004016119ff9061280b565b60405180910390fd5b60008060146101000a81548160ff0219169083151502179055507f5db9ee0a495bf2e6ff9c91a7834c1ba4fdd244a5e8aa4e537bd38aeae4b073aa611a4b61199b565b604051611a5891906126c2565b60405180910390a1565b60008060009054906101000a900473ffffffffffffffffffffffffffffffffffffffff169050816000806101000a81548173ffffffffffffffffffffffffffffffffffffffff021916908373ffffffffffffffffffffffffffffffffffffffff1602179055508173ffffffffffffffffffffffffffffffffffffffff168173ffffffffffffffffffffffffffffffffffffffff167f8be0079c531659141344cd1fd0a4f28419497f9722a3daafe3b4186f6b6457e060405160405180910390a35050565b611b2e610ccf565b15611b6e576040517f08c379a0000000000000000000000000000000000000000000000000000000008152600401611b65906128eb565b60405180910390fd5b6001600060146101000a81548160ff0219169083151502179055507f62e78cea01bee320cd4e420270b5ea74000d11b0c9f74754ebdbfc544b05a258611bb261199b565b604051611bbf91906126c2565b60405180910390a1565b611c618282604051602401611bdf9291906127ab565b6040516020818303038152906040527f319af333000000000000000000000000000000000000000000000000000000007bffffffffffffffffffffffffffffffffffffffffffffffffffffffff19166020820180517bffffffffffffffffffffffffffffffffffffffffffffffffffffffff8381831617835250505050611e51565b5050565b600254471015611caa576040517f08c379a0000000000000000000000000000000000000000000000000000000008152600401611ca1906128cb565b60405180910390fd5b600060646005544244611cbd9190612b3a565b611cc79190612b3a565b611cd19190612cfc565b9050611d126040518060400160405280601681526020017f52616e646f6d20232067656e6572617465643a2025730000000000000000000081525082611e7a565b80600581905550600354811015611e4d57611d626040518060400160405280600b81526020017f25732068617320776f6e2100000000000000000000000000000000000000000081525033611bc9565b60008273ffffffffffffffffffffffffffffffffffffffff16600254604051611d8a906126ad565b60006040518083038185875af1925050503d8060008114611dc7576040519150601f19603f3d011682016040523d82523d6000602084013e611dcc565b606091505b5050905080611e10576040517f08c379a0000000000000000000000000000000000000000000000000000000008152600401611e079061298b565b60405180910390fd5b7fda1fcd992ca31eb97f098763ee5be1bfc2d2f6fd214d42642d99ddccb8ec64c683600254604051611e439291906126dd565b60405180910390a1505b5050565b60008151905060006a636f6e736f6c652e6c6f679050602083016000808483855afa5050505050565b611f128282604051602401611e909291906127db565b6040516020818303038152906040527f9710a9d0000000000000000000000000000000000000000000000000000000007bffffffffffffffffffffffffffffffffffffffffffffffffffffffff19166020820180517bffffffffffffffffffffffffffffffffffffffffffffffffffffffff8381831617835250505050611e51565b5050565b508054611f2290612c50565b6000825580601f10611f345750611f53565b601f016020900490600052602060002090810190611f52919061204b565b5b50565b5080546000825590600052602060002090810190611f74919061204b565b50565b828054611f8390612c50565b90600052602060002090601f016020900481019282611fa55760008555611fec565b82601f10611fbe57805160ff1916838001178555611fec565b82800160010185558215611fec579182015b82811115611feb578251825591602001919060010190611fd0565b5b509050611ff9919061204b565b5090565b6040518060c00160405280600073ffffffffffffffffffffffffffffffffffffffff168152602001600081526020016060815260200160001515815260200160008152602001600081525090565b5b8082111561206457600081600090555060010161204c565b5090565b600061207b61207684612a83565b612a5e565b90508281526020810184848401111561209357600080fd5b61209e848285612c0e565b509392505050565b6000813590506120b5816130aa565b92915050565b600082601f8301126120cc57600080fd5b81356120dc848260208601612068565b91505092915050565b6000813590506120f4816130c1565b92915050565b60006020828403121561210c57600080fd5b600061211a848285016120a6565b91505092915050565b60008060006060848603121561213857600080fd5b600084013567ffffffffffffffff81111561215257600080fd5b61215e868287016120bb565b935050602061216f868287016120e5565b9250506040612180868287016120e5565b9150509250925092565b60006020828403121561219c57600080fd5b60006121aa848285016120e5565b91505092915050565b600080604083850312156121c657600080fd5b60006121d4858286016120e5565b925050602083013567ffffffffffffffff8111156121f157600080fd5b6121fd858286016120bb565b9150509250929050565b60008060006060848603121561221c57600080fd5b600061222a868287016120e5565b935050602061223b868287016120e5565b925050604061224c868287016120e5565b9150509250925092565b60006122628383612606565b905092915050565b61227381612bd8565b82525050565b61228281612b90565b82525050565b61229181612b90565b82525050565b60006122a282612ad9565b6122ac8185612afc565b9350836020820285016122be85612ab4565b8060005b858110156122fa57848403895281516122db8582612256565b94506122e683612aef565b925060208a019950506001810190506122c2565b50829750879550505050505092915050565b61231581612ba2565b82525050565b61232481612ba2565b82525050565b600061233582612ae4565b61233f8185612b18565b935061234f818560208601612c1d565b61235881612de9565b840191505092915050565b600061236e82612ae4565b6123788185612b29565b9350612388818560208601612c1d565b61239181612de9565b840191505092915050565b600081546123a981612c50565b6123b38186612b29565b945060018216600081146123ce57600181146123e057612413565b60ff1983168652602086019350612413565b6123e985612ac4565b60005b8381101561240b578154818901526001820191506020810190506123ec565b808801955050505b50505092915050565b6000612429601483612b29565b915061243482612dfa565b602082019050919050565b600061244c601383612b29565b915061245782612e23565b602082019050919050565b600061246f602683612b29565b915061247a82612e4c565b604082019050919050565b6000612492602b83612b29565b915061249d82612e9b565b604082019050919050565b60006124b5601783612b29565b91506124c082612eea565b602082019050919050565b60006124d8602583612b29565b91506124e382612f13565b604082019050919050565b60006124fb602183612b29565b915061250682612f62565b604082019050919050565b600061251e601083612b29565b915061252982612fb1565b602082019050919050565b6000612541602083612b29565b915061254c82612fda565b602082019050919050565b6000612564601f83612b29565b915061256f82613003565b602082019050919050565b6000612587601883612b29565b91506125928261302c565b602082019050919050565b60006125aa600083612b0d565b91506125b582613055565b600082019050919050565b60006125cd601883612b29565b91506125d882613058565b602082019050919050565b60006125f0602083612b29565b91506125fb82613081565b602082019050919050565b600060c08301600083015161261e6000860182612279565b506020830151612631602086018261268f565b5060408301518482036040860152612649828261232a565b915050606083015161265e606086018261230c565b506080830151612671608086018261268f565b5060a083015161268460a086018261268f565b508091505092915050565b61269881612bce565b82525050565b6126a781612bce565b82525050565b60006126b88261259d565b9150819050919050565b60006020820190506126d76000830184612288565b92915050565b60006040820190506126f2600083018561226a565b6126ff602083018461269e565b9392505050565b600060c08201905061271b6000830189612288565b612728602083018861269e565b818103604083015261273a8187612363565b9050612749606083018661231b565b612756608083018561269e565b61276360a083018461269e565b979650505050505050565b600060208201905081810360008301526127888184612297565b905092915050565b60006020820190506127a5600083018461231b565b92915050565b600060408201905081810360008301526127c58185612363565b90506127d46020830184612288565b9392505050565b600060408201905081810360008301526127f58185612363565b9050612804602083018461269e565b9392505050565b600060208201905081810360008301526128248161241c565b9050919050565b600060208201905081810360008301526128448161243f565b9050919050565b6000602082019050818103600083015261286481612462565b9050919050565b6000602082019050818103600083015261288481612485565b9050919050565b600060208201905081810360008301526128a4816124a8565b9050919050565b600060208201905081810360008301526128c4816124cb565b9050919050565b600060208201905081810360008301526128e4816124ee565b9050919050565b6000602082019050818103600083015261290481612511565b9050919050565b6000602082019050818103600083015261292481612534565b9050919050565b6000602082019050818103600083015261294481612557565b9050919050565b600060208201905081810360008301526129648161257a565b9050919050565b60006020820190508181036000830152612984816125c0565b9050919050565b600060208201905081810360008301526129a4816125e3565b9050919050565b60006020820190506129c0600083018461269e565b92915050565b60006080820190506129db600083018761269e565b81810360208301526129ed8186612363565b90506129fc604083018561269e565b612a09606083018461269e565b95945050505050565b6000608082019050612a27600083018761269e565b8181036020830152612a39818661239c565b9050612a48604083018561269e565b612a55606083018461269e565b95945050505050565b6000612a68612a79565b9050612a748282612c82565b919050565b6000604051905090565b600067ffffffffffffffff821115612a9e57612a9d612dba565b5b612aa782612de9565b9050602081019050919050565b6000819050602082019050919050565b60008190508160005260206000209050919050565b600081519050919050565b600081519050919050565b6000602082019050919050565b600082825260208201905092915050565b600081905092915050565b600082825260208201905092915050565b600082825260208201905092915050565b6000612b4582612bce565b9150612b5083612bce565b9250827fffffffffffffffffffffffffffffffffffffffffffffffffffffffffffffffff03821115612b8557612b84612d2d565b5b828201905092915050565b6000612b9b82612bae565b9050919050565b60008115159050919050565b600073ffffffffffffffffffffffffffffffffffffffff82169050919050565b6000819050919050565b6000612be382612bea565b9050919050565b6000612bf582612bfc565b9050919050565b6000612c0782612bae565b9050919050565b82818337600083830152505050565b60005b83811015612c3b578082015181840152602081019050612c20565b83811115612c4a576000848401525b50505050565b60006002820490506001821680612c6857607f821691505b60208210811415612c7c57612c7b612d8b565b5b50919050565b612c8b82612de9565b810181811067ffffffffffffffff82111715612caa57612ca9612dba565b5b80604052505050565b6000612cbe82612bce565b91507fffffffffffffffffffffffffffffffffffffffffffffffffffffffffffffffff821415612cf157612cf0612d2d565b5b600182019050919050565b6000612d0782612bce565b9150612d1283612bce565b925082612d2257612d21612d5c565b5b828206905092915050565b7f4e487b7100000000000000000000000000000000000000000000000000000000600052601160045260246000fd5b7f4e487b7100000000000000000000000000000000000000000000000000000000600052601260045260246000fd5b7f4e487b7100000000000000000000000000000000000000000000000000000000600052602260045260246000fd5b7f4e487b7100000000000000000000000000000000000000000000000000000000600052604160045260246000fd5b6000601f19601f8301169050919050565b7f5061757361626c653a206e6f7420706175736564000000000000000000000000600082015250565b7f476976656e20494420697320696e76616c696400000000000000000000000000600082015250565b7f4f776e61626c653a206e6577206f776e657220697320746865207a65726f206160008201527f6464726573730000000000000000000000000000000000000000000000000000602082015250565b7f506c6561736520776169742061206d696e757465206265666f7265207477656560008201527f74696e6720616761696e21000000000000000000000000000000000000000000602082015250565b7f476976656e2074776565742069732064656c6574656421000000000000000000600082015250565b7f53656e64657220646f6573206e6f74206d617463682074686520676976656e2060008201527f7477656574000000000000000000000000000000000000000000000000000000602082015250565b7f436f6e74726163742062616c616e636520697320696e73756666696369656e7460008201527f2100000000000000000000000000000000000000000000000000000000000000602082015250565b7f5061757361626c653a2070617573656400000000000000000000000000000000600082015250565b7f4f776e61626c653a2063616c6c6572206973206e6f7420746865206f776e6572600082015250565b7f476976656e20747765657420697320616c72656164792064656c657465642100600082015250565b7f416d6f756e742073656e7420697320696e636f72726563740000000000000000600082015250565b50565b7f4c696d6974206973203238302063686172616374657273210000000000000000600082015250565b7f4661696c656420746f2077697468647261772066726f6d20636f6e7472616374600082015250565b6130b381612b90565b81146130be57600080fd5b50565b6130ca81612bce565b81146130d557600080fd5b5056fea2646970667358221220108f201e1341f1ed476405fa7de2fd1aeb40a9106079786524b8c8bd843d9a2264736f6c63430008040033",
  "linkReferences": {},
  "deployedLinkReferences": {}
}