{
  "_format": "hh-sol-artifact-1",
  "contractName": "Twitt3r",
  "sourceName": "contracts/Twitt3r.sol",
  "abi": [
    {
      "inputs": [],
      "stateMutability": "payable",
      "type": "constructor"
    },
    {
      "anonymous": false,
      "inputs": [
        {
          "indexed": false,
          "internalType": "uint256",
          "name": "id",
          "type": "uint256"
        }
      ],
      "name": "ClearTweets",
      "type": "event"
    },
    {
      "anonymous": false,
      "inputs": [
        {
          "indexed": true,
          "internalType": "uint256",
          "name": "id",
          "type": "uint256"
        },
        {
          "indexed": true,
          "internalType": "address",
          "name": "from",
          "type": "address"
        },
        {
          "indexed": false,
          "internalType": "uint256",
          "name": "timestamp",
          "type": "uint256"
        },
        {
          "indexed": false,
          "internalType": "string",
          "name": "message",
          "type": "string"
        },
        {
          "indexed": false,
          "internalType": "bool",
          "name": "deleted",
          "type": "bool"
        },
        {
          "indexed": false,
          "internalType": "uint256",
          "name": "replyID",
          "type": "uint256"
        },
        {
          "indexed": false,
          "internalType": "uint256",
          "name": "retweetID",
          "type": "uint256"
        }
      ],
      "name": "DeleteTweet",
      "type": "event"
    },
    {
      "anonymous": false,
      "inputs": [
        {
          "indexed": true,
          "internalType": "uint256",
          "name": "id",
          "type": "uint256"
        },
        {
          "indexed": true,
          "internalType": "address",
          "name": "from",
          "type": "address"
        },
        {
          "indexed": false,
          "internalType": "uint256",
          "name": "timestamp",
          "type": "uint256"
        },
        {
          "indexed": false,
          "internalType": "string",
          "name": "message",
          "type": "string"
        },
        {
          "indexed": false,
          "internalType": "bool",
          "name": "deleted",
          "type": "bool"
        },
        {
          "indexed": false,
          "internalType": "uint256",
          "name": "replyID",
          "type": "uint256"
        },
        {
          "indexed": false,
          "internalType": "uint256",
          "name": "retweetID",
          "type": "uint256"
        }
      ],
      "name": "EditTweet",
      "type": "event"
    },
    {
      "anonymous": false,
      "inputs": [
        {
          "indexed": true,
          "internalType": "uint256",
          "name": "id",
          "type": "uint256"
        },
        {
          "indexed": true,
          "internalType": "address",
          "name": "from",
          "type": "address"
        },
        {
          "indexed": false,
          "internalType": "uint256",
          "name": "timestamp",
          "type": "uint256"
        },
        {
          "indexed": false,
          "internalType": "string",
          "name": "message",
          "type": "string"
        },
        {
          "indexed": false,
          "internalType": "bool",
          "name": "deleted",
          "type": "bool"
        },
        {
          "indexed": false,
          "internalType": "uint256",
          "name": "replyID",
          "type": "uint256"
        },
        {
          "indexed": false,
          "internalType": "uint256",
          "name": "retweetID",
          "type": "uint256"
        }
      ],
      "name": "NewTweet",
      "type": "event"
    },
    {
      "anonymous": false,
      "inputs": [
        {
          "indexed": true,
          "internalType": "address",
          "name": "previousOwner",
          "type": "address"
        },
        {
          "indexed": true,
          "internalType": "address",
          "name": "newOwner",
          "type": "address"
        }
      ],
      "name": "OwnershipTransferred",
      "type": "event"
    },
    {
      "anonymous": false,
      "inputs": [
        {
          "indexed": false,
          "internalType": "address",
          "name": "account",
          "type": "address"
        }
      ],
      "name": "Paused",
      "type": "event"
    },
    {
      "anonymous": false,
      "inputs": [
        {
          "indexed": false,
          "internalType": "address",
          "name": "account",
          "type": "address"
        }
      ],
      "name": "Unpaused",
      "type": "event"
    },
    {
      "anonymous": false,
      "inputs": [
        {
          "indexed": false,
          "internalType": "address",
          "name": "winner",
          "type": "address"
        },
        {
          "indexed": false,
          "internalType": "uint256",
          "name": "jackpot",
          "type": "uint256"
        }
      ],
      "name": "WonLottery",
      "type": "event"
    },
    {
      "inputs": [],
      "name": "clear",
      "outputs": [],
      "stateMutability": "nonpayable",
      "type": "function"
    },
    {
      "inputs": [
        {
          "internalType": "uint256",
          "name": "_id",
          "type": "uint256"
        }
      ],
      "name": "deleteTweet",
      "outputs": [],
      "stateMutability": "nonpayable",
      "type": "function"
    },
    {
      "inputs": [],
      "name": "deposit",
      "outputs": [],
      "stateMutability": "payable",
      "type": "function"
    },
    {
      "inputs": [
        {
          "internalType": "uint256",
          "name": "_id",
          "type": "uint256"
        },
        {
          "internalType": "string",
          "name": "_message",
          "type": "string"
        }
      ],
      "name": "editTweet",
      "outputs": [],
      "stateMutability": "nonpayable",
      "type": "function"
    },
    {
      "inputs": [],
      "name": "getBalance",
      "outputs": [
        {
          "internalType": "uint256",
          "name": "",
          "type": "uint256"
        }
      ],
      "stateMutability": "view",
      "type": "function"
    },
    {
      "inputs": [],
      "name": "getJackpot",
      "outputs": [
        {
          "internalType": "uint256",
          "name": "",
          "type": "uint256"
        }
      ],
      "stateMutability": "view",
      "type": "function"
    },
    {
      "inputs": [],
      "name": "getLastWinner",
      "outputs": [
        {
          "internalType": "address",
          "name": "",
          "type": "address"
        }
      ],
      "stateMutability": "view",
      "type": "function"
    },
    {
      "inputs": [],
      "name": "getOdds",
      "outputs": [
        {
          "internalType": "uint256",
          "name": "",
          "type": "uint256"
        }
      ],
      "stateMutability": "view",
      "type": "function"
    },
    {
      "inputs": [],
      "name": "getOwner",
      "outputs": [
        {
          "internalType": "address",
          "name": "",
          "type": "address"
        }
      ],
      "stateMutability": "view",
      "type": "function"
    },
    {
      "inputs": [],
      "name": "getPrice",
      "outputs": [
        {
          "internalType": "uint256",
          "name": "",
          "type": "uint256"
        }
      ],
      "stateMutability": "view",
      "type": "function"
    },
    {
      "inputs": [],
      "name": "getTotalTweets",
      "outputs": [
        {
          "internalType": "uint256",
          "name": "",
          "type": "uint256"
        }
      ],
      "stateMutability": "view",
      "type": "function"
    },
    {
      "inputs": [],
      "name": "getTweets",
      "outputs": [
        {
          "components": [
            {
              "internalType": "address",
              "name": "from",
              "type": "address"
            },
            {
              "internalType": "uint256",
              "name": "timestamp",
              "type": "uint256"
            },
            {
              "internalType": "string",
              "name": "message",
              "type": "string"
            },
            {
              "internalType": "bool",
              "name": "deleted",
              "type": "bool"
            },
            {
              "internalType": "uint256",
              "name": "replyID",
              "type": "uint256"
            },
            {
              "internalType": "uint256",
              "name": "retweetID",
              "type": "uint256"
            }
          ],
          "internalType": "struct Twitt3r.Tweet[]",
          "name": "",
          "type": "tuple[]"
        }
      ],
      "stateMutability": "view",
      "type": "function"
    },
    {
      "inputs": [],
      "name": "id",
      "outputs": [
        {
          "internalType": "uint256",
          "name": "",
          "type": "uint256"
        }
      ],
      "stateMutability": "view",
      "type": "function"
    },
    {
      "inputs": [],
      "name": "isPaused",
      "outputs": [
        {
          "internalType": "bool",
          "name": "",
          "type": "bool"
        }
      ],
      "stateMutability": "view",
      "type": "function"
    },
    {
      "inputs": [],
      "name": "jackpot",
      "outputs": [
        {
          "internalType": "uint256",
          "name": "",
          "type": "uint256"
        }
      ],
      "stateMutability": "view",
      "type": "function"
    },
    {
      "inputs": [
        {
          "internalType": "address",
          "name": "",
          "type": "address"
        }
      ],
      "name": "lastTweetedAt",
      "outputs": [
        {
          "internalType": "uint256",
          "name": "",
          "type": "uint256"
        }
      ],
      "stateMutability": "view",
      "type": "function"
    },
    {
      "inputs": [],
      "name": "lastWinner",
      "outputs": [
        {
          "internalType": "address",
          "name": "",
          "type": "address"
        }
      ],
      "stateMutability": "view",
      "type": "function"
    },
    {
      "inputs": [
        {
          "internalType": "string",
          "name": "_message",
          "type": "string"
        },
        {
          "internalType": "uint256",
          "name": "_replyID",
          "type": "uint256"
        },
        {
          "internalType": "uint256",
          "name": "_retweetID",
          "type": "uint256"
        }
      ],
      "name": "newTweet",
      "outputs": [],
      "stateMutability": "payable",
      "type": "function"
    },
    {
      "inputs": [],
      "name": "odds",
      "outputs": [
        {
          "internalType": "uint256",
          "name": "",
          "type": "uint256"
        }
      ],
      "stateMutability": "view",
      "type": "function"
    },
    {
      "inputs": [],
      "name": "owner",
      "outputs": [
        {
          "internalType": "address",
          "name": "",
          "type": "address"
        }
      ],
      "stateMutability": "view",
      "type": "function"
    },
    {
      "inputs": [],
      "name": "pause",
      "outputs": [],
      "stateMutability": "nonpayable",
      "type": "function"
    },
    {
      "inputs": [],
      "name": "paused",
      "outputs": [
        {
          "internalType": "bool",
          "name": "",
          "type": "bool"
        }
      ],
      "stateMutability": "view",
      "type": "function"
    },
    {
      "inputs": [],
      "name": "price",
      "outputs": [
        {
          "internalType": "uint256",
          "name": "",
          "type": "uint256"
        }
      ],
      "stateMutability": "view",
      "type": "function"
    },
    {
      "inputs": [],
      "name": "renounceOwnership",
      "outputs": [],
      "stateMutability": "nonpayable",
      "type": "function"
    },
    {
      "inputs": [
        {
          "internalType": "address",
          "name": "newOwner",
          "type": "address"
        }
      ],
      "name": "transferOwnership",
      "outputs": [],
      "stateMutability": "nonpayable",
      "type": "function"
    },
    {
      "inputs": [
        {
          "internalType": "uint256",
          "name": "",
          "type": "uint256"
        }
      ],
      "name": "tweetIDs",
      "outputs": [
        {
          "internalType": "uint256",
          "name": "",
          "type": "uint256"
        }
      ],
      "stateMutability": "view",
      "type": "function"
    },
    {
      "inputs": [
        {
          "internalType": "uint256",
          "name": "",
          "type": "uint256"
        }
      ],
      "name": "tweets",
      "outputs": [
        {
          "internalType": "address",
          "name": "from",
          "type": "address"
        },
        {
          "internalType": "uint256",
          "name": "timestamp",
          "type": "uint256"
        },
        {
          "internalType": "string",
          "name": "message",
          "type": "string"
        },
        {
          "internalType": "bool",
          "name": "deleted",
          "type": "bool"
        },
        {
          "internalType": "uint256",
          "name": "replyID",
          "type": "uint256"
        },
        {
          "internalType": "uint256",
          "name": "retweetID",
          "type": "uint256"
        }
      ],
      "stateMutability": "view",
      "type": "function"
    },
    {
      "inputs": [],
      "name": "unpause",
      "outputs": [],
      "stateMutability": "nonpayable",
      "type": "function"
    },
    {
      "inputs": [
        {
          "internalType": "uint256",
          "name": "_newPrice",
          "type": "uint256"
        },
        {
          "internalType": "uint256",
          "name": "_newOdds",
          "type": "uint256"
        },
        {
          "internalType": "uint256",
          "name": "_newJackpot",
          "type": "uint256"
        }
      ],
      "name": "updateSettings",
      "outputs": [],
      "stateMutability": "nonpayable",
      "type": "function"
    },
    {
      "inputs": [],
      "name": "withdraw",
      "outputs": [],
      "stateMutability": "nonpayable",
      "type": "function"
    }
  ],
  "bytecode": "0x6080604052655af3107a400060015566038d7ea4c68000600255600a600355600160065562000043620000376200006360201b60201c565b6200006b60201b60201c565b60008060146101000a81548160ff0219169083151502179055506200012f565b600033905090565b60008060009054906101000a900473ffffffffffffffffffffffffffffffffffffffff169050816000806101000a81548173ffffffffffffffffffffffffffffffffffffffff021916908373ffffffffffffffffffffffffffffffffffffffff1602179055508173ffffffffffffffffffffffffffffffffffffffff168173ffffffffffffffffffffffffffffffffffffffff167f8be0079c531659141344cd1fd0a4f28419497f9722a3daafe3b4186f6b6457e060405160405180910390a35050565b613177806200013f6000396000f3fe6080604052600436106101cd5760003560e01c806393f11c27116100f7578063d0e30db011610095578063f2fde38b11610064578063f2fde38b146105d1578063f88649a1146105fa578063fc86741f14610625578063fe18818414610650576101cd565b8063d0e30db014610540578063d490db271461054a578063e8d857b014610566578063eae9e135146105a8576101cd565b8063ac61d8d7116100d1578063ac61d8d714610470578063af640d0f146104ad578063b187bd26146104d8578063b281395b14610503576101cd565b806393f11c27146103ef57806398d5fdca1461041a578063a035b1fe14610445576101cd565b80635775912a1161016f5780638456cb591161013e5780638456cb5914610357578063893d20e81461036e5780638da5cb5b146103995780639329066c146103c4576101cd565b80635775912a146102c15780635c975abb146102ea5780636b31ee0114610315578063715018a614610340576101cd565b80633ccfd60b116101ab5780633ccfd60b146102515780633f4ba83a146102685780634c5be5741461027f57806352efea6e146102aa576101cd565b80630465c563146101d257806312065fe0146101fb578063233de12614610226575b600080fd5b3480156101de57600080fd5b506101f960048036038101906101f49190612254565b61067b565b005b34801561020757600080fd5b50610210610717565b60405161021d91906129f8565b60405180910390f35b34801561023257600080fd5b5061023b61071f565b60405161024891906129f8565b60405180910390f35b34801561025d57600080fd5b50610266610725565b005b34801561027457600080fd5b5061027d61085d565b005b34801561028b57600080fd5b506102946108e3565b6040516102a191906129f8565b60405180910390f35b3480156102b657600080fd5b506102bf6108ed565b005b3480156102cd57600080fd5b506102e860048036038101906102e391906121d7565b610a5d565b005b3480156102f657600080fd5b506102ff610cf4565b60405161030c91906127dd565b60405180910390f35b34801561032157600080fd5b5061032a610d0a565b60405161033791906129f8565b60405180910390f35b34801561034c57600080fd5b50610355610d10565b005b34801561036357600080fd5b5061036c610d98565b005b34801561037a57600080fd5b50610383610e1e565b604051610390919061270f565b60405180910390f35b3480156103a557600080fd5b506103ae610e2d565b6040516103bb919061270f565b60405180910390f35b3480156103d057600080fd5b506103d9610e56565b6040516103e691906129f8565b60405180910390f35b3480156103fb57600080fd5b50610404610e60565b60405161041191906129f8565b60405180910390f35b34801561042657600080fd5b5061042f610e6d565b60405161043c91906129f8565b60405180910390f35b34801561045157600080fd5b5061045a610e77565b60405161046791906129f8565b60405180910390f35b34801561047c57600080fd5b50610497600480360381019061049291906121d7565b610e7d565b6040516104a491906129f8565b60405180910390f35b3480156104b957600080fd5b506104c2610ea1565b6040516104cf91906129f8565b60405180910390f35b3480156104e457600080fd5b506104ed610ea7565b6040516104fa91906127dd565b60405180910390f35b34801561050f57600080fd5b5061052a60048036038101906105259190612147565b610eb6565b60405161053791906129f8565b60405180910390f35b610548610ece565b005b610564600480360381019061055f9190612170565b610ed0565b005b34801561057257600080fd5b5061058d600480360381019061058891906121d7565b61125e565b60405161059f96959493929190612753565b60405180910390f35b3480156105b457600080fd5b506105cf60048036038101906105ca9190612200565b61134f565b005b3480156105dd57600080fd5b506105f860048036038101906105f39190612147565b611629565b005b34801561060657600080fd5b5061060f611721565b60405161061c919061270f565b60405180910390f35b34801561063157600080fd5b5061063a61174b565b60405161064791906127bb565b60405180910390f35b34801561065c57600080fd5b506106656119c2565b604051610672919061270f565b60405180910390f35b6106836119e8565b73ffffffffffffffffffffffffffffffffffffffff166106a1610e2d565b73ffffffffffffffffffffffffffffffffffffffff16146106f7576040517f08c379a00000000000000000000000000000000000000000000000000000000081526004016106ee90612958565b60405180910390fd5b610700836119f0565b610709826119fa565b61071281611a04565b505050565b600047905090565b60035481565b61072d6119e8565b73ffffffffffffffffffffffffffffffffffffffff1661074b610e2d565b73ffffffffffffffffffffffffffffffffffffffff16146107a1576040517f08c379a000000000000000000000000000000000000000000000000000000000815260040161079890612958565b60405180910390fd5b600047905060006107b0610e2d565b73ffffffffffffffffffffffffffffffffffffffff16826040516107d3906126fa565b60006040518083038185875af1925050503d8060008114610810576040519150601f19603f3d011682016040523d82523d6000602084013e610815565b606091505b5050905080610859576040517f08c379a0000000000000000000000000000000000000000000000000000000008152600401610850906129d8565b60405180910390fd5b5050565b6108656119e8565b73ffffffffffffffffffffffffffffffffffffffff16610883610e2d565b73ffffffffffffffffffffffffffffffffffffffff16146108d9576040517f08c379a00000000000000000000000000000000000000000000000000000000081526004016108d090612958565b60405180910390fd5b6108e1611a0e565b565b6000600354905090565b6108f56119e8565b73ffffffffffffffffffffffffffffffffffffffff16610913610e2d565b73ffffffffffffffffffffffffffffffffffffffff1614610969576040517f08c379a000000000000000000000000000000000000000000000000000000000815260040161096090612958565b60405180910390fd5b6000600654905060005b600780549050811015610a0c5760086000828152602001908152602001600020600080820160006101000a81549073ffffffffffffffffffffffffffffffffffffffff021916905560018201600090556002820160006109d39190611f63565b6003820160006101000a81549060ff02191690556004820160009055600582016000905550508080610a0490612d1c565b915050610973565b5060076000610a1b9190611fa3565b60016006819055507fae292c2f970a00a1ee119ec6476c14d3a9cc6a21522fd6816ea794aa7b2a8d3181604051610a5291906129f8565b60405180910390a150565b610a65610cf4565b15610aa5576040517f08c379a0000000000000000000000000000000000000000000000000000000008152600401610a9c90612938565b60405180910390fd5b600060086000838152602001908152602001600020600101541415610aff576040517f08c379a0000000000000000000000000000000000000000000000000000000008152600401610af690612878565b60405180910390fd5b6008600082815260200190815260200160002060030160009054906101000a900460ff1615610b63576040517f08c379a0000000000000000000000000000000000000000000000000000000008152600401610b5a90612978565b60405180910390fd5b3373ffffffffffffffffffffffffffffffffffffffff166008600083815260200190815260200160002060000160009054906101000a900473ffffffffffffffffffffffffffffffffffffffff1673ffffffffffffffffffffffffffffffffffffffff1614610c07576040517f08c379a0000000000000000000000000000000000000000000000000000000008152600401610bfe906128f8565b60405180910390fd5b60016008600083815260200190815260200160002060030160006101000a81548160ff0219169083151502179055503373ffffffffffffffffffffffffffffffffffffffff16817fd1a7ebaecd97d90fc93690e7580a45f9046c0756d5ab34bd0cfce28ae58f114f42600860008681526020019081526020016000206002016008600087815260200190815260200160002060030160009054906101000a900460ff1660086000888152602001908152602001600020600401546008600089815260200190815260200160002060050154604051610ce9959493929190612a6d565b60405180910390a350565b60008060149054906101000a900460ff16905090565b60025481565b610d186119e8565b73ffffffffffffffffffffffffffffffffffffffff16610d36610e2d565b73ffffffffffffffffffffffffffffffffffffffff1614610d8c576040517f08c379a0000000000000000000000000000000000000000000000000000000008152600401610d8390612958565b60405180910390fd5b610d966000611aaf565b565b610da06119e8565b73ffffffffffffffffffffffffffffffffffffffff16610dbe610e2d565b73ffffffffffffffffffffffffffffffffffffffff1614610e14576040517f08c379a0000000000000000000000000000000000000000000000000000000008152600401610e0b90612958565b60405180910390fd5b610e1c611b73565b565b6000610e28610e2d565b905090565b60008060009054906101000a900473ffffffffffffffffffffffffffffffffffffffff16905090565b6000600254905090565b6000600780549050905090565b6000600154905090565b60015481565b60078181548110610e8d57600080fd5b906000526020600020016000915090505481565b60065481565b6000610eb1610cf4565b905090565b60096020528060005260406000206000915090505481565b565b610ed8610cf4565b15610f18576040517f08c379a0000000000000000000000000000000000000000000000000000000008152600401610f0f90612938565b60405180910390fd5b600154341015610f5d576040517f08c379a0000000000000000000000000000000000000000000000000000000008152600401610f5490612998565b60405180910390fd5b61011883511115610fa3576040517f08c379a0000000000000000000000000000000000000000000000000000000008152600401610f9a906129b8565b60405180910390fd5b42603c600960003373ffffffffffffffffffffffffffffffffffffffff1673ffffffffffffffffffffffffffffffffffffffff16815260200190815260200160002054610ff09190612ba3565b10611030576040517f08c379a0000000000000000000000000000000000000000000000000000000008152600401611027906128b8565b60405180910390fd5b42600960003373ffffffffffffffffffffffffffffffffffffffff1673ffffffffffffffffffffffffffffffffffffffff168152602001908152602001600020819055506110b36040518060400160405280600f81526020017f257320686173207477656574656421000000000000000000000000000000000081525033611c16565b6040518060c001604052803373ffffffffffffffffffffffffffffffffffffffff1681526020014281526020018481526020016000151581526020018381526020018281525060086000600654815260200190815260200160002060008201518160000160006101000a81548173ffffffffffffffffffffffffffffffffffffffff021916908373ffffffffffffffffffffffffffffffffffffffff16021790555060208201518160010155604082015181600201908051906020019061117b929190611fc4565b5060608201518160030160006101000a81548160ff0219169083151502179055506080820151816004015560a08201518160050155905050600760065490806001815401808255809150506001900390600052602060002001600090919091909150556111e733611cb2565b3373ffffffffffffffffffffffffffffffffffffffff166006547f95ddbe40e589682de7b309cb88ed7a199bbb6bda251729fab039d408457e15a6428660008787604051611239959493929190612a13565b60405180910390a36006600081548092919061125490612d1c565b9190505550505050565b60086020528060005260406000206000915090508060000160009054906101000a900473ffffffffffffffffffffffffffffffffffffffff16908060010154908060020180546112ad90612cb9565b80601f01602080910402602001604051908101604052809291908181526020018280546112d990612cb9565b80156113265780601f106112fb57610100808354040283529160200191611326565b820191906000526020600020905b81548152906001019060200180831161130957829003601f168201915b5050505050908060030160009054906101000a900460ff16908060040154908060050154905086565b611357610cf4565b15611397576040517f08c379a000000000000000000000000000000000000000000000000000000000815260040161138e90612938565b60405180910390fd5b6000600860008481526020019081526020016000206001015414156113f1576040517f08c379a00000000000000000000000000000000000000000000000000000000081526004016113e890612878565b60405180910390fd5b6008600083815260200190815260200160002060030160009054906101000a900460ff1615611455576040517f08c379a000000000000000000000000000000000000000000000000000000000815260040161144c906128d8565b60405180910390fd5b3373ffffffffffffffffffffffffffffffffffffffff166008600084815260200190815260200160002060000160009054906101000a900473ffffffffffffffffffffffffffffffffffffffff1673ffffffffffffffffffffffffffffffffffffffff16146114f9576040517f08c379a00000000000000000000000000000000000000000000000000000000081526004016114f0906128f8565b60405180910390fd5b6101188151111561153f576040517f08c379a0000000000000000000000000000000000000000000000000000000008152600401611536906129b8565b60405180910390fd5b80600860008481526020019081526020016000206002019080519060200190611569929190611fc4565b503373ffffffffffffffffffffffffffffffffffffffff16827f1dbbd33e7a06a3d6b3eb06987927cc5c71764c24bc2e8f56d90d2505c0c8606042600860008781526020019081526020016000206002016008600088815260200190815260200160002060030160009054906101000a900460ff166008600089815260200190815260200160002060040154600860008a81526020019081526020016000206005015460405161161d959493929190612a6d565b60405180910390a35050565b6116316119e8565b73ffffffffffffffffffffffffffffffffffffffff1661164f610e2d565b73ffffffffffffffffffffffffffffffffffffffff16146116a5576040517f08c379a000000000000000000000000000000000000000000000000000000000815260040161169c90612958565b60405180910390fd5b600073ffffffffffffffffffffffffffffffffffffffff168173ffffffffffffffffffffffffffffffffffffffff161415611715576040517f08c379a000000000000000000000000000000000000000000000000000000000815260040161170c90612898565b60405180910390fd5b61171e81611aaf565b50565b6000600460009054906101000a900473ffffffffffffffffffffffffffffffffffffffff16905090565b6060600060078054905067ffffffffffffffff811115611794577f4e487b7100000000000000000000000000000000000000000000000000000000600052604160045260246000fd5b6040519080825280602002602001820160405280156117cd57816020015b6117ba61204a565b8152602001906001900390816117b25790505b50905060005b6007805490508110156119ba57600860006007838154811061181e577f4e487b7100000000000000000000000000000000000000000000000000000000600052603260045260246000fd5b906000526020600020015481526020019081526020016000206040518060c00160405290816000820160009054906101000a900473ffffffffffffffffffffffffffffffffffffffff1673ffffffffffffffffffffffffffffffffffffffff1673ffffffffffffffffffffffffffffffffffffffff168152602001600182015481526020016002820180546118b290612cb9565b80601f01602080910402602001604051908101604052809291908181526020018280546118de90612cb9565b801561192b5780601f106119005761010080835404028352916020019161192b565b820191906000526020600020905b81548152906001019060200180831161190e57829003601f168201915b505050505081526020016003820160009054906101000a900460ff161515151581526020016004820154815260200160058201548152505082828151811061199c577f4e487b7100000000000000000000000000000000000000000000000000000000600052603260045260246000fd5b602002602001018190525080806119b290612d1c565b9150506117d3565b508091505090565b600460009054906101000a900473ffffffffffffffffffffffffffffffffffffffff1681565b600033905090565b8060018190555050565b8060038190555050565b8060028190555050565b611a16610cf4565b611a55576040517f08c379a0000000000000000000000000000000000000000000000000000000008152600401611a4c90612858565b60405180910390fd5b60008060146101000a81548160ff0219169083151502179055507f5db9ee0a495bf2e6ff9c91a7834c1ba4fdd244a5e8aa4e537bd38aeae4b073aa611a986119e8565b604051611aa5919061270f565b60405180910390a1565b60008060009054906101000a900473ffffffffffffffffffffffffffffffffffffffff169050816000806101000a81548173ffffffffffffffffffffffffffffffffffffffff021916908373ffffffffffffffffffffffffffffffffffffffff1602179055508173ffffffffffffffffffffffffffffffffffffffff168173ffffffffffffffffffffffffffffffffffffffff167f8be0079c531659141344cd1fd0a4f28419497f9722a3daafe3b4186f6b6457e060405160405180910390a35050565b611b7b610cf4565b15611bbb576040517f08c379a0000000000000000000000000000000000000000000000000000000008152600401611bb290612938565b60405180910390fd5b6001600060146101000a81548160ff0219169083151502179055507f62e78cea01bee320cd4e420270b5ea74000d11b0c9f74754ebdbfc544b05a258611bff6119e8565b604051611c0c919061270f565b60405180910390a1565b611cae8282604051602401611c2c9291906127f8565b6040516020818303038152906040527f319af333000000000000000000000000000000000000000000000000000000007bffffffffffffffffffffffffffffffffffffffffffffffffffffffff19166020820180517bffffffffffffffffffffffffffffffffffffffffffffffffffffffff8381831617835250505050611e9e565b5050565b600254471015611cf7576040517f08c379a0000000000000000000000000000000000000000000000000000000008152600401611cee90612918565b60405180910390fd5b600060646005544244611d0a9190612ba3565b611d149190612ba3565b611d1e9190612d65565b9050611d5f6040518060400160405280601681526020017f52616e646f6d20232067656e6572617465643a2025730000000000000000000081525082611ec7565b80600581905550600354811015611e9a57611daf6040518060400160405280600b81526020017f25732068617320776f6e2100000000000000000000000000000000000000000081525033611c16565b60008273ffffffffffffffffffffffffffffffffffffffff16600254604051611dd7906126fa565b60006040518083038185875af1925050503d8060008114611e14576040519150601f19603f3d011682016040523d82523d6000602084013e611e19565b606091505b5050905080611e5d576040517f08c379a0000000000000000000000000000000000000000000000000000000008152600401611e54906129d8565b60405180910390fd5b7fda1fcd992ca31eb97f098763ee5be1bfc2d2f6fd214d42642d99ddccb8ec64c683600254604051611e9092919061272a565b60405180910390a1505b5050565b60008151905060006a636f6e736f6c652e6c6f679050602083016000808483855afa5050505050565b611f5f8282604051602401611edd929190612828565b6040516020818303038152906040527f9710a9d0000000000000000000000000000000000000000000000000000000007bffffffffffffffffffffffffffffffffffffffffffffffffffffffff19166020820180517bffffffffffffffffffffffffffffffffffffffffffffffffffffffff8381831617835250505050611e9e565b5050565b508054611f6f90612cb9565b6000825580601f10611f815750611fa0565b601f016020900490600052602060002090810190611f9f9190612098565b5b50565b5080546000825590600052602060002090810190611fc19190612098565b50565b828054611fd090612cb9565b90600052602060002090601f016020900481019282611ff25760008555612039565b82601f1061200b57805160ff1916838001178555612039565b82800160010185558215612039579182015b8281111561203857825182559160200191906001019061201d565b5b5090506120469190612098565b5090565b6040518060c00160405280600073ffffffffffffffffffffffffffffffffffffffff168152602001600081526020016060815260200160001515815260200160008152602001600081525090565b5b808211156120b1576000816000905550600101612099565b5090565b60006120c86120c384612aec565b612ac7565b9050828152602081018484840111156120e057600080fd5b6120eb848285612c77565b509392505050565b60008135905061210281613113565b92915050565b600082601f83011261211957600080fd5b81356121298482602086016120b5565b91505092915050565b6000813590506121418161312a565b92915050565b60006020828403121561215957600080fd5b6000612167848285016120f3565b91505092915050565b60008060006060848603121561218557600080fd5b600084013567ffffffffffffffff81111561219f57600080fd5b6121ab86828701612108565b93505060206121bc86828701612132565b92505060406121cd86828701612132565b9150509250925092565b6000602082840312156121e957600080fd5b60006121f784828501612132565b91505092915050565b6000806040838503121561221357600080fd5b600061222185828601612132565b925050602083013567ffffffffffffffff81111561223e57600080fd5b61224a85828601612108565b9150509250929050565b60008060006060848603121561226957600080fd5b600061227786828701612132565b935050602061228886828701612132565b925050604061229986828701612132565b9150509250925092565b60006122af8383612653565b905092915050565b6122c081612c41565b82525050565b6122cf81612bf9565b82525050565b6122de81612bf9565b82525050565b60006122ef82612b42565b6122f98185612b65565b93508360208202850161230b85612b1d565b8060005b85811015612347578484038952815161232885826122a3565b945061233383612b58565b925060208a0199505060018101905061230f565b50829750879550505050505092915050565b61236281612c0b565b82525050565b61237181612c0b565b82525050565b600061238282612b4d565b61238c8185612b81565b935061239c818560208601612c86565b6123a581612e52565b840191505092915050565b60006123bb82612b4d565b6123c58185612b92565b93506123d5818560208601612c86565b6123de81612e52565b840191505092915050565b600081546123f681612cb9565b6124008186612b92565b9450600182166000811461241b576001811461242d57612460565b60ff1983168652602086019350612460565b61243685612b2d565b60005b8381101561245857815481890152600182019150602081019050612439565b808801955050505b50505092915050565b6000612476601483612b92565b915061248182612e63565b602082019050919050565b6000612499601383612b92565b91506124a482612e8c565b602082019050919050565b60006124bc602683612b92565b91506124c782612eb5565b604082019050919050565b60006124df602b83612b92565b91506124ea82612f04565b604082019050919050565b6000612502601783612b92565b915061250d82612f53565b602082019050919050565b6000612525602583612b92565b915061253082612f7c565b604082019050919050565b6000612548602183612b92565b915061255382612fcb565b604082019050919050565b600061256b601083612b92565b91506125768261301a565b602082019050919050565b600061258e602083612b92565b915061259982613043565b602082019050919050565b60006125b1601f83612b92565b91506125bc8261306c565b602082019050919050565b60006125d4601883612b92565b91506125df82613095565b602082019050919050565b60006125f7600083612b76565b9150612602826130be565b600082019050919050565b600061261a601883612b92565b9150612625826130c1565b602082019050919050565b600061263d602083612b92565b9150612648826130ea565b602082019050919050565b600060c08301600083015161266b60008601826122c6565b50602083015161267e60208601826126dc565b50604083015184820360408601526126968282612377565b91505060608301516126ab6060860182612359565b5060808301516126be60808601826126dc565b5060a08301516126d160a08601826126dc565b508091505092915050565b6126e581612c37565b82525050565b6126f481612c37565b82525050565b6000612705826125ea565b9150819050919050565b600060208201905061272460008301846122d5565b92915050565b600060408201905061273f60008301856122b7565b61274c60208301846126eb565b9392505050565b600060c08201905061276860008301896122d5565b61277560208301886126eb565b818103604083015261278781876123b0565b90506127966060830186612368565b6127a360808301856126eb565b6127b060a08301846126eb565b979650505050505050565b600060208201905081810360008301526127d581846122e4565b905092915050565b60006020820190506127f26000830184612368565b92915050565b6000604082019050818103600083015261281281856123b0565b905061282160208301846122d5565b9392505050565b6000604082019050818103600083015261284281856123b0565b905061285160208301846126eb565b9392505050565b6000602082019050818103600083015261287181612469565b9050919050565b600060208201905081810360008301526128918161248c565b9050919050565b600060208201905081810360008301526128b1816124af565b9050919050565b600060208201905081810360008301526128d1816124d2565b9050919050565b600060208201905081810360008301526128f1816124f5565b9050919050565b6000602082019050818103600083015261291181612518565b9050919050565b600060208201905081810360008301526129318161253b565b9050919050565b600060208201905081810360008301526129518161255e565b9050919050565b6000602082019050818103600083015261297181612581565b9050919050565b60006020820190508181036000830152612991816125a4565b9050919050565b600060208201905081810360008301526129b1816125c7565b9050919050565b600060208201905081810360008301526129d18161260d565b9050919050565b600060208201905081810360008301526129f181612630565b9050919050565b6000602082019050612a0d60008301846126eb565b92915050565b600060a082019050612a2860008301886126eb565b8181036020830152612a3a81876123b0565b9050612a496040830186612368565b612a5660608301856126eb565b612a6360808301846126eb565b9695505050505050565b600060a082019050612a8260008301886126eb565b8181036020830152612a9481876123e9565b9050612aa36040830186612368565b612ab060608301856126eb565b612abd60808301846126eb565b9695505050505050565b6000612ad1612ae2565b9050612add8282612ceb565b919050565b6000604051905090565b600067ffffffffffffffff821115612b0757612b06612e23565b5b612b1082612e52565b9050602081019050919050565b6000819050602082019050919050565b60008190508160005260206000209050919050565b600081519050919050565b600081519050919050565b6000602082019050919050565b600082825260208201905092915050565b600081905092915050565b600082825260208201905092915050565b600082825260208201905092915050565b6000612bae82612c37565b9150612bb983612c37565b9250827fffffffffffffffffffffffffffffffffffffffffffffffffffffffffffffffff03821115612bee57612bed612d96565b5b828201905092915050565b6000612c0482612c17565b9050919050565b60008115159050919050565b600073ffffffffffffffffffffffffffffffffffffffff82169050919050565b6000819050919050565b6000612c4c82612c53565b9050919050565b6000612c5e82612c65565b9050919050565b6000612c7082612c17565b9050919050565b82818337600083830152505050565b60005b83811015612ca4578082015181840152602081019050612c89565b83811115612cb3576000848401525b50505050565b60006002820490506001821680612cd157607f821691505b60208210811415612ce557612ce4612df4565b5b50919050565b612cf482612e52565b810181811067ffffffffffffffff82111715612d1357612d12612e23565b5b80604052505050565b6000612d2782612c37565b91507fffffffffffffffffffffffffffffffffffffffffffffffffffffffffffffffff821415612d5a57612d59612d96565b5b600182019050919050565b6000612d7082612c37565b9150612d7b83612c37565b925082612d8b57612d8a612dc5565b5b828206905092915050565b7f4e487b7100000000000000000000000000000000000000000000000000000000600052601160045260246000fd5b7f4e487b7100000000000000000000000000000000000000000000000000000000600052601260045260246000fd5b7f4e487b7100000000000000000000000000000000000000000000000000000000600052602260045260246000fd5b7f4e487b7100000000000000000000000000000000000000000000000000000000600052604160045260246000fd5b6000601f19601f8301169050919050565b7f5061757361626c653a206e6f7420706175736564000000000000000000000000600082015250565b7f476976656e20494420697320696e76616c696400000000000000000000000000600082015250565b7f4f776e61626c653a206e6577206f776e657220697320746865207a65726f206160008201527f6464726573730000000000000000000000000000000000000000000000000000602082015250565b7f506c6561736520776169742061206d696e757465206265666f7265207477656560008201527f74696e6720616761696e21000000000000000000000000000000000000000000602082015250565b7f476976656e2074776565742069732064656c6574656421000000000000000000600082015250565b7f53656e64657220646f6573206e6f74206d617463682074686520676976656e2060008201527f7477656574000000000000000000000000000000000000000000000000000000602082015250565b7f436f6e74726163742062616c616e636520697320696e73756666696369656e7460008201527f2100000000000000000000000000000000000000000000000000000000000000602082015250565b7f5061757361626c653a2070617573656400000000000000000000000000000000600082015250565b7f4f776e61626c653a2063616c6c6572206973206e6f7420746865206f776e6572600082015250565b7f476976656e20747765657420697320616c72656164792064656c657465642100600082015250565b7f416d6f756e742073656e7420697320696e636f72726563740000000000000000600082015250565b50565b7f4c696d6974206973203238302063686172616374657273210000000000000000600082015250565b7f4661696c656420746f2077697468647261772066726f6d20636f6e7472616374600082015250565b61311c81612bf9565b811461312757600080fd5b50565b61313381612c37565b811461313e57600080fd5b5056fea2646970667358221220022ebb9cb3a28108bfb82455d9d0b33ef5b5fea10a7877334a45db6a2f0c401664736f6c63430008040033",
  "linkReferences": {},
  "deployedLinkReferences": {}
}