{
  "_format": "hh-sol-artifact-1",
  "contractName": "Twitt3r",
  "sourceName": "contracts/Twitt3r.sol",
  "abi": [
    {
      "inputs": [],
      "stateMutability": "payable",
      "type": "constructor"
    },
    {
      "anonymous": false,
      "inputs": [
        {
          "indexed": false,
          "internalType": "uint256",
          "name": "index",
          "type": "uint256"
        },
        {
          "indexed": true,
          "internalType": "address",
          "name": "from",
          "type": "address"
        },
        {
          "indexed": false,
          "internalType": "uint256",
          "name": "timestamp",
          "type": "uint256"
        },
        {
          "indexed": false,
          "internalType": "string",
          "name": "message",
          "type": "string"
        }
      ],
      "name": "NewTweet",
      "type": "event"
    },
    {
      "anonymous": false,
      "inputs": [
        {
          "indexed": true,
          "internalType": "address",
          "name": "previousOwner",
          "type": "address"
        },
        {
          "indexed": true,
          "internalType": "address",
          "name": "newOwner",
          "type": "address"
        }
      ],
      "name": "OwnershipTransferred",
      "type": "event"
    },
    {
      "inputs": [],
      "name": "clear",
      "outputs": [],
      "stateMutability": "nonpayable",
      "type": "function"
    },
    {
      "inputs": [
        {
          "internalType": "uint256",
          "name": "index",
          "type": "uint256"
        }
      ],
      "name": "deleteTweet",
      "outputs": [],
      "stateMutability": "nonpayable",
      "type": "function"
    },
    {
      "inputs": [],
      "name": "deposit",
      "outputs": [],
      "stateMutability": "payable",
      "type": "function"
    },
    {
      "inputs": [],
      "name": "getBalance",
      "outputs": [
        {
          "internalType": "uint256",
          "name": "",
          "type": "uint256"
        }
      ],
      "stateMutability": "view",
      "type": "function"
    },
    {
      "inputs": [],
      "name": "getJackpot",
      "outputs": [
        {
          "internalType": "uint256",
          "name": "",
          "type": "uint256"
        }
      ],
      "stateMutability": "view",
      "type": "function"
    },
    {
      "inputs": [],
      "name": "getLastWinner",
      "outputs": [
        {
          "internalType": "address",
          "name": "",
          "type": "address"
        }
      ],
      "stateMutability": "view",
      "type": "function"
    },
    {
      "inputs": [],
      "name": "getOdds",
      "outputs": [
        {
          "internalType": "uint256",
          "name": "",
          "type": "uint256"
        }
      ],
      "stateMutability": "view",
      "type": "function"
    },
    {
      "inputs": [],
      "name": "getOwner",
      "outputs": [
        {
          "internalType": "address",
          "name": "",
          "type": "address"
        }
      ],
      "stateMutability": "view",
      "type": "function"
    },
    {
      "inputs": [],
      "name": "getPrice",
      "outputs": [
        {
          "internalType": "uint256",
          "name": "",
          "type": "uint256"
        }
      ],
      "stateMutability": "view",
      "type": "function"
    },
    {
      "inputs": [],
      "name": "getTotalTweets",
      "outputs": [
        {
          "internalType": "uint256",
          "name": "",
          "type": "uint256"
        }
      ],
      "stateMutability": "view",
      "type": "function"
    },
    {
      "inputs": [],
      "name": "getTweets",
      "outputs": [
        {
          "components": [
            {
              "internalType": "uint256",
              "name": "index",
              "type": "uint256"
            },
            {
              "internalType": "address",
              "name": "sender",
              "type": "address"
            },
            {
              "internalType": "uint256",
              "name": "timestamp",
              "type": "uint256"
            },
            {
              "internalType": "string",
              "name": "message",
              "type": "string"
            }
          ],
          "internalType": "struct Twitt3r.Tweet[]",
          "name": "",
          "type": "tuple[]"
        }
      ],
      "stateMutability": "view",
      "type": "function"
    },
    {
      "inputs": [],
      "name": "isPaused",
      "outputs": [
        {
          "internalType": "bool",
          "name": "",
          "type": "bool"
        }
      ],
      "stateMutability": "view",
      "type": "function"
    },
    {
      "inputs": [],
      "name": "jackpot",
      "outputs": [
        {
          "internalType": "uint256",
          "name": "",
          "type": "uint256"
        }
      ],
      "stateMutability": "view",
      "type": "function"
    },
    {
      "inputs": [
        {
          "internalType": "address",
          "name": "",
          "type": "address"
        }
      ],
      "name": "lastTweetdAt",
      "outputs": [
        {
          "internalType": "uint256",
          "name": "",
          "type": "uint256"
        }
      ],
      "stateMutability": "view",
      "type": "function"
    },
    {
      "inputs": [],
      "name": "lastWinner",
      "outputs": [
        {
          "internalType": "address",
          "name": "",
          "type": "address"
        }
      ],
      "stateMutability": "view",
      "type": "function"
    },
    {
      "inputs": [],
      "name": "odds",
      "outputs": [
        {
          "internalType": "uint256",
          "name": "",
          "type": "uint256"
        }
      ],
      "stateMutability": "view",
      "type": "function"
    },
    {
      "inputs": [],
      "name": "owner",
      "outputs": [
        {
          "internalType": "address",
          "name": "",
          "type": "address"
        }
      ],
      "stateMutability": "view",
      "type": "function"
    },
    {
      "inputs": [
        {
          "internalType": "bool",
          "name": "value",
          "type": "bool"
        }
      ],
      "name": "pause",
      "outputs": [],
      "stateMutability": "nonpayable",
      "type": "function"
    },
    {
      "inputs": [],
      "name": "paused",
      "outputs": [
        {
          "internalType": "bool",
          "name": "",
          "type": "bool"
        }
      ],
      "stateMutability": "view",
      "type": "function"
    },
    {
      "inputs": [],
      "name": "price",
      "outputs": [
        {
          "internalType": "uint256",
          "name": "",
          "type": "uint256"
        }
      ],
      "stateMutability": "view",
      "type": "function"
    },
    {
      "inputs": [],
      "name": "renounceOwnership",
      "outputs": [],
      "stateMutability": "nonpayable",
      "type": "function"
    },
    {
      "inputs": [
        {
          "internalType": "address",
          "name": "newOwner",
          "type": "address"
        }
      ],
      "name": "transferOwnership",
      "outputs": [],
      "stateMutability": "nonpayable",
      "type": "function"
    },
    {
      "inputs": [
        {
          "internalType": "string",
          "name": "message",
          "type": "string"
        }
      ],
      "name": "tweet",
      "outputs": [],
      "stateMutability": "payable",
      "type": "function"
    },
    {
      "inputs": [
        {
          "internalType": "uint256",
          "name": "",
          "type": "uint256"
        }
      ],
      "name": "tweets",
      "outputs": [
        {
          "internalType": "uint256",
          "name": "index",
          "type": "uint256"
        },
        {
          "internalType": "address",
          "name": "sender",
          "type": "address"
        },
        {
          "internalType": "uint256",
          "name": "timestamp",
          "type": "uint256"
        },
        {
          "internalType": "string",
          "name": "message",
          "type": "string"
        }
      ],
      "stateMutability": "view",
      "type": "function"
    },
    {
      "inputs": [
        {
          "internalType": "uint256",
          "name": "newPrice",
          "type": "uint256"
        },
        {
          "internalType": "uint256",
          "name": "newOdds",
          "type": "uint256"
        },
        {
          "internalType": "uint256",
          "name": "newJackpot",
          "type": "uint256"
        }
      ],
      "name": "updateSettings",
      "outputs": [],
      "stateMutability": "nonpayable",
      "type": "function"
    },
    {
      "inputs": [],
      "name": "withdraw",
      "outputs": [],
      "stateMutability": "nonpayable",
      "type": "function"
    }
  ],
  "bytecode": "0x608060405260008060146101000a81548160ff021916908315150217905550655af3107a400060015566038d7ea4c68000600255600a60035561005461004961005960201b60201c565b61006160201b60201c565b610125565b600033905090565b60008060009054906101000a900473ffffffffffffffffffffffffffffffffffffffff169050816000806101000a81548173ffffffffffffffffffffffffffffffffffffffff021916908373ffffffffffffffffffffffffffffffffffffffff1602179055508173ffffffffffffffffffffffffffffffffffffffff168173ffffffffffffffffffffffffffffffffffffffff167f8be0079c531659141344cd1fd0a4f28419497f9722a3daafe3b4186f6b6457e060405160405180910390a35050565b61264f80620001356000396000f3fe6080604052600436106101815760003560e01c80639329066c116100d1578063d0e30db01161008a578063f88649a111610064578063f88649a1146104fa578063fb46d4c514610525578063fc86741f14610541578063fe1881841461056c57610181565b8063d0e30db014610487578063e8d857b014610491578063f2fde38b146104d157610181565b80639329066c1461037357806393f11c271461039e57806398d5fdca146103c9578063a035b1fe146103f4578063b187bd261461041f578063c38ab0d61461044a57610181565b806352efea6e1161013e5780636b31ee01116101185780636b31ee01146102db578063715018a614610306578063893d20e81461031d5780638da5cb5b1461034857610181565b806352efea6e146102705780635775912a146102875780635c975abb146102b057610181565b806302329a29146101865780630465c563146101af57806312065fe0146101d8578063233de126146102035780633ccfd60b1461022e5780634c5be57414610245575b600080fd5b34801561019257600080fd5b506101ad60048036038101906101a89190611a11565b610597565b005b3480156101bb57600080fd5b506101d660048036038101906101d19190611aa4565b610630565b005b3480156101e457600080fd5b506101ed6106cc565b6040516101fa9190611fe7565b60405180910390f35b34801561020f57600080fd5b506102186106d4565b6040516102259190611fe7565b60405180910390f35b34801561023a57600080fd5b506102436106da565b005b34801561025157600080fd5b5061025a610812565b6040516102679190611fe7565b60405180910390f35b34801561027c57600080fd5b5061028561081c565b005b34801561029357600080fd5b506102ae60048036038101906102a99190611a7b565b6108a8565b005b3480156102bc57600080fd5b506102c5610ba2565b6040516102d29190611e4c565b60405180910390f35b3480156102e757600080fd5b506102f0610bb5565b6040516102fd9190611fe7565b60405180910390f35b34801561031257600080fd5b5061031b610bbb565b005b34801561032957600080fd5b50610332610c43565b60405161033f9190611e0f565b60405180910390f35b34801561035457600080fd5b5061035d610c52565b60405161036a9190611e0f565b60405180910390f35b34801561037f57600080fd5b50610388610c7b565b6040516103959190611fe7565b60405180910390f35b3480156103aa57600080fd5b506103b3610c85565b6040516103c09190611fe7565b60405180910390f35b3480156103d557600080fd5b506103de610c92565b6040516103eb9190611fe7565b60405180910390f35b34801561040057600080fd5b50610409610c9c565b6040516104169190611fe7565b60405180910390f35b34801561042b57600080fd5b50610434610ca2565b6040516104419190611e4c565b60405180910390f35b34801561045657600080fd5b50610471600480360381019061046c91906119e8565b610cb8565b60405161047e9190611fe7565b60405180910390f35b61048f610cd0565b005b34801561049d57600080fd5b506104b860048036038101906104b39190611a7b565b610cd2565b6040516104c89493929190612002565b60405180910390f35b3480156104dd57600080fd5b506104f860048036038101906104f391906119e8565b610dba565b005b34801561050657600080fd5b5061050f610eb2565b60405161051c9190611e0f565b60405180910390f35b61053f600480360381019061053a9190611a3a565b610edc565b005b34801561054d57600080fd5b506105566111d2565b6040516105639190611e2a565b60405180910390f35b34801561057857600080fd5b5061058161132d565b60405161058e9190611e0f565b60405180910390f35b61059f611353565b73ffffffffffffffffffffffffffffffffffffffff166105bd610c52565b73ffffffffffffffffffffffffffffffffffffffff1614610613576040517f08c379a000000000000000000000000000000000000000000000000000000000815260040161060a90611f67565b60405180910390fd5b80600060146101000a81548160ff02191690831515021790555050565b610638611353565b73ffffffffffffffffffffffffffffffffffffffff16610656610c52565b73ffffffffffffffffffffffffffffffffffffffff16146106ac576040517f08c379a00000000000000000000000000000000000000000000000000000000081526004016106a390611f67565b60405180910390fd5b6106b58361135b565b6106be82611365565b6106c78161136f565b505050565b600047905090565b60035481565b6106e2611353565b73ffffffffffffffffffffffffffffffffffffffff16610700610c52565b73ffffffffffffffffffffffffffffffffffffffff1614610756576040517f08c379a000000000000000000000000000000000000000000000000000000000815260040161074d90611f67565b60405180910390fd5b60004790506000610765610c52565b73ffffffffffffffffffffffffffffffffffffffff168260405161078890611dfa565b60006040518083038185875af1925050503d80600081146107c5576040519150601f19603f3d011682016040523d82523d6000602084013e6107ca565b606091505b505090508061080e576040517f08c379a000000000000000000000000000000000000000000000000000000000815260040161080590611fc7565b60405180910390fd5b5050565b6000600354905090565b610824611353565b73ffffffffffffffffffffffffffffffffffffffff16610842610c52565b73ffffffffffffffffffffffffffffffffffffffff1614610898576040517f08c379a000000000000000000000000000000000000000000000000000000000815260040161088f90611f67565b60405180910390fd5b600660006108a6919061174f565b565b80600680549050116108ef576040517f08c379a00000000000000000000000000000000000000000000000000000000081526004016108e690611f87565b60405180910390fd5b3373ffffffffffffffffffffffffffffffffffffffff1660068281548110610940577f4e487b7100000000000000000000000000000000000000000000000000000000600052603260045260246000fd5b906000526020600020906004020160010160009054906101000a900473ffffffffffffffffffffffffffffffffffffffff1673ffffffffffffffffffffffffffffffffffffffff16146109c8576040517f08c379a00000000000000000000000000000000000000000000000000000000081526004016109bf90611f07565b60405180910390fd5b600660016006805490506109dc91906121a9565b81548110610a13577f4e487b7100000000000000000000000000000000000000000000000000000000600052603260045260246000fd5b906000526020600020906004020160068281548110610a5b577f4e487b7100000000000000000000000000000000000000000000000000000000600052603260045260246000fd5b9060005260206000209060040201600082015481600001556001820160009054906101000a900473ffffffffffffffffffffffffffffffffffffffff168160010160006101000a81548173ffffffffffffffffffffffffffffffffffffffff021916908373ffffffffffffffffffffffffffffffffffffffff160217905550600282015481600201556003820181600301908054610af890612267565b610b03929190611773565b509050506006805480610b3f577f4e487b7100000000000000000000000000000000000000000000000000000000600052603160045260246000fd5b60019003818190600052602060002090600402016000808201600090556001820160006101000a81549073ffffffffffffffffffffffffffffffffffffffff02191690556002820160009055600382016000610b9b9190611800565b5050905550565b600060149054906101000a900460ff1681565b60025481565b610bc3611353565b73ffffffffffffffffffffffffffffffffffffffff16610be1610c52565b73ffffffffffffffffffffffffffffffffffffffff1614610c37576040517f08c379a0000000000000000000000000000000000000000000000000000000008152600401610c2e90611f67565b60405180910390fd5b610c416000611379565b565b6000610c4d610c52565b905090565b60008060009054906101000a900473ffffffffffffffffffffffffffffffffffffffff16905090565b6000600254905090565b6000600680549050905090565b6000600154905090565b60015481565b60008060149054906101000a900460ff16905090565b60076020528060005260406000206000915090505481565b565b60068181548110610ce257600080fd5b90600052602060002090600402016000915090508060000154908060010160009054906101000a900473ffffffffffffffffffffffffffffffffffffffff1690806002015490806003018054610d3790612267565b80601f0160208091040260200160405190810160405280929190818152602001828054610d6390612267565b8015610db05780601f10610d8557610100808354040283529160200191610db0565b820191906000526020600020905b815481529060010190602001808311610d9357829003601f168201915b5050505050905084565b610dc2611353565b73ffffffffffffffffffffffffffffffffffffffff16610de0610c52565b73ffffffffffffffffffffffffffffffffffffffff1614610e36576040517f08c379a0000000000000000000000000000000000000000000000000000000008152600401610e2d90611f67565b60405180910390fd5b600073ffffffffffffffffffffffffffffffffffffffff168173ffffffffffffffffffffffffffffffffffffffff161415610ea6576040517f08c379a0000000000000000000000000000000000000000000000000000000008152600401610e9d90611ec7565b60405180910390fd5b610eaf81611379565b50565b6000600460009054906101000a900473ffffffffffffffffffffffffffffffffffffffff16905090565b600060149054906101000a900460ff1615610f2c576040517f08c379a0000000000000000000000000000000000000000000000000000000008152600401610f2390611f27565b60405180910390fd5b600154341015610f71576040517f08c379a0000000000000000000000000000000000000000000000000000000008152600401610f6890611fa7565b60405180910390fd5b4261012c600760003373ffffffffffffffffffffffffffffffffffffffff1673ffffffffffffffffffffffffffffffffffffffff16815260200190815260200160002054610fbf9190612153565b10610fff576040517f08c379a0000000000000000000000000000000000000000000000000000000008152600401610ff690611ee7565b60405180910390fd5b42600760003373ffffffffffffffffffffffffffffffffffffffff1673ffffffffffffffffffffffffffffffffffffffff168152602001908152602001600020819055506110826040518060400160405280600e81526020017f25732068617320747765657464210000000000000000000000000000000000008152503361143d565b6006604051806080016040528060068054905081526020013373ffffffffffffffffffffffffffffffffffffffff1681526020014281526020018381525090806001815401808255809150506001900390600052602060002090600402016000909190919091506000820151816000015560208201518160010160006101000a81548173ffffffffffffffffffffffffffffffffffffffff021916908373ffffffffffffffffffffffffffffffffffffffff160217905550604082015181600201556060820151816003019080519060200190611160929190611840565b50505061116c336114d9565b3373ffffffffffffffffffffffffffffffffffffffff167f7ac7383ab9cd990660baf242ccf198e3681c75e3e539fa1bcef7d0ad5a91caf260016006805490506111b691906121a9565b42846040516111c79392919061204e565b60405180910390a250565b60606006805480602002602001604051908101604052809291908181526020016000905b828210156113245783829060005260206000209060040201604051806080016040529081600082015481526020016001820160009054906101000a900473ffffffffffffffffffffffffffffffffffffffff1673ffffffffffffffffffffffffffffffffffffffff1673ffffffffffffffffffffffffffffffffffffffff1681526020016002820154815260200160038201805461129390612267565b80601f01602080910402602001604051908101604052809291908181526020018280546112bf90612267565b801561130c5780601f106112e15761010080835404028352916020019161130c565b820191906000526020600020905b8154815290600101906020018083116112ef57829003601f168201915b505050505081525050815260200190600101906111f6565b50505050905090565b600460009054906101000a900473ffffffffffffffffffffffffffffffffffffffff1681565b600033905090565b8060018190555050565b8060038190555050565b8060028190555050565b60008060009054906101000a900473ffffffffffffffffffffffffffffffffffffffff169050816000806101000a81548173ffffffffffffffffffffffffffffffffffffffff021916908373ffffffffffffffffffffffffffffffffffffffff1602179055508173ffffffffffffffffffffffffffffffffffffffff168173ffffffffffffffffffffffffffffffffffffffff167f8be0079c531659141344cd1fd0a4f28419497f9722a3daafe3b4186f6b6457e060405160405180910390a35050565b6114d58282604051602401611453929190611e67565b6040516020818303038152906040527f319af333000000000000000000000000000000000000000000000000000000007bffffffffffffffffffffffffffffffffffffffffffffffffffffffff19166020820180517bffffffffffffffffffffffffffffffffffffffffffffffffffffffff838183161783525050505061168a565b5050565b60025447101561151e576040517f08c379a000000000000000000000000000000000000000000000000000000000815260040161151590611f47565b60405180910390fd5b6000606460055442446115319190612153565b61153b9190612153565b61154591906122ca565b90506115866040518060400160405280601681526020017f52616e646f6d20232067656e6572617465643a20257300000000000000000000815250826116b3565b80600581905550600354811015611686576115d66040518060400160405280600b81526020017f25732068617320776f6e210000000000000000000000000000000000000000008152503361143d565b60008273ffffffffffffffffffffffffffffffffffffffff166002546040516115fe90611dfa565b60006040518083038185875af1925050503d806000811461163b576040519150601f19603f3d011682016040523d82523d6000602084013e611640565b606091505b5050905080611684576040517f08c379a000000000000000000000000000000000000000000000000000000000815260040161167b90611fc7565b60405180910390fd5b505b5050565b60008151905060006a636f6e736f6c652e6c6f679050602083016000808483855afa5050505050565b61174b82826040516024016116c9929190611e97565b6040516020818303038152906040527f9710a9d0000000000000000000000000000000000000000000000000000000007bffffffffffffffffffffffffffffffffffffffffffffffffffffffff19166020820180517bffffffffffffffffffffffffffffffffffffffffffffffffffffffff838183161783525050505061168a565b5050565b508054600082556004029060005260206000209081019061177091906118c6565b50565b82805461177f90612267565b90600052602060002090601f0160209004810192826117a157600085556117ef565b82601f106117b257805485556117ef565b828001600101855582156117ef57600052602060002091601f016020900482015b828111156117ee5782548255916001019190600101906117d3565b5b5090506117fc9190611924565b5090565b50805461180c90612267565b6000825580601f1061181e575061183d565b601f01602090049060005260206000209081019061183c9190611924565b5b50565b82805461184c90612267565b90600052602060002090601f01602090048101928261186e57600085556118b5565b82601f1061188757805160ff19168380011785556118b5565b828001600101855582156118b5579182015b828111156118b4578251825591602001919060010190611899565b5b5090506118c29190611924565b5090565b5b80821115611920576000808201600090556001820160006101000a81549073ffffffffffffffffffffffffffffffffffffffff021916905560028201600090556003820160006119179190611800565b506004016118c7565b5090565b5b8082111561193d576000816000905550600101611925565b5090565b600061195461194f846120b1565b61208c565b90508281526020810184848401111561196c57600080fd5b611977848285612225565b509392505050565b60008135905061198e816125d4565b92915050565b6000813590506119a3816125eb565b92915050565b600082601f8301126119ba57600080fd5b81356119ca848260208601611941565b91505092915050565b6000813590506119e281612602565b92915050565b6000602082840312156119fa57600080fd5b6000611a088482850161197f565b91505092915050565b600060208284031215611a2357600080fd5b6000611a3184828501611994565b91505092915050565b600060208284031215611a4c57600080fd5b600082013567ffffffffffffffff811115611a6657600080fd5b611a72848285016119a9565b91505092915050565b600060208284031215611a8d57600080fd5b6000611a9b848285016119d3565b91505092915050565b600080600060608486031215611ab957600080fd5b6000611ac7868287016119d3565b9350506020611ad8868287016119d3565b9250506040611ae9868287016119d3565b9150509250925092565b6000611aff8383611d79565b905092915050565b611b10816121dd565b82525050565b611b1f816121dd565b82525050565b6000611b30826120f2565b611b3a8185612115565b935083602082028501611b4c856120e2565b8060005b85811015611b885784840389528151611b698582611af3565b9450611b7483612108565b925060208a01995050600181019050611b50565b50829750879550505050505092915050565b611ba3816121ef565b82525050565b6000611bb4826120fd565b611bbe8185612131565b9350611bce818560208601612234565b611bd7816123b7565b840191505092915050565b6000611bed826120fd565b611bf78185612142565b9350611c07818560208601612234565b611c10816123b7565b840191505092915050565b6000611c28602683612142565b9150611c33826123c8565b604082019050919050565b6000611c4b602a83612142565b9150611c5682612417565b604082019050919050565b6000611c6e602583612142565b9150611c7982612466565b604082019050919050565b6000611c91602183612142565b9150611c9c826124b5565b604082019050919050565b6000611cb4602083612142565b9150611cbf82612504565b602082019050919050565b6000611cd7602083612142565b9150611ce28261252d565b602082019050919050565b6000611cfa601683612142565b9150611d0582612556565b602082019050919050565b6000611d1d601883612142565b9150611d288261257f565b602082019050919050565b6000611d40600083612126565b9150611d4b826125a8565b600082019050919050565b6000611d63602083612142565b9150611d6e826125ab565b602082019050919050565b6000608083016000830151611d916000860182611ddc565b506020830151611da46020860182611b07565b506040830151611db76040860182611ddc565b5060608301518482036060860152611dcf8282611ba9565b9150508091505092915050565b611de58161221b565b82525050565b611df48161221b565b82525050565b6000611e0582611d33565b9150819050919050565b6000602082019050611e246000830184611b16565b92915050565b60006020820190508181036000830152611e448184611b25565b905092915050565b6000602082019050611e616000830184611b9a565b92915050565b60006040820190508181036000830152611e818185611be2565b9050611e906020830184611b16565b9392505050565b60006040820190508181036000830152611eb18185611be2565b9050611ec06020830184611deb565b9392505050565b60006020820190508181036000830152611ee081611c1b565b9050919050565b60006020820190508181036000830152611f0081611c3e565b9050919050565b60006020820190508181036000830152611f2081611c61565b9050919050565b60006020820190508181036000830152611f4081611c84565b9050919050565b60006020820190508181036000830152611f6081611ca7565b9050919050565b60006020820190508181036000830152611f8081611cca565b9050919050565b60006020820190508181036000830152611fa081611ced565b9050919050565b60006020820190508181036000830152611fc081611d10565b9050919050565b60006020820190508181036000830152611fe081611d56565b9050919050565b6000602082019050611ffc6000830184611deb565b92915050565b60006080820190506120176000830187611deb565b6120246020830186611b16565b6120316040830185611deb565b81810360608301526120438184611be2565b905095945050505050565b60006060820190506120636000830186611deb565b6120706020830185611deb565b81810360408301526120828184611be2565b9050949350505050565b60006120966120a7565b90506120a28282612299565b919050565b6000604051905090565b600067ffffffffffffffff8211156120cc576120cb612388565b5b6120d5826123b7565b9050602081019050919050565b6000819050602082019050919050565b600081519050919050565b600081519050919050565b6000602082019050919050565b600082825260208201905092915050565b600081905092915050565b600082825260208201905092915050565b600082825260208201905092915050565b600061215e8261221b565b91506121698361221b565b9250827fffffffffffffffffffffffffffffffffffffffffffffffffffffffffffffffff0382111561219e5761219d6122fb565b5b828201905092915050565b60006121b48261221b565b91506121bf8361221b565b9250828210156121d2576121d16122fb565b5b828203905092915050565b60006121e8826121fb565b9050919050565b60008115159050919050565b600073ffffffffffffffffffffffffffffffffffffffff82169050919050565b6000819050919050565b82818337600083830152505050565b60005b83811015612252578082015181840152602081019050612237565b83811115612261576000848401525b50505050565b6000600282049050600182168061227f57607f821691505b6020821081141561229357612292612359565b5b50919050565b6122a2826123b7565b810181811067ffffffffffffffff821117156122c1576122c0612388565b5b80604052505050565b60006122d58261221b565b91506122e08361221b565b9250826122f0576122ef61232a565b5b828206905092915050565b7f4e487b7100000000000000000000000000000000000000000000000000000000600052601160045260246000fd5b7f4e487b7100000000000000000000000000000000000000000000000000000000600052601260045260246000fd5b7f4e487b7100000000000000000000000000000000000000000000000000000000600052602260045260246000fd5b7f4e487b7100000000000000000000000000000000000000000000000000000000600052604160045260246000fd5b6000601f19601f8301169050919050565b7f4f776e61626c653a206e6577206f776e657220697320746865207a65726f206160008201527f6464726573730000000000000000000000000000000000000000000000000000602082015250565b7f506c6561736520776169742035206d696e75746573206265666f72652077617660008201527f696e6720616761696e2100000000000000000000000000000000000000000000602082015250565b7f53656e64657220646f6573206e6f74206d617463682074686520676976656e2060008201527f7477656574000000000000000000000000000000000000000000000000000000602082015250565b7f54686520747765657420706f7274616c20686173206265656e2070617573656460008201527f2100000000000000000000000000000000000000000000000000000000000000602082015250565b7f436f6e74726163742062616c616e636520697320696e73756666696369656e74600082015250565b7f4f776e61626c653a2063616c6c6572206973206e6f7420746865206f776e6572600082015250565b7f476976656e20696e64657820697320696e76616c696400000000000000000000600082015250565b7f416d6f756e742073656e7420697320696e636f72726563740000000000000000600082015250565b50565b7f4661696c656420746f2077697468647261772066726f6d20636f6e7472616374600082015250565b6125dd816121dd565b81146125e857600080fd5b50565b6125f4816121ef565b81146125ff57600080fd5b50565b61260b8161221b565b811461261657600080fd5b5056fea2646970667358221220c7e362299daca1b9c43d1cdf80dea2107817cf125d220199cd2006cb0fcaeaf464736f6c63430008040033",
  "linkReferences": {},
  "deployedLinkReferences": {}
}