{
  "_format": "hh-sol-artifact-1",
  "contractName": "Twitt3r",
  "sourceName": "contracts/Twitt3r.sol",
  "abi": [
    {
      "inputs": [],
      "stateMutability": "payable",
      "type": "constructor"
    },
    {
      "anonymous": false,
      "inputs": [
        {
          "indexed": false,
          "internalType": "uint256",
          "name": "id",
          "type": "uint256"
        }
      ],
      "name": "ClearTweets",
      "type": "event"
    },
    {
      "anonymous": false,
      "inputs": [
        {
          "indexed": true,
          "internalType": "uint256",
          "name": "id",
          "type": "uint256"
        },
        {
          "indexed": true,
          "internalType": "address",
          "name": "from",
          "type": "address"
        },
        {
          "indexed": false,
          "internalType": "uint256",
          "name": "timestamp",
          "type": "uint256"
        },
        {
          "indexed": false,
          "internalType": "string",
          "name": "message",
          "type": "string"
        }
      ],
      "name": "DeleteTweet",
      "type": "event"
    },
    {
      "anonymous": false,
      "inputs": [
        {
          "indexed": true,
          "internalType": "uint256",
          "name": "id",
          "type": "uint256"
        },
        {
          "indexed": true,
          "internalType": "address",
          "name": "from",
          "type": "address"
        },
        {
          "indexed": false,
          "internalType": "uint256",
          "name": "timestamp",
          "type": "uint256"
        },
        {
          "indexed": false,
          "internalType": "string",
          "name": "message",
          "type": "string"
        }
      ],
      "name": "EditTweet",
      "type": "event"
    },
    {
      "anonymous": false,
      "inputs": [
        {
          "indexed": true,
          "internalType": "uint256",
          "name": "id",
          "type": "uint256"
        },
        {
          "indexed": true,
          "internalType": "address",
          "name": "from",
          "type": "address"
        },
        {
          "indexed": false,
          "internalType": "uint256",
          "name": "timestamp",
          "type": "uint256"
        },
        {
          "indexed": false,
          "internalType": "string",
          "name": "message",
          "type": "string"
        }
      ],
      "name": "NewTweet",
      "type": "event"
    },
    {
      "anonymous": false,
      "inputs": [
        {
          "indexed": true,
          "internalType": "address",
          "name": "previousOwner",
          "type": "address"
        },
        {
          "indexed": true,
          "internalType": "address",
          "name": "newOwner",
          "type": "address"
        }
      ],
      "name": "OwnershipTransferred",
      "type": "event"
    },
    {
      "anonymous": false,
      "inputs": [
        {
          "indexed": false,
          "internalType": "address",
          "name": "winner",
          "type": "address"
        },
        {
          "indexed": false,
          "internalType": "uint256",
          "name": "jackpot",
          "type": "uint256"
        }
      ],
      "name": "WonLottery",
      "type": "event"
    },
    {
      "inputs": [],
      "name": "clear",
      "outputs": [],
      "stateMutability": "nonpayable",
      "type": "function"
    },
    {
      "inputs": [
        {
          "internalType": "uint256",
          "name": "_id",
          "type": "uint256"
        }
      ],
      "name": "deleteTweet",
      "outputs": [],
      "stateMutability": "nonpayable",
      "type": "function"
    },
    {
      "inputs": [],
      "name": "deposit",
      "outputs": [],
      "stateMutability": "payable",
      "type": "function"
    },
    {
      "inputs": [
        {
          "internalType": "uint256",
          "name": "_id",
          "type": "uint256"
        },
        {
          "internalType": "string",
          "name": "_message",
          "type": "string"
        }
      ],
      "name": "editTweet",
      "outputs": [],
      "stateMutability": "nonpayable",
      "type": "function"
    },
    {
      "inputs": [],
      "name": "getBalance",
      "outputs": [
        {
          "internalType": "uint256",
          "name": "",
          "type": "uint256"
        }
      ],
      "stateMutability": "view",
      "type": "function"
    },
    {
      "inputs": [],
      "name": "getJackpot",
      "outputs": [
        {
          "internalType": "uint256",
          "name": "",
          "type": "uint256"
        }
      ],
      "stateMutability": "view",
      "type": "function"
    },
    {
      "inputs": [],
      "name": "getLastWinner",
      "outputs": [
        {
          "internalType": "address",
          "name": "",
          "type": "address"
        }
      ],
      "stateMutability": "view",
      "type": "function"
    },
    {
      "inputs": [],
      "name": "getOdds",
      "outputs": [
        {
          "internalType": "uint256",
          "name": "",
          "type": "uint256"
        }
      ],
      "stateMutability": "view",
      "type": "function"
    },
    {
      "inputs": [],
      "name": "getOwner",
      "outputs": [
        {
          "internalType": "address",
          "name": "",
          "type": "address"
        }
      ],
      "stateMutability": "view",
      "type": "function"
    },
    {
      "inputs": [],
      "name": "getPrice",
      "outputs": [
        {
          "internalType": "uint256",
          "name": "",
          "type": "uint256"
        }
      ],
      "stateMutability": "view",
      "type": "function"
    },
    {
      "inputs": [],
      "name": "getTotalTweets",
      "outputs": [
        {
          "internalType": "uint256",
          "name": "",
          "type": "uint256"
        }
      ],
      "stateMutability": "view",
      "type": "function"
    },
    {
      "inputs": [],
      "name": "getTweets",
      "outputs": [
        {
          "components": [
            {
              "internalType": "address",
              "name": "from",
              "type": "address"
            },
            {
              "internalType": "uint256",
              "name": "timestamp",
              "type": "uint256"
            },
            {
              "internalType": "string",
              "name": "message",
              "type": "string"
            },
            {
              "internalType": "bool",
              "name": "deleted",
              "type": "bool"
            }
          ],
          "internalType": "struct Twitt3r.Tweet[]",
          "name": "",
          "type": "tuple[]"
        }
      ],
      "stateMutability": "view",
      "type": "function"
    },
    {
      "inputs": [],
      "name": "id",
      "outputs": [
        {
          "internalType": "uint256",
          "name": "",
          "type": "uint256"
        }
      ],
      "stateMutability": "view",
      "type": "function"
    },
    {
      "inputs": [],
      "name": "isPaused",
      "outputs": [
        {
          "internalType": "bool",
          "name": "",
          "type": "bool"
        }
      ],
      "stateMutability": "view",
      "type": "function"
    },
    {
      "inputs": [],
      "name": "jackpot",
      "outputs": [
        {
          "internalType": "uint256",
          "name": "",
          "type": "uint256"
        }
      ],
      "stateMutability": "view",
      "type": "function"
    },
    {
      "inputs": [
        {
          "internalType": "address",
          "name": "",
          "type": "address"
        }
      ],
      "name": "lastTweetedAt",
      "outputs": [
        {
          "internalType": "uint256",
          "name": "",
          "type": "uint256"
        }
      ],
      "stateMutability": "view",
      "type": "function"
    },
    {
      "inputs": [],
      "name": "lastWinner",
      "outputs": [
        {
          "internalType": "address",
          "name": "",
          "type": "address"
        }
      ],
      "stateMutability": "view",
      "type": "function"
    },
    {
      "inputs": [
        {
          "internalType": "string",
          "name": "_message",
          "type": "string"
        }
      ],
      "name": "newTweet",
      "outputs": [],
      "stateMutability": "payable",
      "type": "function"
    },
    {
      "inputs": [],
      "name": "odds",
      "outputs": [
        {
          "internalType": "uint256",
          "name": "",
          "type": "uint256"
        }
      ],
      "stateMutability": "view",
      "type": "function"
    },
    {
      "inputs": [],
      "name": "owner",
      "outputs": [
        {
          "internalType": "address",
          "name": "",
          "type": "address"
        }
      ],
      "stateMutability": "view",
      "type": "function"
    },
    {
      "inputs": [
        {
          "internalType": "bool",
          "name": "_value",
          "type": "bool"
        }
      ],
      "name": "pause",
      "outputs": [],
      "stateMutability": "nonpayable",
      "type": "function"
    },
    {
      "inputs": [],
      "name": "paused",
      "outputs": [
        {
          "internalType": "bool",
          "name": "",
          "type": "bool"
        }
      ],
      "stateMutability": "view",
      "type": "function"
    },
    {
      "inputs": [],
      "name": "price",
      "outputs": [
        {
          "internalType": "uint256",
          "name": "",
          "type": "uint256"
        }
      ],
      "stateMutability": "view",
      "type": "function"
    },
    {
      "inputs": [],
      "name": "renounceOwnership",
      "outputs": [],
      "stateMutability": "nonpayable",
      "type": "function"
    },
    {
      "inputs": [
        {
          "internalType": "address",
          "name": "newOwner",
          "type": "address"
        }
      ],
      "name": "transferOwnership",
      "outputs": [],
      "stateMutability": "nonpayable",
      "type": "function"
    },
    {
      "inputs": [
        {
          "internalType": "uint256",
          "name": "",
          "type": "uint256"
        }
      ],
      "name": "tweetIDs",
      "outputs": [
        {
          "internalType": "uint256",
          "name": "",
          "type": "uint256"
        }
      ],
      "stateMutability": "view",
      "type": "function"
    },
    {
      "inputs": [
        {
          "internalType": "uint256",
          "name": "",
          "type": "uint256"
        }
      ],
      "name": "tweets",
      "outputs": [
        {
          "internalType": "address",
          "name": "from",
          "type": "address"
        },
        {
          "internalType": "uint256",
          "name": "timestamp",
          "type": "uint256"
        },
        {
          "internalType": "string",
          "name": "message",
          "type": "string"
        },
        {
          "internalType": "bool",
          "name": "deleted",
          "type": "bool"
        }
      ],
      "stateMutability": "view",
      "type": "function"
    },
    {
      "inputs": [
        {
          "internalType": "uint256",
          "name": "_newPrice",
          "type": "uint256"
        },
        {
          "internalType": "uint256",
          "name": "_newOdds",
          "type": "uint256"
        },
        {
          "internalType": "uint256",
          "name": "_newJackpot",
          "type": "uint256"
        }
      ],
      "name": "updateSettings",
      "outputs": [],
      "stateMutability": "nonpayable",
      "type": "function"
    },
    {
      "inputs": [],
      "name": "withdraw",
      "outputs": [],
      "stateMutability": "nonpayable",
      "type": "function"
    }
  ],
  "bytecode": "0x608060405260008060146101000a81548160ff021916908315150217905550655af3107a400060015566038d7ea4c68000600255600a60035560006006556200005d620000516200006360201b60201c565b6200006b60201b60201c565b6200012f565b600033905090565b60008060009054906101000a900473ffffffffffffffffffffffffffffffffffffffff169050816000806101000a81548173ffffffffffffffffffffffffffffffffffffffff021916908373ffffffffffffffffffffffffffffffffffffffff1602179055508173ffffffffffffffffffffffffffffffffffffffff168173ffffffffffffffffffffffffffffffffffffffff167f8be0079c531659141344cd1fd0a4f28419497f9722a3daafe3b4186f6b6457e060405160405180910390a35050565b612cef806200013f6000396000f3fe6080604052600436106101c25760003560e01c80639329066c116100f7578063b281395b11610095578063f2fde38b11610064578063f2fde38b146105bf578063f88649a1146105e8578063fc86741f14610613578063fe1881841461063e576101c2565b8063b281395b1461050f578063d0e30db01461054c578063e8d857b014610556578063eae9e13514610596576101c2565b8063a035b1fe116100d1578063a035b1fe14610451578063ac61d8d71461047c578063af640d0f146104b9578063b187bd26146104e4576101c2565b80639329066c146103d057806393f11c27146103fb57806398d5fdca14610426576101c2565b806352efea6e116101645780636b31ee011161013e5780636b31ee0114610338578063715018a614610363578063893d20e81461037a5780638da5cb5b146103a5576101c2565b806352efea6e146102cd5780635775912a146102e45780635c975abb1461030d576101c2565b8063233de126116101a0578063233de1261461024457806334dee1fa1461026f5780633ccfd60b1461028b5780634c5be574146102a2576101c2565b806302329a29146101c75780630465c563146101f057806312065fe014610219575b600080fd5b3480156101d357600080fd5b506101ee60048036038101906101e99190611e3c565b610669565b005b3480156101fc57600080fd5b5061021760048036038101906102129190611f23565b610702565b005b34801561022557600080fd5b5061022e61079e565b60405161023b91906125ff565b60405180910390f35b34801561025057600080fd5b506102596107a6565b60405161026691906125ff565b60405180910390f35b61028960048036038101906102849190611e65565b6107ac565b005b34801561029757600080fd5b506102a0610ad4565b005b3480156102ae57600080fd5b506102b7610c0c565b6040516102c491906125ff565b60405180910390f35b3480156102d957600080fd5b506102e2610c16565b005b3480156102f057600080fd5b5061030b60048036038101906103069190611ea6565b610d76565b005b34801561031957600080fd5b50610322610fc0565b60405161032f9190612424565b60405180910390f35b34801561034457600080fd5b5061034d610fd3565b60405161035a91906125ff565b60405180910390f35b34801561036f57600080fd5b50610378610fd9565b005b34801561038657600080fd5b5061038f611061565b60405161039c9190612372565b60405180910390f35b3480156103b157600080fd5b506103ba611070565b6040516103c79190612372565b60405180910390f35b3480156103dc57600080fd5b506103e5611099565b6040516103f291906125ff565b60405180910390f35b34801561040757600080fd5b506104106110a3565b60405161041d91906125ff565b60405180910390f35b34801561043257600080fd5b5061043b6110b0565b60405161044891906125ff565b60405180910390f35b34801561045d57600080fd5b506104666110ba565b60405161047391906125ff565b60405180910390f35b34801561048857600080fd5b506104a3600480360381019061049e9190611ea6565b6110c0565b6040516104b091906125ff565b60405180910390f35b3480156104c557600080fd5b506104ce6110e4565b6040516104db91906125ff565b60405180910390f35b3480156104f057600080fd5b506104f96110ea565b6040516105069190612424565b60405180910390f35b34801561051b57600080fd5b5061053660048036038101906105319190611e13565b611100565b60405161054391906125ff565b60405180910390f35b610554611118565b005b34801561056257600080fd5b5061057d60048036038101906105789190611ea6565b61111a565b60405161058d94939291906123b6565b60405180910390f35b3480156105a257600080fd5b506105bd60048036038101906105b89190611ecf565b6111ff565b005b3480156105cb57600080fd5b506105e660048036038101906105e19190611e13565b611446565b005b3480156105f457600080fd5b506105fd61153e565b60405161060a9190612372565b60405180910390f35b34801561061f57600080fd5b50610628611568565b6040516106359190612402565b60405180910390f35b34801561064a57600080fd5b506106536117cb565b6040516106609190612372565b60405180910390f35b6106716117f1565b73ffffffffffffffffffffffffffffffffffffffff1661068f611070565b73ffffffffffffffffffffffffffffffffffffffff16146106e5576040517f08c379a00000000000000000000000000000000000000000000000000000000081526004016106dc9061253f565b60405180910390fd5b80600060146101000a81548160ff02191690831515021790555050565b61070a6117f1565b73ffffffffffffffffffffffffffffffffffffffff16610728611070565b73ffffffffffffffffffffffffffffffffffffffff161461077e576040517f08c379a00000000000000000000000000000000000000000000000000000000081526004016107759061253f565b60405180910390fd5b610787836117f9565b61079082611803565b6107998161180d565b505050565b600047905090565b60035481565b600060149054906101000a900460ff16156107fc576040517f08c379a00000000000000000000000000000000000000000000000000000000081526004016107f39061259f565b60405180910390fd5b600154341015610841576040517f08c379a00000000000000000000000000000000000000000000000000000000081526004016108389061257f565b60405180910390fd5b4261012c600960003373ffffffffffffffffffffffffffffffffffffffff1673ffffffffffffffffffffffffffffffffffffffff1681526020019081526020016000205461088f9190612756565b106108cf576040517f08c379a00000000000000000000000000000000000000000000000000000000081526004016108c6906125bf565b60405180910390fd5b42600960003373ffffffffffffffffffffffffffffffffffffffff1673ffffffffffffffffffffffffffffffffffffffff168152602001908152602001600020819055506109526040518060400160405280600f81526020017f257320686173207477656574656421000000000000000000000000000000000081525033611817565b60405180608001604052803373ffffffffffffffffffffffffffffffffffffffff1681526020014281526020018281526020016000151581525060086000600654815260200190815260200160002060008201518160000160006101000a81548173ffffffffffffffffffffffffffffffffffffffff021916908373ffffffffffffffffffffffffffffffffffffffff160217905550602082015181600101556040820151816002019080519060200190610a0e929190611c28565b5060608201518160030160006101000a81548160ff02191690831515021790555090505060076006549080600181540180825580915050600190039060005260206000200160009091909190915055610a66336118b3565b3373ffffffffffffffffffffffffffffffffffffffff166006547f7ac7383ab9cd990660baf242ccf198e3681c75e3e539fa1bcef7d0ad5a91caf24284604051610ab192919061261a565b60405180910390a360066000815480929190610acc906128cf565b919050555050565b610adc6117f1565b73ffffffffffffffffffffffffffffffffffffffff16610afa611070565b73ffffffffffffffffffffffffffffffffffffffff1614610b50576040517f08c379a0000000000000000000000000000000000000000000000000000000008152600401610b479061253f565b60405180910390fd5b60004790506000610b5f611070565b73ffffffffffffffffffffffffffffffffffffffff1682604051610b829061235d565b60006040518083038185875af1925050503d8060008114610bbf576040519150601f19603f3d011682016040523d82523d6000602084013e610bc4565b606091505b5050905080610c08576040517f08c379a0000000000000000000000000000000000000000000000000000000008152600401610bff906125df565b60405180910390fd5b5050565b6000600354905090565b610c1e6117f1565b73ffffffffffffffffffffffffffffffffffffffff16610c3c611070565b73ffffffffffffffffffffffffffffffffffffffff1614610c92576040517f08c379a0000000000000000000000000000000000000000000000000000000008152600401610c899061253f565b60405180910390fd5b6000600654905060005b600780549050811015610d255760086000828152602001908152602001600020600080820160006101000a81549073ffffffffffffffffffffffffffffffffffffffff02191690556001820160009055600282016000610cfc9190611cae565b6003820160006101000a81549060ff021916905550508080610d1d906128cf565b915050610c9c565b5060076000610d349190611cee565b60006006819055507fae292c2f970a00a1ee119ec6476c14d3a9cc6a21522fd6816ea794aa7b2a8d3181604051610d6b91906125ff565b60405180910390a150565b600060149054906101000a900460ff1615610dc6576040517f08c379a0000000000000000000000000000000000000000000000000000000008152600401610dbd9061259f565b60405180910390fd5b600060086000838152602001908152602001600020600101541415610e20576040517f08c379a0000000000000000000000000000000000000000000000000000000008152600401610e179061249f565b60405180910390fd5b6008600082815260200190815260200160002060030160009054906101000a900460ff1615610e84576040517f08c379a0000000000000000000000000000000000000000000000000000000008152600401610e7b9061255f565b60405180910390fd5b3373ffffffffffffffffffffffffffffffffffffffff166008600083815260200190815260200160002060000160009054906101000a900473ffffffffffffffffffffffffffffffffffffffff1673ffffffffffffffffffffffffffffffffffffffff1614610f28576040517f08c379a0000000000000000000000000000000000000000000000000000000008152600401610f1f906124ff565b60405180910390fd5b60016008600083815260200190815260200160002060030160006101000a81548160ff0219169083151502179055503373ffffffffffffffffffffffffffffffffffffffff16817fd3441b50401ee096e2e2f868486b0a776aa4533b16e1ce814985336a72664f954260086000868152602001908152602001600020600201604051610fb592919061264a565b60405180910390a350565b600060149054906101000a900460ff1681565b60025481565b610fe16117f1565b73ffffffffffffffffffffffffffffffffffffffff16610fff611070565b73ffffffffffffffffffffffffffffffffffffffff1614611055576040517f08c379a000000000000000000000000000000000000000000000000000000000815260040161104c9061253f565b60405180910390fd5b61105f6000611a9f565b565b600061106b611070565b905090565b60008060009054906101000a900473ffffffffffffffffffffffffffffffffffffffff16905090565b6000600254905090565b6000600780549050905090565b6000600154905090565b60015481565b600781815481106110d057600080fd5b906000526020600020016000915090505481565b60065481565b60008060149054906101000a900460ff16905090565b60096020528060005260406000206000915090505481565b565b60086020528060005260406000206000915090508060000160009054906101000a900473ffffffffffffffffffffffffffffffffffffffff16908060010154908060020180546111699061286c565b80601f01602080910402602001604051908101604052809291908181526020018280546111959061286c565b80156111e25780601f106111b7576101008083540402835291602001916111e2565b820191906000526020600020905b8154815290600101906020018083116111c557829003601f168201915b5050505050908060030160009054906101000a900460ff16905084565b600060149054906101000a900460ff161561124f576040517f08c379a00000000000000000000000000000000000000000000000000000000081526004016112469061259f565b60405180910390fd5b6000600860008481526020019081526020016000206001015414156112a9576040517f08c379a00000000000000000000000000000000000000000000000000000000081526004016112a09061249f565b60405180910390fd5b6008600083815260200190815260200160002060030160009054906101000a900460ff161561130d576040517f08c379a0000000000000000000000000000000000000000000000000000000008152600401611304906124df565b60405180910390fd5b3373ffffffffffffffffffffffffffffffffffffffff166008600084815260200190815260200160002060000160009054906101000a900473ffffffffffffffffffffffffffffffffffffffff1673ffffffffffffffffffffffffffffffffffffffff16146113b1576040517f08c379a00000000000000000000000000000000000000000000000000000000081526004016113a8906124ff565b60405180910390fd5b806008600084815260200190815260200160002060020190805190602001906113db929190611c28565b503373ffffffffffffffffffffffffffffffffffffffff16827f62ac69c0bbb613d5a37d17eb75aeb147ebad012d1046ed8f91ad9e1df533cd86426008600087815260200190815260200160002060020160405161143a92919061264a565b60405180910390a35050565b61144e6117f1565b73ffffffffffffffffffffffffffffffffffffffff1661146c611070565b73ffffffffffffffffffffffffffffffffffffffff16146114c2576040517f08c379a00000000000000000000000000000000000000000000000000000000081526004016114b99061253f565b60405180910390fd5b600073ffffffffffffffffffffffffffffffffffffffff168173ffffffffffffffffffffffffffffffffffffffff161415611532576040517f08c379a0000000000000000000000000000000000000000000000000000000008152600401611529906124bf565b60405180910390fd5b61153b81611a9f565b50565b6000600460009054906101000a900473ffffffffffffffffffffffffffffffffffffffff16905090565b6060600060078054905067ffffffffffffffff8111156115b1577f4e487b7100000000000000000000000000000000000000000000000000000000600052604160045260246000fd5b6040519080825280602002602001820160405280156115ea57816020015b6115d7611d0f565b8152602001906001900390816115cf5790505b50905060005b6007805490508110156117c357600860006007838154811061163b577f4e487b7100000000000000000000000000000000000000000000000000000000600052603260045260246000fd5b906000526020600020015481526020019081526020016000206040518060800160405290816000820160009054906101000a900473ffffffffffffffffffffffffffffffffffffffff1673ffffffffffffffffffffffffffffffffffffffff1673ffffffffffffffffffffffffffffffffffffffff168152602001600182015481526020016002820180546116cf9061286c565b80601f01602080910402602001604051908101604052809291908181526020018280546116fb9061286c565b80156117485780601f1061171d57610100808354040283529160200191611748565b820191906000526020600020905b81548152906001019060200180831161172b57829003601f168201915b505050505081526020016003820160009054906101000a900460ff1615151515815250508282815181106117a5577f4e487b7100000000000000000000000000000000000000000000000000000000600052603260045260246000fd5b602002602001018190525080806117bb906128cf565b9150506115f0565b508091505090565b600460009054906101000a900473ffffffffffffffffffffffffffffffffffffffff1681565b600033905090565b8060018190555050565b8060038190555050565b8060028190555050565b6118af828260405160240161182d92919061243f565b6040516020818303038152906040527f319af333000000000000000000000000000000000000000000000000000000007bffffffffffffffffffffffffffffffffffffffffffffffffffffffff19166020820180517bffffffffffffffffffffffffffffffffffffffffffffffffffffffff8381831617835250505050611b63565b5050565b6002544710156118f8576040517f08c379a00000000000000000000000000000000000000000000000000000000081526004016118ef9061251f565b60405180910390fd5b60006064600554424461190b9190612756565b6119159190612756565b61191f9190612918565b90506119606040518060400160405280601681526020017f52616e646f6d20232067656e6572617465643a2025730000000000000000000081525082611b8c565b80600581905550600354811015611a9b576119b06040518060400160405280600b81526020017f25732068617320776f6e2100000000000000000000000000000000000000000081525033611817565b60008273ffffffffffffffffffffffffffffffffffffffff166002546040516119d89061235d565b60006040518083038185875af1925050503d8060008114611a15576040519150601f19603f3d011682016040523d82523d6000602084013e611a1a565b606091505b5050905080611a5e576040517f08c379a0000000000000000000000000000000000000000000000000000000008152600401611a55906125df565b60405180910390fd5b7fda1fcd992ca31eb97f098763ee5be1bfc2d2f6fd214d42642d99ddccb8ec64c683600254604051611a9192919061238d565b60405180910390a1505b5050565b60008060009054906101000a900473ffffffffffffffffffffffffffffffffffffffff169050816000806101000a81548173ffffffffffffffffffffffffffffffffffffffff021916908373ffffffffffffffffffffffffffffffffffffffff1602179055508173ffffffffffffffffffffffffffffffffffffffff168173ffffffffffffffffffffffffffffffffffffffff167f8be0079c531659141344cd1fd0a4f28419497f9722a3daafe3b4186f6b6457e060405160405180910390a35050565b60008151905060006a636f6e736f6c652e6c6f679050602083016000808483855afa5050505050565b611c248282604051602401611ba292919061246f565b6040516020818303038152906040527f9710a9d0000000000000000000000000000000000000000000000000000000007bffffffffffffffffffffffffffffffffffffffffffffffffffffffff19166020820180517bffffffffffffffffffffffffffffffffffffffffffffffffffffffff8381831617835250505050611b63565b5050565b828054611c349061286c565b90600052602060002090601f016020900481019282611c565760008555611c9d565b82601f10611c6f57805160ff1916838001178555611c9d565b82800160010185558215611c9d579182015b82811115611c9c578251825591602001919060010190611c81565b5b509050611caa9190611d4f565b5090565b508054611cba9061286c565b6000825580601f10611ccc5750611ceb565b601f016020900490600052602060002090810190611cea9190611d4f565b5b50565b5080546000825590600052602060002090810190611d0c9190611d4f565b50565b6040518060800160405280600073ffffffffffffffffffffffffffffffffffffffff16815260200160008152602001606081526020016000151581525090565b5b80821115611d68576000816000905550600101611d50565b5090565b6000611d7f611d7a8461269f565b61267a565b905082815260208101848484011115611d9757600080fd5b611da284828561282a565b509392505050565b600081359050611db981612c74565b92915050565b600081359050611dce81612c8b565b92915050565b600082601f830112611de557600080fd5b8135611df5848260208601611d6c565b91505092915050565b600081359050611e0d81612ca2565b92915050565b600060208284031215611e2557600080fd5b6000611e3384828501611daa565b91505092915050565b600060208284031215611e4e57600080fd5b6000611e5c84828501611dbf565b91505092915050565b600060208284031215611e7757600080fd5b600082013567ffffffffffffffff811115611e9157600080fd5b611e9d84828501611dd4565b91505092915050565b600060208284031215611eb857600080fd5b6000611ec684828501611dfe565b91505092915050565b60008060408385031215611ee257600080fd5b6000611ef085828601611dfe565b925050602083013567ffffffffffffffff811115611f0d57600080fd5b611f1985828601611dd4565b9150509250929050565b600080600060608486031215611f3857600080fd5b6000611f4686828701611dfe565b9350506020611f5786828701611dfe565b9250506040611f6886828701611dfe565b9150509250925092565b6000611f7e83836122dc565b905092915050565b611f8f816127f4565b82525050565b611f9e816127ac565b82525050565b611fad816127ac565b82525050565b6000611fbe826126f5565b611fc88185612718565b935083602082028501611fda856126d0565b8060005b858110156120165784840389528151611ff78582611f72565b94506120028361270b565b925060208a01995050600181019050611fde565b50829750879550505050505092915050565b612031816127be565b82525050565b612040816127be565b82525050565b600061205182612700565b61205b8185612734565b935061206b818560208601612839565b61207481612a05565b840191505092915050565b600061208a82612700565b6120948185612745565b93506120a4818560208601612839565b6120ad81612a05565b840191505092915050565b600081546120c58161286c565b6120cf8186612745565b945060018216600081146120ea57600181146120fc5761212f565b60ff198316865260208601935061212f565b612105856126e0565b60005b8381101561212757815481890152600182019150602081019050612108565b808801955050505b50505092915050565b6000612145601383612745565b915061215082612a16565b602082019050919050565b6000612168602683612745565b915061217382612a3f565b604082019050919050565b600061218b601783612745565b915061219682612a8e565b602082019050919050565b60006121ae602583612745565b91506121b982612ab7565b604082019050919050565b60006121d1602183612745565b91506121dc82612b06565b604082019050919050565b60006121f4602083612745565b91506121ff82612b55565b602082019050919050565b6000612217601f83612745565b915061222282612b7e565b602082019050919050565b600061223a601883612745565b915061224582612ba7565b602082019050919050565b600061225d601883612745565b915061226882612bd0565b602082019050919050565b6000612280600083612729565b915061228b82612bf9565b600082019050919050565b60006122a3602c83612745565b91506122ae82612bfc565b604082019050919050565b60006122c6602083612745565b91506122d182612c4b565b602082019050919050565b60006080830160008301516122f46000860182611f95565b506020830151612307602086018261233f565b506040830151848203604086015261231f8282612046565b91505060608301516123346060860182612028565b508091505092915050565b612348816127ea565b82525050565b612357816127ea565b82525050565b600061236882612273565b9150819050919050565b60006020820190506123876000830184611fa4565b92915050565b60006040820190506123a26000830185611f86565b6123af602083018461234e565b9392505050565b60006080820190506123cb6000830187611fa4565b6123d8602083018661234e565b81810360408301526123ea818561207f565b90506123f96060830184612037565b95945050505050565b6000602082019050818103600083015261241c8184611fb3565b905092915050565b60006020820190506124396000830184612037565b92915050565b60006040820190508181036000830152612459818561207f565b90506124686020830184611fa4565b9392505050565b60006040820190508181036000830152612489818561207f565b9050612498602083018461234e565b9392505050565b600060208201905081810360008301526124b881612138565b9050919050565b600060208201905081810360008301526124d88161215b565b9050919050565b600060208201905081810360008301526124f88161217e565b9050919050565b60006020820190508181036000830152612518816121a1565b9050919050565b60006020820190508181036000830152612538816121c4565b9050919050565b60006020820190508181036000830152612558816121e7565b9050919050565b600060208201905081810360008301526125788161220a565b9050919050565b600060208201905081810360008301526125988161222d565b9050919050565b600060208201905081810360008301526125b881612250565b9050919050565b600060208201905081810360008301526125d881612296565b9050919050565b600060208201905081810360008301526125f8816122b9565b9050919050565b6000602082019050612614600083018461234e565b92915050565b600060408201905061262f600083018561234e565b8181036020830152612641818461207f565b90509392505050565b600060408201905061265f600083018561234e565b818103602083015261267181846120b8565b90509392505050565b6000612684612695565b9050612690828261289e565b919050565b6000604051905090565b600067ffffffffffffffff8211156126ba576126b96129d6565b5b6126c382612a05565b9050602081019050919050565b6000819050602082019050919050565b60008190508160005260206000209050919050565b600081519050919050565b600081519050919050565b6000602082019050919050565b600082825260208201905092915050565b600081905092915050565b600082825260208201905092915050565b600082825260208201905092915050565b6000612761826127ea565b915061276c836127ea565b9250827fffffffffffffffffffffffffffffffffffffffffffffffffffffffffffffffff038211156127a1576127a0612949565b5b828201905092915050565b60006127b7826127ca565b9050919050565b60008115159050919050565b600073ffffffffffffffffffffffffffffffffffffffff82169050919050565b6000819050919050565b60006127ff82612806565b9050919050565b600061281182612818565b9050919050565b6000612823826127ca565b9050919050565b82818337600083830152505050565b60005b8381101561285757808201518184015260208101905061283c565b83811115612866576000848401525b50505050565b6000600282049050600182168061288457607f821691505b60208210811415612898576128976129a7565b5b50919050565b6128a782612a05565b810181811067ffffffffffffffff821117156128c6576128c56129d6565b5b80604052505050565b60006128da826127ea565b91507fffffffffffffffffffffffffffffffffffffffffffffffffffffffffffffffff82141561290d5761290c612949565b5b600182019050919050565b6000612923826127ea565b915061292e836127ea565b92508261293e5761293d612978565b5b828206905092915050565b7f4e487b7100000000000000000000000000000000000000000000000000000000600052601160045260246000fd5b7f4e487b7100000000000000000000000000000000000000000000000000000000600052601260045260246000fd5b7f4e487b7100000000000000000000000000000000000000000000000000000000600052602260045260246000fd5b7f4e487b7100000000000000000000000000000000000000000000000000000000600052604160045260246000fd5b6000601f19601f8301169050919050565b7f476976656e20494420697320696e76616c696400000000000000000000000000600082015250565b7f4f776e61626c653a206e6577206f776e657220697320746865207a65726f206160008201527f6464726573730000000000000000000000000000000000000000000000000000602082015250565b7f476976656e2074776565742069732064656c6574656421000000000000000000600082015250565b7f53656e64657220646f6573206e6f74206d617463682074686520676976656e2060008201527f7477656574000000000000000000000000000000000000000000000000000000602082015250565b7f436f6e74726163742062616c616e636520697320696e73756666696369656e7460008201527f2100000000000000000000000000000000000000000000000000000000000000602082015250565b7f4f776e61626c653a2063616c6c6572206973206e6f7420746865206f776e6572600082015250565b7f476976656e20747765657420697320616c72656164792064656c657465642100600082015250565b7f416d6f756e742073656e7420697320696e636f72726563740000000000000000600082015250565b7f5477697474337220686173206265656e20706175736564210000000000000000600082015250565b50565b7f506c6561736520776169742035206d696e75746573206265666f72652074776560008201527f6574696e6720616761696e210000000000000000000000000000000000000000602082015250565b7f4661696c656420746f2077697468647261772066726f6d20636f6e7472616374600082015250565b612c7d816127ac565b8114612c8857600080fd5b50565b612c94816127be565b8114612c9f57600080fd5b50565b612cab816127ea565b8114612cb657600080fd5b5056fea2646970667358221220e730d3b49edcf77b25d71a24ee9fe19a93f241c86eada50f96476cb0625b1de664736f6c63430008040033",
  "linkReferences": {},
  "deployedLinkReferences": {}
}