{
  "_format": "hh-sol-artifact-1",
  "contractName": "WavePortal",
  "sourceName": "contracts/WavePortal.sol",
  "abi": [
    {
      "inputs": [],
      "stateMutability": "payable",
      "type": "constructor"
    },
    {
      "anonymous": false,
      "inputs": [
        {
          "indexed": false,
          "internalType": "uint256",
          "name": "index",
          "type": "uint256"
        },
        {
          "indexed": true,
          "internalType": "address",
          "name": "from",
          "type": "address"
        },
        {
          "indexed": false,
          "internalType": "uint256",
          "name": "timestamp",
          "type": "uint256"
        },
        {
          "indexed": false,
          "internalType": "string",
          "name": "message",
          "type": "string"
        }
      ],
      "name": "NewWave",
      "type": "event"
    },
    {
      "anonymous": false,
      "inputs": [
        {
          "indexed": true,
          "internalType": "address",
          "name": "previousOwner",
          "type": "address"
        },
        {
          "indexed": true,
          "internalType": "address",
          "name": "newOwner",
          "type": "address"
        }
      ],
      "name": "OwnershipTransferred",
      "type": "event"
    },
    {
      "inputs": [],
      "name": "clear",
      "outputs": [],
      "stateMutability": "nonpayable",
      "type": "function"
    },
    {
      "inputs": [
        {
          "internalType": "uint256",
          "name": "index",
          "type": "uint256"
        }
      ],
      "name": "deleteWave",
      "outputs": [],
      "stateMutability": "nonpayable",
      "type": "function"
    },
    {
      "inputs": [],
      "name": "deposit",
      "outputs": [],
      "stateMutability": "payable",
      "type": "function"
    },
    {
      "inputs": [],
      "name": "getBalance",
      "outputs": [
        {
          "internalType": "uint256",
          "name": "",
          "type": "uint256"
        }
      ],
      "stateMutability": "view",
      "type": "function"
    },
    {
      "inputs": [],
      "name": "getJackpot",
      "outputs": [
        {
          "internalType": "uint256",
          "name": "",
          "type": "uint256"
        }
      ],
      "stateMutability": "view",
      "type": "function"
    },
    {
      "inputs": [],
      "name": "getLastWinner",
      "outputs": [
        {
          "internalType": "address",
          "name": "",
          "type": "address"
        }
      ],
      "stateMutability": "view",
      "type": "function"
    },
    {
      "inputs": [],
      "name": "getOdds",
      "outputs": [
        {
          "internalType": "uint256",
          "name": "",
          "type": "uint256"
        }
      ],
      "stateMutability": "view",
      "type": "function"
    },
    {
      "inputs": [],
      "name": "getOwner",
      "outputs": [
        {
          "internalType": "address",
          "name": "",
          "type": "address"
        }
      ],
      "stateMutability": "view",
      "type": "function"
    },
    {
      "inputs": [],
      "name": "getPrice",
      "outputs": [
        {
          "internalType": "uint256",
          "name": "",
          "type": "uint256"
        }
      ],
      "stateMutability": "view",
      "type": "function"
    },
    {
      "inputs": [],
      "name": "getTotalWaves",
      "outputs": [
        {
          "internalType": "uint256",
          "name": "",
          "type": "uint256"
        }
      ],
      "stateMutability": "view",
      "type": "function"
    },
    {
      "inputs": [],
      "name": "getWaves",
      "outputs": [
        {
          "components": [
            {
              "internalType": "uint256",
              "name": "index",
              "type": "uint256"
            },
            {
              "internalType": "address",
              "name": "sender",
              "type": "address"
            },
            {
              "internalType": "uint256",
              "name": "timestamp",
              "type": "uint256"
            },
            {
              "internalType": "string",
              "name": "message",
              "type": "string"
            }
          ],
          "internalType": "struct WavePortal.Wave[]",
          "name": "",
          "type": "tuple[]"
        }
      ],
      "stateMutability": "view",
      "type": "function"
    },
    {
      "inputs": [],
      "name": "isPaused",
      "outputs": [
        {
          "internalType": "bool",
          "name": "",
          "type": "bool"
        }
      ],
      "stateMutability": "view",
      "type": "function"
    },
    {
      "inputs": [],
      "name": "jackpot",
      "outputs": [
        {
          "internalType": "uint256",
          "name": "",
          "type": "uint256"
        }
      ],
      "stateMutability": "view",
      "type": "function"
    },
    {
      "inputs": [
        {
          "internalType": "address",
          "name": "",
          "type": "address"
        }
      ],
      "name": "lastWavedAt",
      "outputs": [
        {
          "internalType": "uint256",
          "name": "",
          "type": "uint256"
        }
      ],
      "stateMutability": "view",
      "type": "function"
    },
    {
      "inputs": [],
      "name": "lastWinner",
      "outputs": [
        {
          "internalType": "address",
          "name": "",
          "type": "address"
        }
      ],
      "stateMutability": "view",
      "type": "function"
    },
    {
      "inputs": [],
      "name": "odds",
      "outputs": [
        {
          "internalType": "uint256",
          "name": "",
          "type": "uint256"
        }
      ],
      "stateMutability": "view",
      "type": "function"
    },
    {
      "inputs": [],
      "name": "owner",
      "outputs": [
        {
          "internalType": "address",
          "name": "",
          "type": "address"
        }
      ],
      "stateMutability": "view",
      "type": "function"
    },
    {
      "inputs": [
        {
          "internalType": "bool",
          "name": "value",
          "type": "bool"
        }
      ],
      "name": "pause",
      "outputs": [],
      "stateMutability": "nonpayable",
      "type": "function"
    },
    {
      "inputs": [],
      "name": "paused",
      "outputs": [
        {
          "internalType": "bool",
          "name": "",
          "type": "bool"
        }
      ],
      "stateMutability": "view",
      "type": "function"
    },
    {
      "inputs": [],
      "name": "price",
      "outputs": [
        {
          "internalType": "uint256",
          "name": "",
          "type": "uint256"
        }
      ],
      "stateMutability": "view",
      "type": "function"
    },
    {
      "inputs": [],
      "name": "renounceOwnership",
      "outputs": [],
      "stateMutability": "nonpayable",
      "type": "function"
    },
    {
      "inputs": [
        {
          "internalType": "address",
          "name": "newOwner",
          "type": "address"
        }
      ],
      "name": "transferOwnership",
      "outputs": [],
      "stateMutability": "nonpayable",
      "type": "function"
    },
    {
      "inputs": [
        {
          "internalType": "uint256",
          "name": "newPrice",
          "type": "uint256"
        },
        {
          "internalType": "uint256",
          "name": "newOdds",
          "type": "uint256"
        },
        {
          "internalType": "uint256",
          "name": "newJackpot",
          "type": "uint256"
        }
      ],
      "name": "updateSettings",
      "outputs": [],
      "stateMutability": "nonpayable",
      "type": "function"
    },
    {
      "inputs": [
        {
          "internalType": "string",
          "name": "message",
          "type": "string"
        }
      ],
      "name": "wave",
      "outputs": [],
      "stateMutability": "payable",
      "type": "function"
    },
    {
      "inputs": [
        {
          "internalType": "uint256",
          "name": "",
          "type": "uint256"
        }
      ],
      "name": "waves",
      "outputs": [
        {
          "internalType": "uint256",
          "name": "index",
          "type": "uint256"
        },
        {
          "internalType": "address",
          "name": "sender",
          "type": "address"
        },
        {
          "internalType": "uint256",
          "name": "timestamp",
          "type": "uint256"
        },
        {
          "internalType": "string",
          "name": "message",
          "type": "string"
        }
      ],
      "stateMutability": "view",
      "type": "function"
    },
    {
      "inputs": [],
      "name": "withdraw",
      "outputs": [],
      "stateMutability": "nonpayable",
      "type": "function"
    }
  ],
  "bytecode": "0x608060405260008060146101000a81548160ff021916908315150217905550655af3107a400060015566038d7ea4c68000600255600a60035561005461004961005960201b60201c565b61006160201b60201c565b610125565b600033905090565b60008060009054906101000a900473ffffffffffffffffffffffffffffffffffffffff169050816000806101000a81548173ffffffffffffffffffffffffffffffffffffffff021916908373ffffffffffffffffffffffffffffffffffffffff1602179055508173ffffffffffffffffffffffffffffffffffffffff168173ffffffffffffffffffffffffffffffffffffffff167f8be0079c531659141344cd1fd0a4f28419497f9722a3daafe3b4186f6b6457e060405160405180910390a35050565b61262980620001356000396000f3fe6080604052600436106101815760003560e01c80638da5cb5b116100d1578063a9d42f7e1161008a578063d0e30db011610064578063d0e30db01461050e578063f2fde38b14610518578063f88649a114610541578063fe1881841461056c57610181565b8063a9d42f7e14610478578063b187bd26146104a3578063c781267a146104ce57610181565b80638da5cb5b146103645780639329066c1461038f57806398d5fdca146103ba5780639a2cdc08146103e5578063a035b1fe14610410578063a42a46631461043b57610181565b8063449d46c01161013e5780635c975abb116101185780635c975abb146102cc5780636b31ee01146102f7578063715018a614610322578063893d20e81461033957610181565b8063449d46c01461026e5780634c5be5741461028a57806352efea6e146102b557610181565b806302329a29146101865780630465c563146101af57806312065fe0146101d8578063233de12614610203578063328e2ac71461022e5780633ccfd60b14610257575b600080fd5b34801561019257600080fd5b506101ad60048036038101906101a89190611a11565b610597565b005b3480156101bb57600080fd5b506101d660048036038101906101d19190611aa4565b610630565b005b3480156101e457600080fd5b506101ed6106cc565b6040516101fa9190611fe7565b60405180910390f35b34801561020f57600080fd5b506102186106d4565b6040516102259190611fe7565b60405180910390f35b34801561023a57600080fd5b5061025560048036038101906102509190611a7b565b6106da565b005b34801561026357600080fd5b5061026c6109d4565b005b61028860048036038101906102839190611a3a565b610b0c565b005b34801561029657600080fd5b5061029f610e02565b6040516102ac9190611fe7565b60405180910390f35b3480156102c157600080fd5b506102ca610e0c565b005b3480156102d857600080fd5b506102e1610e98565b6040516102ee9190611e4c565b60405180910390f35b34801561030357600080fd5b5061030c610eab565b6040516103199190611fe7565b60405180910390f35b34801561032e57600080fd5b50610337610eb1565b005b34801561034557600080fd5b5061034e610f39565b60405161035b9190611e0f565b60405180910390f35b34801561037057600080fd5b50610379610f48565b6040516103869190611e0f565b60405180910390f35b34801561039b57600080fd5b506103a4610f71565b6040516103b19190611fe7565b60405180910390f35b3480156103c657600080fd5b506103cf610f7b565b6040516103dc9190611fe7565b60405180910390f35b3480156103f157600080fd5b506103fa610f85565b6040516104079190611fe7565b60405180910390f35b34801561041c57600080fd5b50610425610f92565b6040516104329190611fe7565b60405180910390f35b34801561044757600080fd5b50610462600480360381019061045d91906119e8565b610f98565b60405161046f9190611fe7565b60405180910390f35b34801561048457600080fd5b5061048d610fb0565b60405161049a9190611e2a565b60405180910390f35b3480156104af57600080fd5b506104b861110b565b6040516104c59190611e4c565b60405180910390f35b3480156104da57600080fd5b506104f560048036038101906104f09190611a7b565b611121565b6040516105059493929190612002565b60405180910390f35b610516611209565b005b34801561052457600080fd5b5061053f600480360381019061053a91906119e8565b61120b565b005b34801561054d57600080fd5b50610556611303565b6040516105639190611e0f565b60405180910390f35b34801561057857600080fd5b5061058161132d565b60405161058e9190611e0f565b60405180910390f35b61059f611353565b73ffffffffffffffffffffffffffffffffffffffff166105bd610f48565b73ffffffffffffffffffffffffffffffffffffffff1614610613576040517f08c379a000000000000000000000000000000000000000000000000000000000815260040161060a90611f47565b60405180910390fd5b80600060146101000a81548160ff02191690831515021790555050565b610638611353565b73ffffffffffffffffffffffffffffffffffffffff16610656610f48565b73ffffffffffffffffffffffffffffffffffffffff16146106ac576040517f08c379a00000000000000000000000000000000000000000000000000000000081526004016106a390611f47565b60405180910390fd5b6106b58361135b565b6106be82611365565b6106c78161136f565b505050565b600047905090565b60035481565b8060068054905011610721576040517f08c379a000000000000000000000000000000000000000000000000000000000815260040161071890611f67565b60405180910390fd5b3373ffffffffffffffffffffffffffffffffffffffff1660068281548110610772577f4e487b7100000000000000000000000000000000000000000000000000000000600052603260045260246000fd5b906000526020600020906004020160010160009054906101000a900473ffffffffffffffffffffffffffffffffffffffff1673ffffffffffffffffffffffffffffffffffffffff16146107fa576040517f08c379a00000000000000000000000000000000000000000000000000000000081526004016107f190611fa7565b60405180910390fd5b6006600160068054905061080e91906121a9565b81548110610845577f4e487b7100000000000000000000000000000000000000000000000000000000600052603260045260246000fd5b90600052602060002090600402016006828154811061088d577f4e487b7100000000000000000000000000000000000000000000000000000000600052603260045260246000fd5b9060005260206000209060040201600082015481600001556001820160009054906101000a900473ffffffffffffffffffffffffffffffffffffffff168160010160006101000a81548173ffffffffffffffffffffffffffffffffffffffff021916908373ffffffffffffffffffffffffffffffffffffffff16021790555060028201548160020155600382018160030190805461092a90612267565b61093592919061174f565b509050506006805480610971577f4e487b7100000000000000000000000000000000000000000000000000000000600052603160045260246000fd5b60019003818190600052602060002090600402016000808201600090556001820160006101000a81549073ffffffffffffffffffffffffffffffffffffffff021916905560028201600090556003820160006109cd91906117dc565b5050905550565b6109dc611353565b73ffffffffffffffffffffffffffffffffffffffff166109fa610f48565b73ffffffffffffffffffffffffffffffffffffffff1614610a50576040517f08c379a0000000000000000000000000000000000000000000000000000000008152600401610a4790611f47565b60405180910390fd5b60004790506000610a5f610f48565b73ffffffffffffffffffffffffffffffffffffffff1682604051610a8290611dfa565b60006040518083038185875af1925050503d8060008114610abf576040519150601f19603f3d011682016040523d82523d6000602084013e610ac4565b606091505b5050905080610b08576040517f08c379a0000000000000000000000000000000000000000000000000000000008152600401610aff90611fc7565b60405180910390fd5b5050565b600060149054906101000a900460ff1615610b5c576040517f08c379a0000000000000000000000000000000000000000000000000000000008152600401610b5390611ee7565b60405180910390fd5b600154341015610ba1576040517f08c379a0000000000000000000000000000000000000000000000000000000008152600401610b9890611f87565b60405180910390fd5b4261012c600760003373ffffffffffffffffffffffffffffffffffffffff1673ffffffffffffffffffffffffffffffffffffffff16815260200190815260200160002054610bef9190612153565b10610c2f576040517f08c379a0000000000000000000000000000000000000000000000000000000008152600401610c2690611f07565b60405180910390fd5b42600760003373ffffffffffffffffffffffffffffffffffffffff1673ffffffffffffffffffffffffffffffffffffffff16815260200190815260200160002081905550610cb26040518060400160405280600d81526020017f257320686173207761766564210000000000000000000000000000000000000081525033611379565b6006604051806080016040528060068054905081526020013373ffffffffffffffffffffffffffffffffffffffff1681526020014281526020018381525090806001815401808255809150506001900390600052602060002090600402016000909190919091506000820151816000015560208201518160010160006101000a81548173ffffffffffffffffffffffffffffffffffffffff021916908373ffffffffffffffffffffffffffffffffffffffff160217905550604082015181600201556060820151816003019080519060200190610d9092919061181c565b505050610d9c33611415565b3373ffffffffffffffffffffffffffffffffffffffff167f276756d20aeaf97fc706a4fc8bdc4ec23d00482ab0f41c91ac78b820ac787ecf6001600680549050610de691906121a9565b4284604051610df79392919061204e565b60405180910390a250565b6000600354905090565b610e14611353565b73ffffffffffffffffffffffffffffffffffffffff16610e32610f48565b73ffffffffffffffffffffffffffffffffffffffff1614610e88576040517f08c379a0000000000000000000000000000000000000000000000000000000008152600401610e7f90611f47565b60405180910390fd5b60066000610e9691906118a2565b565b600060149054906101000a900460ff1681565b60025481565b610eb9611353565b73ffffffffffffffffffffffffffffffffffffffff16610ed7610f48565b73ffffffffffffffffffffffffffffffffffffffff1614610f2d576040517f08c379a0000000000000000000000000000000000000000000000000000000008152600401610f2490611f47565b60405180910390fd5b610f3760006115c6565b565b6000610f43610f48565b905090565b60008060009054906101000a900473ffffffffffffffffffffffffffffffffffffffff16905090565b6000600254905090565b6000600154905090565b6000600680549050905090565b60015481565b60076020528060005260406000206000915090505481565b60606006805480602002602001604051908101604052809291908181526020016000905b828210156111025783829060005260206000209060040201604051806080016040529081600082015481526020016001820160009054906101000a900473ffffffffffffffffffffffffffffffffffffffff1673ffffffffffffffffffffffffffffffffffffffff1673ffffffffffffffffffffffffffffffffffffffff1681526020016002820154815260200160038201805461107190612267565b80601f016020809104026020016040519081016040528092919081815260200182805461109d90612267565b80156110ea5780601f106110bf576101008083540402835291602001916110ea565b820191906000526020600020905b8154815290600101906020018083116110cd57829003601f168201915b50505050508152505081526020019060010190610fd4565b50505050905090565b60008060149054906101000a900460ff16905090565b6006818154811061113157600080fd5b90600052602060002090600402016000915090508060000154908060010160009054906101000a900473ffffffffffffffffffffffffffffffffffffffff169080600201549080600301805461118690612267565b80601f01602080910402602001604051908101604052809291908181526020018280546111b290612267565b80156111ff5780601f106111d4576101008083540402835291602001916111ff565b820191906000526020600020905b8154815290600101906020018083116111e257829003601f168201915b5050505050905084565b565b611213611353565b73ffffffffffffffffffffffffffffffffffffffff16611231610f48565b73ffffffffffffffffffffffffffffffffffffffff1614611287576040517f08c379a000000000000000000000000000000000000000000000000000000000815260040161127e90611f47565b60405180910390fd5b600073ffffffffffffffffffffffffffffffffffffffff168173ffffffffffffffffffffffffffffffffffffffff1614156112f7576040517f08c379a00000000000000000000000000000000000000000000000000000000081526004016112ee90611ec7565b60405180910390fd5b611300816115c6565b50565b6000600460009054906101000a900473ffffffffffffffffffffffffffffffffffffffff16905090565b600460009054906101000a900473ffffffffffffffffffffffffffffffffffffffff1681565b600033905090565b8060018190555050565b8060038190555050565b8060028190555050565b611411828260405160240161138f929190611e67565b6040516020818303038152906040527f319af333000000000000000000000000000000000000000000000000000000007bffffffffffffffffffffffffffffffffffffffffffffffffffffffff19166020820180517bffffffffffffffffffffffffffffffffffffffffffffffffffffffff838183161783525050505061168a565b5050565b60025447101561145a576040517f08c379a000000000000000000000000000000000000000000000000000000000815260040161145190611f27565b60405180910390fd5b60006064600554424461146d9190612153565b6114779190612153565b61148191906122ca565b90506114c26040518060400160405280601681526020017f52616e646f6d20232067656e6572617465643a20257300000000000000000000815250826116b3565b806005819055506003548110156115c2576115126040518060400160405280600b81526020017f25732068617320776f6e2100000000000000000000000000000000000000000081525033611379565b60008273ffffffffffffffffffffffffffffffffffffffff1660025460405161153a90611dfa565b60006040518083038185875af1925050503d8060008114611577576040519150601f19603f3d011682016040523d82523d6000602084013e61157c565b606091505b50509050806115c0576040517f08c379a00000000000000000000000000000000000000000000000000000000081526004016115b790611fc7565b60405180910390fd5b505b5050565b60008060009054906101000a900473ffffffffffffffffffffffffffffffffffffffff169050816000806101000a81548173ffffffffffffffffffffffffffffffffffffffff021916908373ffffffffffffffffffffffffffffffffffffffff1602179055508173ffffffffffffffffffffffffffffffffffffffff168173ffffffffffffffffffffffffffffffffffffffff167f8be0079c531659141344cd1fd0a4f28419497f9722a3daafe3b4186f6b6457e060405160405180910390a35050565b60008151905060006a636f6e736f6c652e6c6f679050602083016000808483855afa5050505050565b61174b82826040516024016116c9929190611e97565b6040516020818303038152906040527f9710a9d0000000000000000000000000000000000000000000000000000000007bffffffffffffffffffffffffffffffffffffffffffffffffffffffff19166020820180517bffffffffffffffffffffffffffffffffffffffffffffffffffffffff838183161783525050505061168a565b5050565b82805461175b90612267565b90600052602060002090601f01602090048101928261177d57600085556117cb565b82601f1061178e57805485556117cb565b828001600101855582156117cb57600052602060002091601f016020900482015b828111156117ca5782548255916001019190600101906117af565b5b5090506117d891906118c6565b5090565b5080546117e890612267565b6000825580601f106117fa5750611819565b601f01602090049060005260206000209081019061181891906118c6565b5b50565b82805461182890612267565b90600052602060002090601f01602090048101928261184a5760008555611891565b82601f1061186357805160ff1916838001178555611891565b82800160010185558215611891579182015b82811115611890578251825591602001919060010190611875565b5b50905061189e91906118c6565b5090565b50805460008255600402906000526020600020908101906118c391906118e3565b50565b5b808211156118df5760008160009055506001016118c7565b5090565b5b8082111561193d576000808201600090556001820160006101000a81549073ffffffffffffffffffffffffffffffffffffffff0219169055600282016000905560038201600061193491906117dc565b506004016118e4565b5090565b600061195461194f846120b1565b61208c565b90508281526020810184848401111561196c57600080fd5b611977848285612225565b509392505050565b60008135905061198e816125ae565b92915050565b6000813590506119a3816125c5565b92915050565b600082601f8301126119ba57600080fd5b81356119ca848260208601611941565b91505092915050565b6000813590506119e2816125dc565b92915050565b6000602082840312156119fa57600080fd5b6000611a088482850161197f565b91505092915050565b600060208284031215611a2357600080fd5b6000611a3184828501611994565b91505092915050565b600060208284031215611a4c57600080fd5b600082013567ffffffffffffffff811115611a6657600080fd5b611a72848285016119a9565b91505092915050565b600060208284031215611a8d57600080fd5b6000611a9b848285016119d3565b91505092915050565b600080600060608486031215611ab957600080fd5b6000611ac7868287016119d3565b9350506020611ad8868287016119d3565b9250506040611ae9868287016119d3565b9150509250925092565b6000611aff8383611d79565b905092915050565b611b10816121dd565b82525050565b611b1f816121dd565b82525050565b6000611b30826120f2565b611b3a8185612115565b935083602082028501611b4c856120e2565b8060005b85811015611b885784840389528151611b698582611af3565b9450611b7483612108565b925060208a01995050600181019050611b50565b50829750879550505050505092915050565b611ba3816121ef565b82525050565b6000611bb4826120fd565b611bbe8185612131565b9350611bce818560208601612234565b611bd7816123b7565b840191505092915050565b6000611bed826120fd565b611bf78185612142565b9350611c07818560208601612234565b611c10816123b7565b840191505092915050565b6000611c28602683612142565b9150611c33826123c8565b604082019050919050565b6000611c4b602083612142565b9150611c5682612417565b602082019050919050565b6000611c6e602a83612142565b9150611c7982612440565b604082019050919050565b6000611c91602083612142565b9150611c9c8261248f565b602082019050919050565b6000611cb4602083612142565b9150611cbf826124b8565b602082019050919050565b6000611cd7601683612142565b9150611ce2826124e1565b602082019050919050565b6000611cfa601883612142565b9150611d058261250a565b602082019050919050565b6000611d1d600083612126565b9150611d2882612533565b600082019050919050565b6000611d40602483612142565b9150611d4b82612536565b604082019050919050565b6000611d63602083612142565b9150611d6e82612585565b602082019050919050565b6000608083016000830151611d916000860182611ddc565b506020830151611da46020860182611b07565b506040830151611db76040860182611ddc565b5060608301518482036060860152611dcf8282611ba9565b9150508091505092915050565b611de58161221b565b82525050565b611df48161221b565b82525050565b6000611e0582611d10565b9150819050919050565b6000602082019050611e246000830184611b16565b92915050565b60006020820190508181036000830152611e448184611b25565b905092915050565b6000602082019050611e616000830184611b9a565b92915050565b60006040820190508181036000830152611e818185611be2565b9050611e906020830184611b16565b9392505050565b60006040820190508181036000830152611eb18185611be2565b9050611ec06020830184611deb565b9392505050565b60006020820190508181036000830152611ee081611c1b565b9050919050565b60006020820190508181036000830152611f0081611c3e565b9050919050565b60006020820190508181036000830152611f2081611c61565b9050919050565b60006020820190508181036000830152611f4081611c84565b9050919050565b60006020820190508181036000830152611f6081611ca7565b9050919050565b60006020820190508181036000830152611f8081611cca565b9050919050565b60006020820190508181036000830152611fa081611ced565b9050919050565b60006020820190508181036000830152611fc081611d33565b9050919050565b60006020820190508181036000830152611fe081611d56565b9050919050565b6000602082019050611ffc6000830184611deb565b92915050565b60006080820190506120176000830187611deb565b6120246020830186611b16565b6120316040830185611deb565b81810360608301526120438184611be2565b905095945050505050565b60006060820190506120636000830186611deb565b6120706020830185611deb565b81810360408301526120828184611be2565b9050949350505050565b60006120966120a7565b90506120a28282612299565b919050565b6000604051905090565b600067ffffffffffffffff8211156120cc576120cb612388565b5b6120d5826123b7565b9050602081019050919050565b6000819050602082019050919050565b600081519050919050565b600081519050919050565b6000602082019050919050565b600082825260208201905092915050565b600081905092915050565b600082825260208201905092915050565b600082825260208201905092915050565b600061215e8261221b565b91506121698361221b565b9250827fffffffffffffffffffffffffffffffffffffffffffffffffffffffffffffffff0382111561219e5761219d6122fb565b5b828201905092915050565b60006121b48261221b565b91506121bf8361221b565b9250828210156121d2576121d16122fb565b5b828203905092915050565b60006121e8826121fb565b9050919050565b60008115159050919050565b600073ffffffffffffffffffffffffffffffffffffffff82169050919050565b6000819050919050565b82818337600083830152505050565b60005b83811015612252578082015181840152602081019050612237565b83811115612261576000848401525b50505050565b6000600282049050600182168061227f57607f821691505b6020821081141561229357612292612359565b5b50919050565b6122a2826123b7565b810181811067ffffffffffffffff821117156122c1576122c0612388565b5b80604052505050565b60006122d58261221b565b91506122e08361221b565b9250826122f0576122ef61232a565b5b828206905092915050565b7f4e487b7100000000000000000000000000000000000000000000000000000000600052601160045260246000fd5b7f4e487b7100000000000000000000000000000000000000000000000000000000600052601260045260246000fd5b7f4e487b7100000000000000000000000000000000000000000000000000000000600052602260045260246000fd5b7f4e487b7100000000000000000000000000000000000000000000000000000000600052604160045260246000fd5b6000601f19601f8301169050919050565b7f4f776e61626c653a206e6577206f776e657220697320746865207a65726f206160008201527f6464726573730000000000000000000000000000000000000000000000000000602082015250565b7f546865207761766520706f7274616c20686173206265656e2070617573656421600082015250565b7f506c6561736520776169742035206d696e75746573206265666f72652077617660008201527f696e6720616761696e2100000000000000000000000000000000000000000000602082015250565b7f436f6e74726163742062616c616e636520697320696e73756666696369656e74600082015250565b7f4f776e61626c653a2063616c6c6572206973206e6f7420746865206f776e6572600082015250565b7f476976656e20696e64657820697320696e76616c696400000000000000000000600082015250565b7f416d6f756e742073656e7420697320696e636f72726563740000000000000000600082015250565b50565b7f53656e64657220646f6573206e6f74206d617463682074686520676976656e2060008201527f7761766500000000000000000000000000000000000000000000000000000000602082015250565b7f4661696c656420746f2077697468647261772066726f6d20636f6e7472616374600082015250565b6125b7816121dd565b81146125c257600080fd5b50565b6125ce816121ef565b81146125d957600080fd5b50565b6125e58161221b565b81146125f057600080fd5b5056fea2646970667358221220f1a7550f88b5dfdbbfb47a4a3566d8cf6c55f8dd9cd8b5b35ff3f5c44b44a7b064736f6c63430008040033",
  "linkReferences": {},
  "deployedLinkReferences": {}
}