{
  "_format": "hh-sol-artifact-1",
  "contractName": "WavePortal",
  "sourceName": "contracts/WavePortal.sol",
  "abi": [
    {
      "inputs": [],
      "stateMutability": "payable",
      "type": "constructor"
    },
    {
      "anonymous": false,
      "inputs": [
        {
          "indexed": false,
          "internalType": "uint256",
          "name": "index",
          "type": "uint256"
        },
        {
          "indexed": true,
          "internalType": "address",
          "name": "from",
          "type": "address"
        },
        {
          "indexed": false,
          "internalType": "uint256",
          "name": "timestamp",
          "type": "uint256"
        },
        {
          "indexed": false,
          "internalType": "string",
          "name": "message",
          "type": "string"
        }
      ],
      "name": "NewWave",
      "type": "event"
    },
    {
      "anonymous": false,
      "inputs": [
        {
          "indexed": true,
          "internalType": "address",
          "name": "previousOwner",
          "type": "address"
        },
        {
          "indexed": true,
          "internalType": "address",
          "name": "newOwner",
          "type": "address"
        }
      ],
      "name": "OwnershipTransferred",
      "type": "event"
    },
    {
      "inputs": [],
      "name": "clear",
      "outputs": [],
      "stateMutability": "nonpayable",
      "type": "function"
    },
    {
      "inputs": [
        {
          "internalType": "uint256",
          "name": "index",
          "type": "uint256"
        }
      ],
      "name": "deleteWave",
      "outputs": [],
      "stateMutability": "nonpayable",
      "type": "function"
    },
    {
      "inputs": [],
      "name": "deposit",
      "outputs": [],
      "stateMutability": "payable",
      "type": "function"
    },
    {
      "inputs": [],
      "name": "getAllWaves",
      "outputs": [
        {
          "components": [
            {
              "internalType": "uint256",
              "name": "index",
              "type": "uint256"
            },
            {
              "internalType": "address",
              "name": "sender",
              "type": "address"
            },
            {
              "internalType": "uint256",
              "name": "timestamp",
              "type": "uint256"
            },
            {
              "internalType": "string",
              "name": "message",
              "type": "string"
            }
          ],
          "internalType": "struct WavePortal.Wave[]",
          "name": "",
          "type": "tuple[]"
        }
      ],
      "stateMutability": "view",
      "type": "function"
    },
    {
      "inputs": [],
      "name": "getBalance",
      "outputs": [
        {
          "internalType": "uint256",
          "name": "",
          "type": "uint256"
        }
      ],
      "stateMutability": "view",
      "type": "function"
    },
    {
      "inputs": [],
      "name": "getJackpot",
      "outputs": [
        {
          "internalType": "uint256",
          "name": "",
          "type": "uint256"
        }
      ],
      "stateMutability": "view",
      "type": "function"
    },
    {
      "inputs": [],
      "name": "getLastWinner",
      "outputs": [
        {
          "internalType": "address",
          "name": "",
          "type": "address"
        }
      ],
      "stateMutability": "view",
      "type": "function"
    },
    {
      "inputs": [],
      "name": "getOdds",
      "outputs": [
        {
          "internalType": "uint256",
          "name": "",
          "type": "uint256"
        }
      ],
      "stateMutability": "view",
      "type": "function"
    },
    {
      "inputs": [],
      "name": "getOwner",
      "outputs": [
        {
          "internalType": "address",
          "name": "",
          "type": "address"
        }
      ],
      "stateMutability": "view",
      "type": "function"
    },
    {
      "inputs": [],
      "name": "getPrice",
      "outputs": [
        {
          "internalType": "uint256",
          "name": "",
          "type": "uint256"
        }
      ],
      "stateMutability": "view",
      "type": "function"
    },
    {
      "inputs": [],
      "name": "getTotalWaves",
      "outputs": [
        {
          "internalType": "uint256",
          "name": "",
          "type": "uint256"
        }
      ],
      "stateMutability": "view",
      "type": "function"
    },
    {
      "inputs": [],
      "name": "isPaused",
      "outputs": [
        {
          "internalType": "bool",
          "name": "",
          "type": "bool"
        }
      ],
      "stateMutability": "view",
      "type": "function"
    },
    {
      "inputs": [],
      "name": "jackpot",
      "outputs": [
        {
          "internalType": "uint256",
          "name": "",
          "type": "uint256"
        }
      ],
      "stateMutability": "view",
      "type": "function"
    },
    {
      "inputs": [
        {
          "internalType": "address",
          "name": "",
          "type": "address"
        }
      ],
      "name": "lastWavedAt",
      "outputs": [
        {
          "internalType": "uint256",
          "name": "",
          "type": "uint256"
        }
      ],
      "stateMutability": "view",
      "type": "function"
    },
    {
      "inputs": [],
      "name": "lastWinner",
      "outputs": [
        {
          "internalType": "address",
          "name": "",
          "type": "address"
        }
      ],
      "stateMutability": "view",
      "type": "function"
    },
    {
      "inputs": [],
      "name": "odds",
      "outputs": [
        {
          "internalType": "uint256",
          "name": "",
          "type": "uint256"
        }
      ],
      "stateMutability": "view",
      "type": "function"
    },
    {
      "inputs": [],
      "name": "owner",
      "outputs": [
        {
          "internalType": "address",
          "name": "",
          "type": "address"
        }
      ],
      "stateMutability": "view",
      "type": "function"
    },
    {
      "inputs": [
        {
          "internalType": "bool",
          "name": "value",
          "type": "bool"
        }
      ],
      "name": "pause",
      "outputs": [],
      "stateMutability": "nonpayable",
      "type": "function"
    },
    {
      "inputs": [],
      "name": "paused",
      "outputs": [
        {
          "internalType": "bool",
          "name": "",
          "type": "bool"
        }
      ],
      "stateMutability": "view",
      "type": "function"
    },
    {
      "inputs": [],
      "name": "price",
      "outputs": [
        {
          "internalType": "uint256",
          "name": "",
          "type": "uint256"
        }
      ],
      "stateMutability": "view",
      "type": "function"
    },
    {
      "inputs": [],
      "name": "renounceOwnership",
      "outputs": [],
      "stateMutability": "nonpayable",
      "type": "function"
    },
    {
      "inputs": [
        {
          "internalType": "uint256",
          "name": "newJackpot",
          "type": "uint256"
        }
      ],
      "name": "setJackpot",
      "outputs": [],
      "stateMutability": "nonpayable",
      "type": "function"
    },
    {
      "inputs": [
        {
          "internalType": "uint256",
          "name": "newOdds",
          "type": "uint256"
        }
      ],
      "name": "setOdds",
      "outputs": [],
      "stateMutability": "nonpayable",
      "type": "function"
    },
    {
      "inputs": [
        {
          "internalType": "uint256",
          "name": "newPrice",
          "type": "uint256"
        }
      ],
      "name": "setPrice",
      "outputs": [],
      "stateMutability": "nonpayable",
      "type": "function"
    },
    {
      "inputs": [
        {
          "internalType": "address",
          "name": "newOwner",
          "type": "address"
        }
      ],
      "name": "transferOwnership",
      "outputs": [],
      "stateMutability": "nonpayable",
      "type": "function"
    },
    {
      "inputs": [
        {
          "internalType": "uint256",
          "name": "newPrice",
          "type": "uint256"
        },
        {
          "internalType": "uint256",
          "name": "newOdds",
          "type": "uint256"
        },
        {
          "internalType": "uint256",
          "name": "newJackpot",
          "type": "uint256"
        }
      ],
      "name": "updateSettings",
      "outputs": [],
      "stateMutability": "nonpayable",
      "type": "function"
    },
    {
      "inputs": [
        {
          "internalType": "string",
          "name": "message",
          "type": "string"
        }
      ],
      "name": "wave",
      "outputs": [],
      "stateMutability": "payable",
      "type": "function"
    },
    {
      "inputs": [
        {
          "internalType": "uint256",
          "name": "",
          "type": "uint256"
        }
      ],
      "name": "waves",
      "outputs": [
        {
          "internalType": "uint256",
          "name": "index",
          "type": "uint256"
        },
        {
          "internalType": "address",
          "name": "sender",
          "type": "address"
        },
        {
          "internalType": "uint256",
          "name": "timestamp",
          "type": "uint256"
        },
        {
          "internalType": "string",
          "name": "message",
          "type": "string"
        }
      ],
      "stateMutability": "view",
      "type": "function"
    },
    {
      "inputs": [],
      "name": "withdraw",
      "outputs": [],
      "stateMutability": "nonpayable",
      "type": "function"
    }
  ],
  "bytecode": "0x608060405260008060146101000a81548160ff021916908315150217905550655af3107a400060015566038d7ea4c68000600255600a60035561005461004961005960201b60201c565b61006160201b60201c565b610125565b600033905090565b60008060009054906101000a900473ffffffffffffffffffffffffffffffffffffffff169050816000806101000a81548173ffffffffffffffffffffffffffffffffffffffff021916908373ffffffffffffffffffffffffffffffffffffffff1602179055508173ffffffffffffffffffffffffffffffffffffffff168173ffffffffffffffffffffffffffffffffffffffff167f8be0079c531659141344cd1fd0a4f28419497f9722a3daafe3b4186f6b6457e060405160405180910390a35050565b61285980620001356000396000f3fe6080604052600436106101c25760003560e01c80638da5cb5b116100f7578063a6809af011610095578063d0e30db011610064578063d0e30db0146105ca578063f2fde38b146105d4578063f88649a1146105fd578063fe18818414610628576101c2565b8063a6809af01461050b578063b187bd2614610534578063bd43a9081461055f578063c781267a1461058a576101c2565b806398d5fdca116100d157806398d5fdca1461044d5780639a2cdc0814610478578063a035b1fe146104a3578063a42a4663146104ce576101c2565b80638da5cb5b146103ce57806391b7f5ed146103f95780639329066c14610422576101c2565b80634c5be574116101645780635c975abb1161013e5780635c975abb146103365780636b31ee0114610361578063715018a61461038c578063893d20e8146103a3576101c2565b80634c5be574146102cb57806352efea6e146102f657806359992cc81461030d576101c2565b8063233de126116101a0578063233de12614610244578063328e2ac71461026f5780633ccfd60b14610298578063449d46c0146102af576101c2565b806302329a29146101c75780630465c563146101f057806312065fe014610219575b600080fd5b3480156101d357600080fd5b506101ee60048036038101906101e99190611c41565b610653565b005b3480156101fc57600080fd5b5061021760048036038101906102129190611cd4565b6106ec565b005b34801561022557600080fd5b5061022e610788565b60405161023b9190612217565b60405180910390f35b34801561025057600080fd5b50610259610790565b6040516102669190612217565b60405180910390f35b34801561027b57600080fd5b5061029660048036038101906102919190611cab565b610796565b005b3480156102a457600080fd5b506102ad610a90565b005b6102c960048036038101906102c49190611c6a565b610bc8565b005b3480156102d757600080fd5b506102e0610ebe565b6040516102ed9190612217565b60405180910390f35b34801561030257600080fd5b5061030b610ec8565b005b34801561031957600080fd5b50610334600480360381019061032f9190611cab565b610f54565b005b34801561034257600080fd5b5061034b610fda565b604051610358919061207c565b60405180910390f35b34801561036d57600080fd5b50610376610fed565b6040516103839190612217565b60405180910390f35b34801561039857600080fd5b506103a1610ff3565b005b3480156103af57600080fd5b506103b861107b565b6040516103c5919061203f565b60405180910390f35b3480156103da57600080fd5b506103e361108a565b6040516103f0919061203f565b60405180910390f35b34801561040557600080fd5b50610420600480360381019061041b9190611cab565b6110b3565b005b34801561042e57600080fd5b50610437611139565b6040516104449190612217565b60405180910390f35b34801561045957600080fd5b50610462611143565b60405161046f9190612217565b60405180910390f35b34801561048457600080fd5b5061048d61114d565b60405161049a9190612217565b60405180910390f35b3480156104af57600080fd5b506104b861115a565b6040516104c59190612217565b60405180910390f35b3480156104da57600080fd5b506104f560048036038101906104f09190611c18565b611160565b6040516105029190612217565b60405180910390f35b34801561051757600080fd5b50610532600480360381019061052d9190611cab565b611178565b005b34801561054057600080fd5b506105496111fe565b604051610556919061207c565b60405180910390f35b34801561056b57600080fd5b50610574611214565b604051610581919061205a565b60405180910390f35b34801561059657600080fd5b506105b160048036038101906105ac9190611cab565b61136f565b6040516105c19493929190612232565b60405180910390f35b6105d2611457565b005b3480156105e057600080fd5b506105fb60048036038101906105f69190611c18565b611459565b005b34801561060957600080fd5b50610612611551565b60405161061f919061203f565b60405180910390f35b34801561063457600080fd5b5061063d61157b565b60405161064a919061203f565b60405180910390f35b61065b6115a1565b73ffffffffffffffffffffffffffffffffffffffff1661067961108a565b73ffffffffffffffffffffffffffffffffffffffff16146106cf576040517f08c379a00000000000000000000000000000000000000000000000000000000081526004016106c690612177565b60405180910390fd5b80600060146101000a81548160ff02191690831515021790555050565b6106f46115a1565b73ffffffffffffffffffffffffffffffffffffffff1661071261108a565b73ffffffffffffffffffffffffffffffffffffffff1614610768576040517f08c379a000000000000000000000000000000000000000000000000000000000815260040161075f90612177565b60405180910390fd5b610771836110b3565b61077a82611178565b61078381610f54565b505050565b600047905090565b60035481565b80600680549050116107dd576040517f08c379a00000000000000000000000000000000000000000000000000000000081526004016107d490612197565b60405180910390fd5b3373ffffffffffffffffffffffffffffffffffffffff166006828154811061082e577f4e487b7100000000000000000000000000000000000000000000000000000000600052603260045260246000fd5b906000526020600020906004020160010160009054906101000a900473ffffffffffffffffffffffffffffffffffffffff1673ffffffffffffffffffffffffffffffffffffffff16146108b6576040517f08c379a00000000000000000000000000000000000000000000000000000000081526004016108ad906121d7565b60405180910390fd5b600660016006805490506108ca91906123d9565b81548110610901577f4e487b7100000000000000000000000000000000000000000000000000000000600052603260045260246000fd5b906000526020600020906004020160068281548110610949577f4e487b7100000000000000000000000000000000000000000000000000000000600052603260045260246000fd5b9060005260206000209060040201600082015481600001556001820160009054906101000a900473ffffffffffffffffffffffffffffffffffffffff168160010160006101000a81548173ffffffffffffffffffffffffffffffffffffffff021916908373ffffffffffffffffffffffffffffffffffffffff1602179055506002820154816002015560038201816003019080546109e690612497565b6109f192919061197f565b509050506006805480610a2d577f4e487b7100000000000000000000000000000000000000000000000000000000600052603160045260246000fd5b60019003818190600052602060002090600402016000808201600090556001820160006101000a81549073ffffffffffffffffffffffffffffffffffffffff02191690556002820160009055600382016000610a899190611a0c565b5050905550565b610a986115a1565b73ffffffffffffffffffffffffffffffffffffffff16610ab661108a565b73ffffffffffffffffffffffffffffffffffffffff1614610b0c576040517f08c379a0000000000000000000000000000000000000000000000000000000008152600401610b0390612177565b60405180910390fd5b60004790506000610b1b61108a565b73ffffffffffffffffffffffffffffffffffffffff1682604051610b3e9061202a565b60006040518083038185875af1925050503d8060008114610b7b576040519150601f19603f3d011682016040523d82523d6000602084013e610b80565b606091505b5050905080610bc4576040517f08c379a0000000000000000000000000000000000000000000000000000000008152600401610bbb906121f7565b60405180910390fd5b5050565b600060149054906101000a900460ff1615610c18576040517f08c379a0000000000000000000000000000000000000000000000000000000008152600401610c0f90612117565b60405180910390fd5b600154341015610c5d576040517f08c379a0000000000000000000000000000000000000000000000000000000008152600401610c54906121b7565b60405180910390fd5b4261012c600760003373ffffffffffffffffffffffffffffffffffffffff1673ffffffffffffffffffffffffffffffffffffffff16815260200190815260200160002054610cab9190612383565b10610ceb576040517f08c379a0000000000000000000000000000000000000000000000000000000008152600401610ce290612137565b60405180910390fd5b42600760003373ffffffffffffffffffffffffffffffffffffffff1673ffffffffffffffffffffffffffffffffffffffff16815260200190815260200160002081905550610d6e6040518060400160405280600d81526020017f2573206861732077617665642100000000000000000000000000000000000000815250336115a9565b6006604051806080016040528060068054905081526020013373ffffffffffffffffffffffffffffffffffffffff1681526020014281526020018381525090806001815401808255809150506001900390600052602060002090600402016000909190919091506000820151816000015560208201518160010160006101000a81548173ffffffffffffffffffffffffffffffffffffffff021916908373ffffffffffffffffffffffffffffffffffffffff160217905550604082015181600201556060820151816003019080519060200190610e4c929190611a4c565b505050610e5833611645565b3373ffffffffffffffffffffffffffffffffffffffff167f276756d20aeaf97fc706a4fc8bdc4ec23d00482ab0f41c91ac78b820ac787ecf6001600680549050610ea291906123d9565b4284604051610eb39392919061227e565b60405180910390a250565b6000600354905090565b610ed06115a1565b73ffffffffffffffffffffffffffffffffffffffff16610eee61108a565b73ffffffffffffffffffffffffffffffffffffffff1614610f44576040517f08c379a0000000000000000000000000000000000000000000000000000000008152600401610f3b90612177565b60405180910390fd5b60066000610f529190611ad2565b565b610f5c6115a1565b73ffffffffffffffffffffffffffffffffffffffff16610f7a61108a565b73ffffffffffffffffffffffffffffffffffffffff1614610fd0576040517f08c379a0000000000000000000000000000000000000000000000000000000008152600401610fc790612177565b60405180910390fd5b8060028190555050565b600060149054906101000a900460ff1681565b60025481565b610ffb6115a1565b73ffffffffffffffffffffffffffffffffffffffff1661101961108a565b73ffffffffffffffffffffffffffffffffffffffff161461106f576040517f08c379a000000000000000000000000000000000000000000000000000000000815260040161106690612177565b60405180910390fd5b61107960006117f6565b565b600061108561108a565b905090565b60008060009054906101000a900473ffffffffffffffffffffffffffffffffffffffff16905090565b6110bb6115a1565b73ffffffffffffffffffffffffffffffffffffffff166110d961108a565b73ffffffffffffffffffffffffffffffffffffffff161461112f576040517f08c379a000000000000000000000000000000000000000000000000000000000815260040161112690612177565b60405180910390fd5b8060018190555050565b6000600254905090565b6000600154905090565b6000600680549050905090565b60015481565b60076020528060005260406000206000915090505481565b6111806115a1565b73ffffffffffffffffffffffffffffffffffffffff1661119e61108a565b73ffffffffffffffffffffffffffffffffffffffff16146111f4576040517f08c379a00000000000000000000000000000000000000000000000000000000081526004016111eb90612177565b60405180910390fd5b8060038190555050565b60008060149054906101000a900460ff16905090565b60606006805480602002602001604051908101604052809291908181526020016000905b828210156113665783829060005260206000209060040201604051806080016040529081600082015481526020016001820160009054906101000a900473ffffffffffffffffffffffffffffffffffffffff1673ffffffffffffffffffffffffffffffffffffffff1673ffffffffffffffffffffffffffffffffffffffff168152602001600282015481526020016003820180546112d590612497565b80601f016020809104026020016040519081016040528092919081815260200182805461130190612497565b801561134e5780601f106113235761010080835404028352916020019161134e565b820191906000526020600020905b81548152906001019060200180831161133157829003601f168201915b50505050508152505081526020019060010190611238565b50505050905090565b6006818154811061137f57600080fd5b90600052602060002090600402016000915090508060000154908060010160009054906101000a900473ffffffffffffffffffffffffffffffffffffffff16908060020154908060030180546113d490612497565b80601f016020809104026020016040519081016040528092919081815260200182805461140090612497565b801561144d5780601f106114225761010080835404028352916020019161144d565b820191906000526020600020905b81548152906001019060200180831161143057829003601f168201915b5050505050905084565b565b6114616115a1565b73ffffffffffffffffffffffffffffffffffffffff1661147f61108a565b73ffffffffffffffffffffffffffffffffffffffff16146114d5576040517f08c379a00000000000000000000000000000000000000000000000000000000081526004016114cc90612177565b60405180910390fd5b600073ffffffffffffffffffffffffffffffffffffffff168173ffffffffffffffffffffffffffffffffffffffff161415611545576040517f08c379a000000000000000000000000000000000000000000000000000000000815260040161153c906120f7565b60405180910390fd5b61154e816117f6565b50565b6000600460009054906101000a900473ffffffffffffffffffffffffffffffffffffffff16905090565b600460009054906101000a900473ffffffffffffffffffffffffffffffffffffffff1681565b600033905090565b61164182826040516024016115bf929190612097565b6040516020818303038152906040527f319af333000000000000000000000000000000000000000000000000000000007bffffffffffffffffffffffffffffffffffffffffffffffffffffffff19166020820180517bffffffffffffffffffffffffffffffffffffffffffffffffffffffff83818316178352505050506118ba565b5050565b60025447101561168a576040517f08c379a000000000000000000000000000000000000000000000000000000000815260040161168190612157565b60405180910390fd5b60006064600554424461169d9190612383565b6116a79190612383565b6116b191906124fa565b90506116f26040518060400160405280601681526020017f52616e646f6d20232067656e6572617465643a20257300000000000000000000815250826118e3565b806005819055506003548110156117f2576117426040518060400160405280600b81526020017f25732068617320776f6e21000000000000000000000000000000000000000000815250336115a9565b60008273ffffffffffffffffffffffffffffffffffffffff1660025460405161176a9061202a565b60006040518083038185875af1925050503d80600081146117a7576040519150601f19603f3d011682016040523d82523d6000602084013e6117ac565b606091505b50509050806117f0576040517f08c379a00000000000000000000000000000000000000000000000000000000081526004016117e7906121f7565b60405180910390fd5b505b5050565b60008060009054906101000a900473ffffffffffffffffffffffffffffffffffffffff169050816000806101000a81548173ffffffffffffffffffffffffffffffffffffffff021916908373ffffffffffffffffffffffffffffffffffffffff1602179055508173ffffffffffffffffffffffffffffffffffffffff168173ffffffffffffffffffffffffffffffffffffffff167f8be0079c531659141344cd1fd0a4f28419497f9722a3daafe3b4186f6b6457e060405160405180910390a35050565b60008151905060006a636f6e736f6c652e6c6f679050602083016000808483855afa5050505050565b61197b82826040516024016118f99291906120c7565b6040516020818303038152906040527f9710a9d0000000000000000000000000000000000000000000000000000000007bffffffffffffffffffffffffffffffffffffffffffffffffffffffff19166020820180517bffffffffffffffffffffffffffffffffffffffffffffffffffffffff83818316178352505050506118ba565b5050565b82805461198b90612497565b90600052602060002090601f0160209004810192826119ad57600085556119fb565b82601f106119be57805485556119fb565b828001600101855582156119fb57600052602060002091601f016020900482015b828111156119fa5782548255916001019190600101906119df565b5b509050611a089190611af6565b5090565b508054611a1890612497565b6000825580601f10611a2a5750611a49565b601f016020900490600052602060002090810190611a489190611af6565b5b50565b828054611a5890612497565b90600052602060002090601f016020900481019282611a7a5760008555611ac1565b82601f10611a9357805160ff1916838001178555611ac1565b82800160010185558215611ac1579182015b82811115611ac0578251825591602001919060010190611aa5565b5b509050611ace9190611af6565b5090565b5080546000825560040290600052602060002090810190611af39190611b13565b50565b5b80821115611b0f576000816000905550600101611af7565b5090565b5b80821115611b6d576000808201600090556001820160006101000a81549073ffffffffffffffffffffffffffffffffffffffff02191690556002820160009055600382016000611b649190611a0c565b50600401611b14565b5090565b6000611b84611b7f846122e1565b6122bc565b905082815260208101848484011115611b9c57600080fd5b611ba7848285612455565b509392505050565b600081359050611bbe816127de565b92915050565b600081359050611bd3816127f5565b92915050565b600082601f830112611bea57600080fd5b8135611bfa848260208601611b71565b91505092915050565b600081359050611c128161280c565b92915050565b600060208284031215611c2a57600080fd5b6000611c3884828501611baf565b91505092915050565b600060208284031215611c5357600080fd5b6000611c6184828501611bc4565b91505092915050565b600060208284031215611c7c57600080fd5b600082013567ffffffffffffffff811115611c9657600080fd5b611ca284828501611bd9565b91505092915050565b600060208284031215611cbd57600080fd5b6000611ccb84828501611c03565b91505092915050565b600080600060608486031215611ce957600080fd5b6000611cf786828701611c03565b9350506020611d0886828701611c03565b9250506040611d1986828701611c03565b9150509250925092565b6000611d2f8383611fa9565b905092915050565b611d408161240d565b82525050565b611d4f8161240d565b82525050565b6000611d6082612322565b611d6a8185612345565b935083602082028501611d7c85612312565b8060005b85811015611db85784840389528151611d998582611d23565b9450611da483612338565b925060208a01995050600181019050611d80565b50829750879550505050505092915050565b611dd38161241f565b82525050565b6000611de48261232d565b611dee8185612361565b9350611dfe818560208601612464565b611e07816125e7565b840191505092915050565b6000611e1d8261232d565b611e278185612372565b9350611e37818560208601612464565b611e40816125e7565b840191505092915050565b6000611e58602683612372565b9150611e63826125f8565b604082019050919050565b6000611e7b602083612372565b9150611e8682612647565b602082019050919050565b6000611e9e602a83612372565b9150611ea982612670565b604082019050919050565b6000611ec1602083612372565b9150611ecc826126bf565b602082019050919050565b6000611ee4602083612372565b9150611eef826126e8565b602082019050919050565b6000611f07601683612372565b9150611f1282612711565b602082019050919050565b6000611f2a601883612372565b9150611f358261273a565b602082019050919050565b6000611f4d600083612356565b9150611f5882612763565b600082019050919050565b6000611f70602483612372565b9150611f7b82612766565b604082019050919050565b6000611f93602083612372565b9150611f9e826127b5565b602082019050919050565b6000608083016000830151611fc1600086018261200c565b506020830151611fd46020860182611d37565b506040830151611fe7604086018261200c565b5060608301518482036060860152611fff8282611dd9565b9150508091505092915050565b6120158161244b565b82525050565b6120248161244b565b82525050565b600061203582611f40565b9150819050919050565b60006020820190506120546000830184611d46565b92915050565b600060208201905081810360008301526120748184611d55565b905092915050565b60006020820190506120916000830184611dca565b92915050565b600060408201905081810360008301526120b18185611e12565b90506120c06020830184611d46565b9392505050565b600060408201905081810360008301526120e18185611e12565b90506120f0602083018461201b565b9392505050565b6000602082019050818103600083015261211081611e4b565b9050919050565b6000602082019050818103600083015261213081611e6e565b9050919050565b6000602082019050818103600083015261215081611e91565b9050919050565b6000602082019050818103600083015261217081611eb4565b9050919050565b6000602082019050818103600083015261219081611ed7565b9050919050565b600060208201905081810360008301526121b081611efa565b9050919050565b600060208201905081810360008301526121d081611f1d565b9050919050565b600060208201905081810360008301526121f081611f63565b9050919050565b6000602082019050818103600083015261221081611f86565b9050919050565b600060208201905061222c600083018461201b565b92915050565b6000608082019050612247600083018761201b565b6122546020830186611d46565b612261604083018561201b565b81810360608301526122738184611e12565b905095945050505050565b6000606082019050612293600083018661201b565b6122a0602083018561201b565b81810360408301526122b28184611e12565b9050949350505050565b60006122c66122d7565b90506122d282826124c9565b919050565b6000604051905090565b600067ffffffffffffffff8211156122fc576122fb6125b8565b5b612305826125e7565b9050602081019050919050565b6000819050602082019050919050565b600081519050919050565b600081519050919050565b6000602082019050919050565b600082825260208201905092915050565b600081905092915050565b600082825260208201905092915050565b600082825260208201905092915050565b600061238e8261244b565b91506123998361244b565b9250827fffffffffffffffffffffffffffffffffffffffffffffffffffffffffffffffff038211156123ce576123cd61252b565b5b828201905092915050565b60006123e48261244b565b91506123ef8361244b565b9250828210156124025761240161252b565b5b828203905092915050565b60006124188261242b565b9050919050565b60008115159050919050565b600073ffffffffffffffffffffffffffffffffffffffff82169050919050565b6000819050919050565b82818337600083830152505050565b60005b83811015612482578082015181840152602081019050612467565b83811115612491576000848401525b50505050565b600060028204905060018216806124af57607f821691505b602082108114156124c3576124c2612589565b5b50919050565b6124d2826125e7565b810181811067ffffffffffffffff821117156124f1576124f06125b8565b5b80604052505050565b60006125058261244b565b91506125108361244b565b9250826125205761251f61255a565b5b828206905092915050565b7f4e487b7100000000000000000000000000000000000000000000000000000000600052601160045260246000fd5b7f4e487b7100000000000000000000000000000000000000000000000000000000600052601260045260246000fd5b7f4e487b7100000000000000000000000000000000000000000000000000000000600052602260045260246000fd5b7f4e487b7100000000000000000000000000000000000000000000000000000000600052604160045260246000fd5b6000601f19601f8301169050919050565b7f4f776e61626c653a206e6577206f776e657220697320746865207a65726f206160008201527f6464726573730000000000000000000000000000000000000000000000000000602082015250565b7f546865207761766520706f7274616c20686173206265656e2070617573656421600082015250565b7f506c6561736520776169742035206d696e75746573206265666f72652077617660008201527f696e6720616761696e2100000000000000000000000000000000000000000000602082015250565b7f436f6e74726163742062616c616e636520697320696e73756666696369656e74600082015250565b7f4f776e61626c653a2063616c6c6572206973206e6f7420746865206f776e6572600082015250565b7f476976656e20696e64657820697320696e76616c696400000000000000000000600082015250565b7f416d6f756e742073656e7420697320696e636f72726563740000000000000000600082015250565b50565b7f53656e64657220646f6573206e6f74206d617463682074686520676976656e2060008201527f7761766500000000000000000000000000000000000000000000000000000000602082015250565b7f4661696c656420746f2077697468647261772066726f6d20636f6e7472616374600082015250565b6127e78161240d565b81146127f257600080fd5b50565b6127fe8161241f565b811461280957600080fd5b50565b6128158161244b565b811461282057600080fd5b5056fea2646970667358221220cf22f59ff04deea6e78f6c23612404da71eb67e302eb7b01ab750a578cfb68ea64736f6c63430008040033",
  "linkReferences": {},
  "deployedLinkReferences": {}
}